{
  "contractName": "Contract",
  "abi": [
    {
      "inputs": [
        {
          "internalType": "uint256",
          "name": "",
          "type": "uint256"
        }
      ],
      "name": "assignedVerifiers",
      "outputs": [
        {
          "internalType": "address",
          "name": "",
          "type": "address"
        }
      ],
      "stateMutability": "view",
      "type": "function",
      "constant": true
    },
    {
      "inputs": [],
      "name": "completionDate",
      "outputs": [
        {
          "internalType": "uint256",
          "name": "",
          "type": "uint256"
        }
      ],
      "stateMutability": "view",
      "type": "function",
      "constant": true
    },
    {
      "inputs": [
        {
          "internalType": "uint256",
          "name": "",
          "type": "uint256"
        }
      ],
      "name": "constraints",
      "outputs": [
        {
          "internalType": "string",
          "name": "",
          "type": "string"
        }
      ],
      "stateMutability": "view",
      "type": "function",
      "constant": true
    },
    {
      "inputs": [],
      "name": "contractName",
      "outputs": [
        {
          "internalType": "string",
          "name": "",
          "type": "string"
        }
      ],
      "stateMutability": "view",
      "type": "function",
      "constant": true
    },
    {
      "inputs": [],
      "name": "contractorAddress",
      "outputs": [
        {
          "internalType": "address",
          "name": "",
          "type": "address"
        }
      ],
      "stateMutability": "view",
      "type": "function",
      "constant": true
    },
    {
      "inputs": [],
      "name": "creationDate",
      "outputs": [
        {
          "internalType": "uint256",
          "name": "",
          "type": "uint256"
        }
      ],
      "stateMutability": "view",
      "type": "function",
      "constant": true
    },
    {
      "inputs": [],
      "name": "governmentOfficerAddress",
      "outputs": [
        {
          "internalType": "address",
          "name": "",
          "type": "address"
        }
      ],
      "stateMutability": "view",
      "type": "function",
      "constant": true
    },
    {
      "inputs": [],
      "name": "governmentOfficerVerified",
      "outputs": [
        {
          "internalType": "bool",
          "name": "",
          "type": "bool"
        }
      ],
      "stateMutability": "view",
      "type": "function",
      "constant": true
    },
    {
      "inputs": [
        {
          "internalType": "address",
          "name": "",
          "type": "address"
        }
      ],
      "name": "isAssignedVerifier",
      "outputs": [
        {
          "internalType": "bool",
          "name": "",
          "type": "bool"
        }
      ],
      "stateMutability": "view",
      "type": "function",
      "constant": true
    },
    {
      "inputs": [
        {
          "internalType": "uint256",
          "name": "",
          "type": "uint256"
        },
        {
          "internalType": "uint256",
          "name": "",
          "type": "uint256"
        }
      ],
      "name": "milestoneVerifications",
      "outputs": [
        {
          "internalType": "address",
          "name": "verifier",
          "type": "address"
        },
        {
          "internalType": "bool",
          "name": "isApproved",
          "type": "bool"
        },
        {
          "internalType": "string",
          "name": "comments",
          "type": "string"
        },
        {
          "internalType": "uint256",
          "name": "timestamp",
          "type": "uint256"
        },
        {
          "internalType": "uint256",
          "name": "stakeId",
          "type": "uint256"
        },
        {
          "internalType": "string",
          "name": "ipfsProofHash",
          "type": "string"
        }
      ],
      "stateMutability": "view",
      "type": "function",
      "constant": true
    },
    {
      "inputs": [],
      "name": "stakeManager",
      "outputs": [
        {
          "internalType": "contract StakeManager",
          "name": "",
          "type": "address"
        }
      ],
      "stateMutability": "view",
      "type": "function",
      "constant": true
    },
    {
      "inputs": [
        {
          "internalType": "uint256",
          "name": "",
          "type": "uint256"
        }
      ],
      "name": "tasks",
      "outputs": [
        {
          "internalType": "string",
          "name": "description",
          "type": "string"
        },
        {
          "internalType": "uint256",
          "name": "deadlineTime",
          "type": "uint256"
        },
        {
          "internalType": "uint256",
          "name": "amount",
          "type": "uint256"
        },
        {
          "internalType": "enum Contract.TaskStatus",
          "name": "status",
          "type": "uint8"
        },
        {
          "internalType": "uint256",
          "name": "completionTime",
          "type": "uint256"
        },
        {
          "internalType": "string",
          "name": "ipfsProofHash",
          "type": "string"
        },
        {
          "internalType": "uint256",
          "name": "verificationCount",
          "type": "uint256"
        },
        {
          "internalType": "uint256",
          "name": "requiredVerifications",
          "type": "uint256"
        }
      ],
      "stateMutability": "view",
      "type": "function",
      "constant": true
    },
    {
      "inputs": [
        {
          "internalType": "address",
          "name": "_governmentOfficerAddress",
          "type": "address"
        },
        {
          "internalType": "address",
          "name": "_contractorAddress",
          "type": "address"
        },
        {
          "internalType": "string",
          "name": "_tenderId",
          "type": "string"
        },
        {
          "internalType": "uint256",
          "name": "_completionDate",
          "type": "uint256"
        },
        {
          "internalType": "string[]",
          "name": "_constraints",
          "type": "string[]"
        },
        {
          "internalType": "address[]",
          "name": "_assignedVerifiers",
          "type": "address[]"
        },
        {
          "internalType": "address",
          "name": "_stakeManagerAddress",
          "type": "address"
        }
      ],
      "name": "setContractBasic",
      "outputs": [],
      "stateMutability": "nonpayable",
      "type": "function"
    },
    {
      "inputs": [
        {
          "internalType": "string",
          "name": "_contractName",
          "type": "string"
        },
        {
          "internalType": "uint256",
          "name": "_finalQuotationAmount",
          "type": "uint256"
        },
        {
          "internalType": "string[]",
          "name": "_taskDescription",
          "type": "string[]"
        },
        {
          "internalType": "uint256[]",
          "name": "_deadlineForEachTask",
          "type": "uint256[]"
        },
        {
          "internalType": "uint256[]",
          "name": "_amountForEachTask",
          "type": "uint256[]"
        }
      ],
      "name": "setContractAdvanced",
      "outputs": [],
      "stateMutability": "nonpayable",
      "type": "function"
    },
    {
      "inputs": [],
      "name": "getContractBasic",
      "outputs": [
        {
          "internalType": "string",
          "name": "",
          "type": "string"
        },
        {
          "internalType": "address",
          "name": "",
          "type": "address"
        },
        {
          "internalType": "address",
          "name": "",
          "type": "address"
        },
        {
          "internalType": "string",
          "name": "",
          "type": "string"
        },
        {
          "internalType": "uint256",
          "name": "",
          "type": "uint256"
        },
        {
          "internalType": "uint256",
          "name": "",
          "type": "uint256"
        }
      ],
      "stateMutability": "view",
      "type": "function",
      "constant": true
    },
    {
      "inputs": [],
      "name": "getContractAdvanced",
      "outputs": [
        {
          "internalType": "string",
          "name": "",
          "type": "string"
        },
        {
          "internalType": "uint256",
          "name": "",
          "type": "uint256"
        },
        {
          "internalType": "string[]",
          "name": "",
          "type": "string[]"
        }
      ],
      "stateMutability": "view",
      "type": "function",
      "constant": true
    },
    {
      "inputs": [],
      "name": "getContractName",
      "outputs": [
        {
          "internalType": "string",
          "name": "",
          "type": "string"
        }
      ],
      "stateMutability": "view",
      "type": "function",
      "constant": true
    },
    {
      "inputs": [],
      "name": "getCompletionDate",
      "outputs": [
        {
          "internalType": "uint256",
          "name": "",
          "type": "uint256"
        }
      ],
      "stateMutability": "view",
      "type": "function",
      "constant": true
    },
    {
      "inputs": [],
      "name": "getNumberOfTasks",
      "outputs": [
        {
          "internalType": "uint256",
          "name": "",
          "type": "uint256"
        }
      ],
      "stateMutability": "view",
      "type": "function",
      "constant": true
    },
    {
      "inputs": [
        {
          "internalType": "uint256",
          "name": "index",
          "type": "uint256"
        }
      ],
      "name": "getTask",
      "outputs": [
        {
          "internalType": "string",
          "name": "",
          "type": "string"
        },
        {
          "internalType": "uint256",
          "name": "",
          "type": "uint256"
        },
        {
          "internalType": "uint256",
          "name": "",
          "type": "uint256"
        },
        {
          "internalType": "enum Contract.TaskStatus",
          "name": "",
          "type": "uint8"
        },
        {
          "internalType": "uint256",
          "name": "",
          "type": "uint256"
        },
        {
          "internalType": "string",
          "name": "",
          "type": "string"
        },
        {
          "internalType": "uint256",
          "name": "",
          "type": "uint256"
        },
        {
          "internalType": "uint256",
          "name": "",
          "type": "uint256"
        }
      ],
      "stateMutability": "view",
      "type": "function",
      "constant": true
    },
    {
      "inputs": [
        {
          "internalType": "uint256",
          "name": "_taskIndex",
          "type": "uint256"
        },
        {
          "internalType": "string",
          "name": "_ipfsProofHash",
          "type": "string"
        }
      ],
      "name": "taskCompletedByContractor",
      "outputs": [],
      "stateMutability": "nonpayable",
      "type": "function"
    },
    {
      "inputs": [
        {
          "internalType": "uint256",
          "name": "_taskIndex",
          "type": "uint256"
        },
        {
          "internalType": "bool",
          "name": "_isApproved",
          "type": "bool"
        },
        {
          "internalType": "string",
          "name": "_comments",
          "type": "string"
        },
        {
          "internalType": "string",
          "name": "_verifierProofHash",
          "type": "string"
        }
      ],
      "name": "verifyTask",
      "outputs": [
        {
          "internalType": "bool",
          "name": "",
          "type": "bool"
        }
      ],
      "stateMutability": "payable",
      "type": "function",
      "payable": true
    },
    {
      "inputs": [
        {
          "internalType": "uint256",
          "name": "_taskIndex",
          "type": "uint256"
        }
      ],
      "name": "withdrawForTask",
      "outputs": [
        {
          "internalType": "bool",
          "name": "",
          "type": "bool"
        }
      ],
      "stateMutability": "payable",
      "type": "function",
      "payable": true
    },
    {
      "inputs": [
        {
          "internalType": "uint256",
          "name": "_taskIndex",
          "type": "uint256"
        }
      ],
      "name": "getMilestoneVerifications",
      "outputs": [
        {
          "components": [
            {
              "internalType": "address",
              "name": "verifier",
              "type": "address"
            },
            {
              "internalType": "bool",
              "name": "isApproved",
              "type": "bool"
            },
            {
              "internalType": "string",
              "name": "comments",
              "type": "string"
            },
            {
              "internalType": "uint256",
              "name": "timestamp",
              "type": "uint256"
            },
            {
              "internalType": "uint256",
              "name": "stakeId",
              "type": "uint256"
            },
            {
              "internalType": "string",
              "name": "ipfsProofHash",
              "type": "string"
            }
          ],
          "internalType": "struct Contract.MilestoneVerification[]",
          "name": "",
          "type": "tuple[]"
        }
      ],
      "stateMutability": "view",
      "type": "function",
      "constant": true
    },
    {
      "inputs": [],
      "name": "getAssignedVerifiers",
      "outputs": [
        {
          "internalType": "address[]",
          "name": "",
          "type": "address[]"
        }
      ],
      "stateMutability": "view",
      "type": "function",
      "constant": true
    },
    {
      "inputs": [
        {
          "internalType": "address",
          "name": "_verifier",
          "type": "address"
        }
      ],
      "name": "addVerifier",
      "outputs": [],
      "stateMutability": "nonpayable",
      "type": "function"
    },
    {
      "inputs": [
        {
          "internalType": "address",
          "name": "_verifier",
          "type": "address"
        }
      ],
      "name": "removeVerifier",
      "outputs": [],
      "stateMutability": "nonpayable",
      "type": "function"
    },
    {
      "inputs": [
        {
          "internalType": "enum Contract.TaskStatus",
          "name": "_status",
          "type": "uint8"
        }
      ],
      "name": "getTasksByStatus",
      "outputs": [
        {
          "internalType": "uint256[]",
          "name": "",
          "type": "uint256[]"
        }
      ],
      "stateMutability": "view",
      "type": "function",
      "constant": true
    }
  ],
  "bytecode": "0x60808060405234610016576127a6908161001c8239f35b600080fdfe6080604052600436101561001257600080fd5b60e0600035811c908163041f624f14611f2f57816305b3441014611f1157816307896b1c14611e5b5781631579259b14611d425781631d65e77e14611c9957816329fc8c3c14611afd578163443d083c146117be57816344e446a4146116c857816345bf2d2c1461161957816346d722e7146115f0578163591b99dd146115445781637542ff951461151b57816375d0c0dc1461145f5781638a2cfcc4146102125781638d977672146112f55781639000b3d614611227578163a002b99014610cd957508063a0eee06f14610c90578063a783fd9214610c6d578063c2f218b914610b38578063c89ceadc1461097b578063ca2dfd0a146107fb578063dd4cb7b314610230578063e87870b614610212578063f21376af146101e9578063f5f5ba72146101b5578063f6397fd3146101975763ffe01f8e1461015357600080fd5b34610192576020366003190112610192576001600160a01b036101746123a7565b16600052600a602052602060ff604060002054166040519015158152f35b600080fd5b34610192576000366003190112610192576020600e54604051908152f35b34610192576000366003190112610192576101e56101d161201f565b60405191829160208352602083019061216f565b0390f35b34610192576000366003190112610192576001546040516001600160a01b039091168152602090f35b34610192576000366003190112610192576020600454604051908152f35b608036600319011261019257602435151560243503610192576044356001600160401b03811161019257610268903690600401612206565b6064356001600160401b03811161019257610287903690600401612206565b600e5460043510156101925761029e60043561236d565b509060ff60038301541660078110156107e557600281149081156107da575b50156107955760018060a01b036000541633149033600052600a60205260ff604060002054168290831561078d575b5015610748576000908215610669575b600435600052600d6020526040600020916040519561031a87611fe3565b338752602435151560208801526040870152426060870152608086015260a08501528054600160401b8110156105885761035991600182018155612351565b6106535783518154602086015160ff60a01b90151560a01b166001600160a01b039092166001600160a81b03199091161717815560408401518051906001600160401b038211610588576103b06001840154611fa9565b601f811161061e575b50602090601f83116001146105a957918060a0949260049460009261059e575b50508160011b916000199060031b1c19161760018201555b6060860151600282015560808601516003820155019301519283516001600160401b038111610588576104248254611fa9565b601f811161054b575b50602094601f82116001146104e5579481929394956000926104da575b50508160011b916000199060031b1c19161790555b6024356104c5575b60068201546007830154116104915750600301805460ff191660051790555b602060405160018152f35b6024351590816104bd575b506104a8575b50610486565b60038060ff19818401541617910155806104a2565b90508261049c565b600682016104d381546123d4565b9055610467565b01519050858061044a565b601f198216958360005260206000209160005b8881106105335750836001959697981061051a575b505050811b01905561045f565b015160001960f88460031b161c1916905585808061050d565b919260206001819286850151815501940192016104f8565b61057890836000526020600020601f840160051c8101916020851061057e575b601f0160051c01906123bd565b8561042d565b909150819061056b565b634e487b7160e01b600052604160045260246000fd5b0151905088806103d9565b906001840160005260206000209160005b601f198516811061060657509260a0949260019260049583601f198116106105ed575b505050811b0160018201556103f1565b015160001960f88460031b161c191690558880806105dd565b919260206001819286850151815501940192016105ba565b61064d90600185016000526020600020601f850160051c8101916020861061057e57601f0160051c01906123bd565b866103b9565b634e487b7160e01b600052600060045260246000fd5b905067016345785d8a0000341061070357600b5460405163cbf1d91f60e01b815260016004820152306024820152906020908290604490829034906001600160a01b03165af19081156106f7576000916106c5575b50906102fc565b90506020813d6020116106ef575b816106e060209383611ffe565b810103126101925751856106be565b3d91506106d3565b6040513d6000823e3d90fd5b60405162461bcd60e51b815260206004820152601f60248201527f496e73756666696369656e7420766572696669636174696f6e207374616b65006044820152606490fd5b60405162461bcd60e51b815260206004820152601860248201527f4e6f7420617574686f72697a656420746f2076657269667900000000000000006044820152606490fd5b9050856102ec565b60405162461bcd60e51b815260206004820152601f60248201527f5461736b206e6f7420726561647920666f7220766572696669636174696f6e006044820152606490fd5b6001915014846102bd565b634e487b7160e01b600052602160045260246000fd5b34610192576020366003190112610192576108146123a7565b6000546001600160a01b0391829161082f9083163314612692565b1680600052600a60205260ff604060002054161561093e576000818152600a60205260408120805460ff19169055905b6009918254928382101561093c5784938361087984611f6e565b979054600398891b1c161461089c575050610896919293506123d4565b9061085f565b9093925060001991828201918211610926576108cb846108be6108ef94611f6e565b905490891b1c1691611f6e565b90919082549060031b9160018060a01b039283811b93849216901b16911916179055565b8254801561091057019261090284611f6e565b81939154921b1b1916905555005b634e487b7160e01b600052603160045260246000fd5b634e487b7160e01b600052601160045260246000fd5b005b60405162461bcd60e51b815260206004820152601560248201527415995c9a599a595c881b9bdd08185cdcda59db9959605a1b6044820152606490fd5b346101925760208060031936011261019257600435600e54811015610afe57600052600d81526040600020908154916109b38361225c565b926109c16040519485611ffe565b8084528284018092600052836000206000915b838310610a8a5750505050604051918083019381845251809452604083019360408160051b85010192916000955b828710610a0f5785850386f35b909192938280610a7a600193603f198a82030186528851858060a01b03815116825283810151151584830152610a53604082015160c080604086015284019061216f565b91606080830151908201526080808301519082015260a0809201519181840391015261216f565b9601920196019592919092610a02565b600586600192604099989951610a9f81611fe3565b8554858060a01b038116825260ff60a091821c16151584830152610ac48688016120cb565b60408301526002870154606083015260038701546080830152610ae9600488016120cb565b908201528152019201920191909594956109d4565b60405162461bcd60e51b8152600481018390526012602482015271092dcecc2d8d2c840e8c2e6d640d2dcc8caf60731b6044820152606490fd5b346101925760003660031901126101925760018060a01b03806000541690600190815416906003549060045490610b6d61201f565b936040519160009060025490610b8282611fa9565b80865291818116908115610c465750600114610beb575b505091610bc49691610bb082610bdc950383611ffe565b60405197889760c0895260c089019061216f565b9260208801526040870152858203606087015261216f565b91608084015260a08301520390f35b6002600090815292507f405787fa12a823e0f2b7631cc41b3ba8828b3321ca811111fa75cd3aa3bb5ace5b828410610c2e57505050820160200181610bb0610b99565b80546020858801810191909152909301928101610c16565b60ff191660208088019190915292151560051b86019092019250839150610bb09050610b99565b3461019257600036600319011261019257602060ff600754166040519015158152f35b346101925760203660031901126101925760043560095481101561019257600960005260008051602061275183398151915201546040516001600160a01b039091168152602090f35b346101925736600319011261019257610cf06123a7565b6024356001600160a01b03811690819003610192576044356001600160401b03811161019257610d24903690600401612206565b906084356001600160401b03811161019257610d44903690600401612273565b60a435926001600160401b038411610192573660238501121561019257836004013592610d708461225c565b94610d7e6040519687611ffe565b84865260208601906024829660051b8201019036821161019257602401915b81831061120757505060c4359690506001600160a01b03871687036101925760018060a01b03166bffffffffffffffffffffffff60a01b60005416176000556bffffffffffffffffffffffff60a01b60015416176001558051906001600160401b038211610588578190610e12600254611fa9565b601f81116111b8575b50602090601f831160011461112e57600092611123575b50508160011b916000199060031b1c1916176002555b805190600160401b8211610588576005548260055580831061109d575b50602001906005600052600080516020612711833981519152916000905b828210610f885750505050426003556064356004558151906001600160401b03821161058857600160401b82116105885760095482600955808310610f64575b50600960005260005b828110610f395750505060005b8151811015610f1c57610f17906001600160a01b03610ef882856123e3565b5116600052600a6020526040600020600160ff198254161790556123d4565b610ed9565b600b80546001600160a01b0319166001600160a01b038516179055005b81516001600160a01b0316600080516020612751833981519152820155602090910190600101610ecc565b610f82908360008051602061275183398151915291820191016123bd565b84610ec3565b80518051906001600160401b03821161058857610fa58654611fa9565b601f811161106b575b50602090601f8311600114610ffb579282600194936020938695600092610ff0575b5050600019600383901b1c191690841b1787555b01940191019092610e83565b015190508c80610fd0565b908660005260206000209160005b601f1985168110611053575083602093600196938796938794601f1981161061103a575b505050811b018755610fe4565b015160001960f88460031b161c191690558c808061102d565b91926020600181928685015181550194019201611009565b61109790876000526020600020601f850160051c8101916020861061057e57601f0160051c01906123bd565b89610fae565b6005600052600080516020612711833981519152908382015b81830181106110c6575050610e65565b806110d360019254611fa9565b806110e0575b50016110b6565b601f811183146110f65750600081555b896110d9565b611114908260005283601f6020600020920160051c820191016123bd565b600060208120818355556110f0565b015190508680610e32565b925060026000527f405787fa12a823e0f2b7631cc41b3ba8828b3321ca811111fa75cd3aa3bb5ace906000935b601f198416851061119d576001945083601f19811610611184575b505050811b01600255610e48565b015160001960f88460031b161c19169055868080611176565b8181015183556020948501946001909301929091019061115b565b6112019060026000527f405787fa12a823e0f2b7631cc41b3ba8828b3321ca811111fa75cd3aa3bb5ace601f850160051c8101916020861061057e57601f0160051c01906123bd565b87610e1b565b82356001600160a01b038116810361019257815260209283019201610d9d565b34610192576020366003190112610192576112406123a7565b6000546001600160a01b03906112599082163314612692565b81169081600052600a60205260ff604060002054166112b05760095490600160401b821015610588576108cb8260016112959401600955611f6e565b6000908152600a60205260409020805460ff19166001179055005b60405162461bcd60e51b815260206004820152601960248201527f566572696669657220616c72656164792061737369676e6564000000000000006044820152606490fd5b3461019257602036600319011261019257600435600e5481101561019257600e60005260031b611346817fbb7b4a454dc3493923482f07822329ed19e8244eff582cc204f8554c3620c3fd016120cb565b6101e57fbb7b4a454dc3493923482f07822329ed19e8244eff582cc204f8554c3620c3fe830154927fbb7b4a454dc3493923482f07822329ed19e8244eff582cc204f8554c3620c3ff8101549060ff7fbb7b4a454dc3493923482f07822329ed19e8244eff582cc204f8554c3620c400820154167fbb7b4a454dc3493923482f07822329ed19e8244eff582cc204f8554c3620c4018201546114097fbb7b4a454dc3493923482f07822329ed19e8244eff582cc204f8554c3620c40284016120cb565b917fbb7b4a454dc3493923482f07822329ed19e8244eff582cc204f8554c3620c4047fbb7b4a454dc3493923482f07822329ed19e8244eff582cc204f8554c3620c40385015494015494604051988998896121af565b3461019257600036600319011261019257604051600060085461148181611fa9565b808452906001908181169081156114f457506001146114ab575b6101e5846101d181860382611ffe565b6008600090815292506000805160206127318339815191525b8284106114dc5750505081016020016101d18261149b565b805460208587018101919091529093019281016114c4565b60ff191660208087019190915292151560051b850190920192506101d1915083905061149b565b3461019257600036600319011261019257600b546040516001600160a01b039091168152602090f35b3461019257604036600319011261019257602435600435600052600d602052604060002080548210156101925760ff9161157d91612351565b506101e5815491611590600182016120cb565b6002820154916115d86115aa6004600384015493016120cb565b9260405197889760018060a01b038116895260a01c161515602088015260c0604088015260c087019061216f565b926060860152608085015283820360a085015261216f565b34610192576000366003190112610192576000546040516001600160a01b039091168152602090f35b6020366003190112610192576001546001600160a01b0316331460043561163f82612654565b600e54811015610192576116529061236d565b509015610192576003810180549160ff831660078110156107e5576005036101925760020154670de0b6b3a76400008160001904811182151516610926576000808086866006839688029260ff19161790558181156116bf575b3390f1156106f757602060405160018152f35b506108fc6116ac565b34610192576000366003190112610192576006546116e461201f565b6005546116f08161225c565b6116fd6040519182611ffe565b81815260209081810192836005600052600080516020612711833981519152846000925b8484106117a05750505050506117426040519460608652606086019061216f565b948285015283850360408501525180855281850191808260051b87010193926000965b8388106117725786860387f35b9091929394838061178f600193601f19868203018752895161216f565b970193019701969093929193611765565b60019182916117ae856120cb565b8152019201920191908590611721565b346101925760a09081600319360112610192576001600160401b03600435818111610192576117f1903690600401612206565b9060249182359360443583811161019257611810903690600401612273565b92606435818111610192576118299036906004016122f3565b96608435828111610192576118429036906004016122f3565b93805190838211611ae857819061185a600854611fa9565b601f8111611aab575b50602090601f8311600114611a3757600092611a2c575b50508160011b916000199060031b1c1916176008555b8660065560009460005b81518110156119de576118ad81836123e3565b51966118b9828c6123e3565b518b6118da6118d3856118cc818d6123e3565b51936123e3565b51426123f7565b916040519a6101008c018c81108a8211176119c9576040528b5260208b015260408a0152600060608a0152608089015260405160208101818110878211176119b4579061194b929160405260008152858a0152600060c08a01526002878a015261194483896123e3565b51906123f7565b9681600052600c602052611963816040600020612404565b600e805490600160401b8210156119b4576001820190556119839061236d565b61199f5761199a929161199591612404565b6123d4565b61189a565b89634e487b7160e01b60005260006004526000fd5b8a634e487b7160e01b60005260416004526000fd5b8d634e487b7160e01b60005260416004526000fd5b878988106119e857005b606490601d6040519162461bcd60e51b8352602060048401528201527f46696e616c2051756174696f6e20416d6f756e742045584345454453210000006044820152fd5b015190508a8061187a565b600860009081526000805160206127318339815191529350601f198516905b818110611a935750908460019594939210611a7a575b505050811b01600855611890565b015160001960f88460031b161c191690558a8080611a6c565b92936020600181928786015181550195019301611a56565b611ae2906008600052600080516020612731833981519152601f850160051c8101916020861061057e57601f0160051c01906123bd565b8b611863565b87634e487b7160e01b60005260416004526000fd5b34610192576040366003190112610192576001600160401b0360043560243582811161019257611b31903690600401612206565b9060019160018060a01b03835416331491611b4b83612654565b600e5481101561019257611b5e9061236d565b50911561019257600382019283549260ff841660078110156107e55761019257818101544211610192576005908260ff198096161786554260048201550191805195861161058857611bb08354611fa9565b601f8111611c67575b5060209081601f8811600114611c005750958092819260029798600094611bf5575b50501b916000199060031b1c19161790555b825416179055005b015192508880611bdb565b909691601f198316978560005282600020926000905b8a8210611c50575050836002989910611c37575b505050811b019055611bed565b015160001960f88460031b161c19169055868080611c2a565b808785968294968601518155019501930190611c16565b611c9390846000526020600020601f890160051c81019160208a1061057e57601f0160051c01906123bd565b86611bb9565b3461019257602036600319011261019257600435611cb68161236d565b50906101e56001611cc68361236d565b500154926002611cd58461236d565b5001549260ff6003611ce68361236d565b50015416936004611cf68361236d565b500154611d028361236d565b5095611d356005611d2e6007611d256006611d1c8a61236d565b5001549861236d565b500154976120cb565b98016120cb565b92604051988998896121af565b34610192576020806003193601126101925760043590600780831015928361019257600e93919354611d73816126de565b9260009560005b838110611e0657878787611d8d836126de565b9260005b818110611ddd575050506040519181839283018184528251809152816040850193019160005b828110611dc657505050500390f35b835185528695509381019392810192600101611db7565b80611ded611dfe928597956123e3565b51611df882866123e3565b526123d4565b939193611d91565b8260ff6003611e17849b999b61236d565b50015416906107e557828110156107e5578514611e40575b611e38906123d4565b969496611d7a565b94611e538187611df8611e38948c6123e3565b959050611e2f565b3461019257600036600319011261019257604051806009548083526020809301809160096000526000805160206127518339815191529060005b86828210611ef4578686611eab82880383611ffe565b604051928392818401908285525180915260408401929160005b828110611ed457505050500390f35b83516001600160a01b031685528695509381019392810192600101611ec5565b83546001600160a01b031685529093019260019283019201611e95565b34610192576000366003190112610192576020600354604051908152f35b3461019257602036600319011261019257600435600554811015610192576101d16101e5916005600052600080516020612711833981519152016120cb565b600954811015611f935760096000526000805160206127518339815191520190600090565b634e487b7160e01b600052603260045260246000fd5b90600182811c92168015611fd9575b6020831014611fc357565b634e487b7160e01b600052602260045260246000fd5b91607f1691611fb8565b60c081019081106001600160401b0382111761058857604052565b90601f801991011681019081106001600160401b0382111761058857604052565b604051906000826008549161203383611fa9565b808352926001908181169081156120a9575060011461205c575b5061205a92500383611ffe565b565b6008600090815291506000805160206127318339815191525b84831061208e575061205a93505081016020013861204d565b81935090816020925483858a01015201910190918592612075565b90506020925061205a94915060ff191682840152151560051b8201013861204d565b90604051918260008254926120df84611fa9565b90818452600194858116908160001461214c5750600114612109575b505061205a92500383611ffe565b9093915060005260209081600020936000915b81831061213457505061205a935082010138806120fb565b8554888401850152948501948794509183019161211c565b91505061205a94506020925060ff191682840152151560051b82010138806120fb565b919082519283825260005b84811061219b575050826000602080949584010152601f8019910116010190565b60208183018101518483018201520161217a565b94959192906121ca909998979961010080885287019061216f565b926020860152604085015260078310156107e55760e0946121fc936060860152608085015283820360a085015261216f565b9460c08201520152565b81601f82011215610192578035906001600160401b038211610588576040519261223a601f8401601f191660200185611ffe565b8284526020838301011161019257816000926020809301838601378301015290565b6001600160401b0381116105885760051b60200190565b9080601f830112156101925781359061228b8261225c565b926122996040519485611ffe565b828452602092838086019160051b8301019280841161019257848301915b8483106122c75750505050505090565b82356001600160401b0381116101925786916122e884848094890101612206565b8152019201916122b7565b81601f820112156101925780359161230a8361225c565b926123186040519485611ffe565b808452602092838086019260051b820101928311610192578301905b828210612342575050505090565b81358152908301908301612334565b8054821015611f93576000526005602060002091020190600090565b600e54811015611f9357600e60005260031b7fbb7b4a454dc3493923482f07822329ed19e8244eff582cc204f8554c3620c3fd0190600090565b600435906001600160a01b038216820361019257565b8181106123c8575050565b600081556001016123bd565b60001981146109265760010190565b8051821015611f935760209160051b010190565b9190820180921161092657565b90805180516001600160401b039081811161058857806124248654611fa9565b93601f94858111612624575b506020908583116001146125bf576000926125b4575b50508160011b916000199060031b1c19161784555b6020830151600190818601556040840151600286015560038501606085015160078110156107e55760ff8019835416911617905560808401516004860155600585019260a08501518051938411610588576124b68554611fa9565b82811161257a575b50602091841160011461250d57928060e09593819360079896600094612502575b50501b916000199060031b1c19161790555b60c081015160068501550151910155565b0151925038806124df565b90601f9392931983169185600052816000209260005b8181106125645750916007979593918560e09896941061254b575b505050811b0190556124f1565b015160001960f88460031b161c1916905538808061253e565b8284015185559386019360209384019301612523565b6125a5908660005260206000208480880160051c820192602089106125ab575b0160051c01906123bd565b386124be565b9250819261259a565b015190503880612446565b60008881528281209350601f198516905b81811061260c57509084600195949392106125f3575b505050811b01845561245b565b015160001960f88460031b161c191690553880806125e6565b929360206001819287860151815501950193016125d0565b61264e908860005260206000208780860160051c820192602087106125ab570160051c01906123bd565b38612430565b1561265b57565b60405162461bcd60e51b815260206004820152600f60248201526e2ba927a7239021a7a72a20a1aa27a960891b6044820152606490fd5b1561269957565b60405162461bcd60e51b815260206004820152601860248201527f57524f4e4720474f5645524e454d54204f4646494345522100000000000000006044820152606490fd5b906126e88261225c565b6126f56040519182611ffe565b8281528092612706601f199161225c565b019060203691013756fe036b6384b5eca791c62761152d0c79bb0604c104a5fb6f4eb0703f3154bb3db0f3f7a9fe364faab93b216da50a3214154f22a0a2b415b23a84c8169e8b636ee36e1540171b6c0c960b71a7020d9f60077f6af931a8bbf590da0223dacf75c7afa26469706673582212200afc3863ad1e3dd2527b9da1be3eae8da7e8f2dc3acf06afcd224248b07ab2aa64736f6c63430008100033",
  "immutableReferences": {},
  "source": "// SPDX-License-Identifier: GPL-3.0\npragma solidity ^0.8.0;\npragma experimental ABIEncoderV2;\n\nimport \"./StakeManager.sol\";\n\ncontract Contract {   \n    address public governmentOfficerAddress;\n    address public contractorAddress;\n    string tenderId;\n    uint public creationDate;\n    uint public completionDate;\n    string[] public constraints;\n    uint finalQuotationAmount;\n\n    bool public governmentOfficerVerified;\n    string public contractName;\n    \n    // Milestone verification system\n    address[] public assignedVerifiers;\n    mapping(address => bool) public isAssignedVerifier;\n    StakeManager public stakeManager;\n\n    mapping (uint=>Task) private taskIndexMapping;\n    mapping (uint=>MilestoneVerification[]) public milestoneVerifications;\n    \n    struct Task {\n        string description;\n        uint deadlineTime;\n        uint amount; \n        TaskStatus status;\n        uint completionTime;\n        string ipfsProofHash; // IPFS hash containing photos, geolocation, etc.\n        uint verificationCount;\n        uint requiredVerifications; // minimum verifications needed\n    }\n    \n    struct MilestoneVerification {\n        address verifier;\n        bool isApproved;\n        string comments;\n        uint timestamp;\n        uint256 stakeId; // stake put by verifier\n        string ipfsProofHash; // verifier's own proof if any\n    }\n\n    enum TaskStatus {\n        pending,\n        reportedComplete,\n        underVerification,\n        verificationRejected,\n        partiallyVerified,\n        complete,\n        contractorPaid\n    }\n\n    Task[] public tasks;\n\n    modifier onlyGovernmentOfficer {\n        require(msg.sender == governmentOfficerAddress, \"WRONG GOVERNEMT OFFICER!\");\n        _;\n    }\n\n    modifier onlyContractor {\n        require(msg.sender == contractorAddress, \"WRONG CONTACTOR\");\n        _;\n    }\n\n    // modifier onlySpecialOfficer {\n    //     if (msg.sender != specialOfficerAddress) {\n    //         revert();\n    //         _;\n    //     }\n    // }\n    \n    function setContractBasic (\n        address _governmentOfficerAddress, \n        address _contractorAddress, \n        string memory _tenderId,\n        uint _completionDate,\n        string[] memory _constraints,\n        address[] memory _assignedVerifiers,\n        address _stakeManagerAddress\n        ) public {\n        governmentOfficerAddress = _governmentOfficerAddress;\n        contractorAddress = _contractorAddress;\n        tenderId = _tenderId;\n        constraints = _constraints;\n        creationDate = block.timestamp;\n        completionDate = _completionDate;\n        \n        // Set assigned verifiers\n        assignedVerifiers = _assignedVerifiers;\n        for (uint i = 0; i < _assignedVerifiers.length; i++) {\n            isAssignedVerifier[_assignedVerifiers[i]] = true;\n        }\n        \n        stakeManager = StakeManager(_stakeManagerAddress);\n    }\n\n\n// string description;\n//         uint deadlineTime;\n//         uint amount; \n//         TaskStatus status;\n//         uint completionTime; \n    function setContractAdvanced (\n        string memory  _contractName, \n        uint _finalQuotationAmount,\n        string[] memory  _taskDescription, \n        uint[] memory  _deadlineForEachTask, \n        uint[] memory  _amountForEachTask) public {\n        contractName = _contractName;\n        finalQuotationAmount = _finalQuotationAmount;\n        uint totalAmount = 0;\n        \n        for (uint i=0; i < _taskDescription.length; i++) {\n            Task memory task =  Task({\n                description: _taskDescription[i], \n                deadlineTime: _deadlineForEachTask[i], \n                amount: _amountForEachTask[i], \n                status: TaskStatus.pending, \n                completionTime: block.timestamp + _deadlineForEachTask[i],\n                ipfsProofHash: \"\",\n                verificationCount: 0,\n                requiredVerifications: 2 // Default: need 2 verifications (1 third-party + 1 government)\n            });\n            totalAmount += _amountForEachTask[i];\n            \n            taskIndexMapping[i] = task;\n            tasks.push(task);\n        }\n        require(totalAmount >= _finalQuotationAmount, \"Final Quation Amount EXCEEDS!\");\n        //ContractDeployed();\n    }\n\n    function getContractBasic() public view returns (string memory , address, address, string memory,\n    uint, uint) {\n        return (contractName, governmentOfficerAddress, contractorAddress, tenderId,\n        creationDate, completionDate);\n    }\n\n    function getContractAdvanced() public view returns (string memory, uint, string[] memory) {\n        return (contractName, finalQuotationAmount, \n        constraints);\n    }\n\n    function getContractName() public view returns (string memory) {\n        return contractName;\n    }\n\n    function getCompletionDate() public view returns (uint) {\n        return completionDate;\n    }\n\n    function getNumberOfTasks() public view returns (uint) {\n        return tasks.length;\n    }\n\n    function getTask(uint256 index) public view returns (\n        string memory, uint, uint, TaskStatus, uint, string memory, uint, uint\n    ) {\n        return (\n            tasks[index].description, \n            tasks[index].deadlineTime, \n            tasks[index].amount,\n            tasks[index].status, \n            tasks[index].completionTime,\n            tasks[index].ipfsProofHash,\n            tasks[index].verificationCount,\n            tasks[index].requiredVerifications\n        );\n    }\n\n    function taskCompletedByContractor(uint _taskIndex, string memory _ipfsProofHash) public onlyContractor {\n        if (_taskIndex >= tasks.length) revert();\n        Task storage task = tasks[_taskIndex];\n\n        if (msg.sender != contractorAddress) revert();\n        if (task.status != TaskStatus.pending) revert();\n        if (block.timestamp > task.deadlineTime) revert();\n        \n        task.status = TaskStatus.reportedComplete;\n        task.completionTime = block.timestamp;\n        task.ipfsProofHash = _ipfsProofHash; // Store IPFS hash of proof (photos, geolocation, etc.)\n        \n        // Trigger verification process\n        task.status = TaskStatus.underVerification;\n    }\n\n    function verifyTask(\n        uint _taskIndex, \n        bool _isApproved, \n        string memory _comments,\n        string memory _verifierProofHash\n    ) public payable returns (bool) {\n        if (_taskIndex >= tasks.length) revert();\n        Task storage task = tasks[_taskIndex];\n\n        require(\n            task.status == TaskStatus.underVerification || task.status == TaskStatus.reportedComplete, \n            \"Task not ready for verification\"\n        );\n        \n        bool isGovOfficer = (msg.sender == governmentOfficerAddress);\n        bool verifierAssigned = isAssignedVerifier[msg.sender];\n        \n        require(isGovOfficer || verifierAssigned, \"Not authorized to verify\");\n        \n        // Third-party verifiers must stake\n        uint256 stakeId = 0;\n        if (!isGovOfficer) {\n            require(msg.value >= 0.1 ether, \"Insufficient verification stake\");\n            stakeId = stakeManager.createStake{value: msg.value}(\n                StakeManager.StakeType.MILESTONE_VERIFICATION, \n                address(this)\n            );\n        }\n        \n        // Record verification\n        milestoneVerifications[_taskIndex].push(MilestoneVerification({\n            verifier: msg.sender,\n            isApproved: _isApproved,\n            comments: _comments,\n            timestamp: block.timestamp,\n            stakeId: stakeId,\n            ipfsProofHash: _verifierProofHash\n        }));\n        \n        if (_isApproved) {\n            task.verificationCount++;\n        }\n        \n        // Check if enough verifications received\n        if (task.verificationCount >= task.requiredVerifications) {\n            task.status = TaskStatus.complete;\n        } else if (!_isApproved && isGovOfficer) {\n            // Government officer rejection overrides\n            task.status = TaskStatus.verificationRejected;\n        }\n        \n        return true;\n    }\n\n    function withdrawForTask(uint _taskIndex) public payable onlyContractor returns (bool) {\n        if (_taskIndex >= tasks.length) revert();\n        Task storage task = tasks[_taskIndex];\n\n        if (msg.sender != contractorAddress) revert();\n        if (task.status != TaskStatus.complete) revert();\n\n        uint amount = task.amount*(1 ether);\n        task.status = TaskStatus.contractorPaid;\n        payable(msg.sender).transfer(amount);\n        return true;\n    }\n    \n    function getMilestoneVerifications(uint _taskIndex) public view returns (MilestoneVerification[] memory) {\n        require(_taskIndex < tasks.length, \"Invalid task index\");\n        return milestoneVerifications[_taskIndex];\n    }\n    \n    function getAssignedVerifiers() public view returns (address[] memory) {\n        return assignedVerifiers;\n    }\n    \n    function addVerifier(address _verifier) public onlyGovernmentOfficer {\n        require(!isAssignedVerifier[_verifier], \"Verifier already assigned\");\n        assignedVerifiers.push(_verifier);\n        isAssignedVerifier[_verifier] = true;\n    }\n    \n    function removeVerifier(address _verifier) public onlyGovernmentOfficer {\n        require(isAssignedVerifier[_verifier], \"Verifier not assigned\");\n        isAssignedVerifier[_verifier] = false;\n        \n        // Remove from array\n        for (uint i = 0; i < assignedVerifiers.length; i++) {\n            if (assignedVerifiers[i] == _verifier) {\n                assignedVerifiers[i] = assignedVerifiers[assignedVerifiers.length - 1];\n                assignedVerifiers.pop();\n                break;\n            }\n        }\n    }\n    \n    function getTasksByStatus(TaskStatus _status) public view returns (uint[] memory) {\n        uint[] memory taskIndices = new uint[](tasks.length);\n        uint count = 0;\n        \n        for (uint i = 0; i < tasks.length; i++) {\n            if (tasks[i].status == _status) {\n                taskIndices[count] = i;\n                count++;\n            }\n        }\n        \n        // Resize array to actual count\n        uint[] memory result = new uint[](count);\n        for (uint i = 0; i < count; i++) {\n            result[i] = taskIndices[i];\n        }\n        \n        return result;\n    }\n}\n",
  "sourcePath": "/home/aniketdatar/Desktop/Other/tendersystem-blockchain/contracts/Contract.sol",
  "compiler": {
    "name": "solc",
    "version": "0.8.16+commit.07a7930e.Emscripten.clang"
  },
  "schemaVersion": "3.4.9",
  "updatedAt": "2025-08-19T10:17:23.123Z",
  "networkType": "ethereum",
  "devdoc": {
    "kind": "dev",
    "methods": {},
    "version": 1
  },
  "userdoc": {
    "kind": "user",
    "methods": {},
    "version": 1
  }
}