{
  "contractName": "ContractRepo",
  "abi": [
    {
      "inputs": [
        {
          "internalType": "uint256",
          "name": "",
          "type": "uint256"
        }
      ],
      "name": "completedContracts",
      "outputs": [
        {
          "internalType": "address",
          "name": "",
          "type": "address"
        }
      ],
      "stateMutability": "view",
      "type": "function",
      "constant": true
    },
    {
      "inputs": [
        {
          "internalType": "uint256",
          "name": "",
          "type": "uint256"
        }
      ],
      "name": "contractAddress",
      "outputs": [
        {
          "internalType": "address",
          "name": "",
          "type": "address"
        }
      ],
      "stateMutability": "view",
      "type": "function",
      "constant": true
    },
    {
      "inputs": [
        {
          "internalType": "address",
          "name": "",
          "type": "address"
        }
      ],
      "name": "contractMapping",
      "outputs": [
        {
          "internalType": "enum ContractRepo.ContractStatus",
          "name": "",
          "type": "uint8"
        }
      ],
      "stateMutability": "view",
      "type": "function",
      "constant": true
    },
    {
      "inputs": [
        {
          "internalType": "address",
          "name": "contractToAppend",
          "type": "address"
        }
      ],
      "name": "addToContracts",
      "outputs": [
        {
          "internalType": "bool",
          "name": "",
          "type": "bool"
        }
      ],
      "stateMutability": "nonpayable",
      "type": "function"
    },
    {
      "inputs": [],
      "name": "getAllContracts",
      "outputs": [
        {
          "internalType": "address[]",
          "name": "",
          "type": "address[]"
        }
      ],
      "stateMutability": "view",
      "type": "function",
      "constant": true
    },
    {
      "inputs": [],
      "name": "getContractCount",
      "outputs": [
        {
          "internalType": "uint256",
          "name": "",
          "type": "uint256"
        }
      ],
      "stateMutability": "view",
      "type": "function",
      "constant": true
    },
    {
      "inputs": [
        {
          "internalType": "uint256",
          "name": "index",
          "type": "uint256"
        }
      ],
      "name": "getOngoingContracts",
      "outputs": [
        {
          "internalType": "address",
          "name": "",
          "type": "address"
        }
      ],
      "stateMutability": "view",
      "type": "function",
      "constant": true
    },
    {
      "inputs": [],
      "name": "getCompletedContracts",
      "outputs": [
        {
          "internalType": "address[]",
          "name": "",
          "type": "address[]"
        }
      ],
      "stateMutability": "view",
      "type": "function",
      "constant": true
    },
    {
      "inputs": [
        {
          "internalType": "address",
          "name": "_contractAddress",
          "type": "address"
        }
      ],
      "name": "updateContractStatusToComplete",
      "outputs": [],
      "stateMutability": "nonpayable",
      "type": "function"
    }
  ],
  "bytecode": "0x608060405234801561001057600080fd5b506104f0806100206000396000f3fe608060405234801561001057600080fd5b50600436106100935760003560e01c80639399869d116100665780639399869d146100f8578063a475c3e714610109578063cd1074441461011c578063ea86abc31461014c578063fd17c99e146101cd57600080fd5b80630d0eec091461009857806313c01368146100c857806318d3ce96146100db5780638db7a68f146100f0575b600080fd5b6100ab6100a63660046103d0565b610240565b6040516001600160a01b0390911681526020015b60405180910390f35b6100ab6100d63660046103d0565b6102d4565b6100e36102fe565b6040516100bf91906103e9565b6100e3610360565b6000546040519081526020016100bf565b6100ab6101173660046103d0565b6103c0565b61013f61012a366004610436565b60026020526000908152604090205460ff1681565b6040516100bf919061047c565b6101bd61015a366004610436565b60008054600180820183557f290decd9548b62a8d60345a988386fc84ba6bc95484008f6362f93160ef3e56390910180546001600160a01b0319166001600160a01b03949094169384179055918152600260205260409020805460ff1916905590565b60405190151581526020016100bf565b61023e6101db366004610436565b6001600160a01b03166000818152600260205260408120805460ff191660019081179091558054808201825591527fb10e2d527612073b26eecdfd717e6a320cf44b4afac2b0732d9fcbe2b7fa0cf60180546001600160a01b0319169091179055565b005b6000805482111561025057600080fd5b600060026000808581548110610268576102686104a4565b60009182526020808320909101546001600160a01b0316835282019290925260400190205460ff1660018111156102a1576102a1610466565b0361009357600082815481106102b9576102b96104a4565b6000918252602090912001546001600160a01b031692915050565b600081815481106102e457600080fd5b6000918252602090912001546001600160a01b0316905081565b6060600080548060200260200160405190810160405280929190818152602001828054801561035657602002820191906000526020600020905b81546001600160a01b03168152600190910190602001808311610338575b5050505050905090565b60606001805480602002602001604051908101604052809291908181526020018280548015610356576020028201919060005260206000209081546001600160a01b03168152600190910190602001808311610338575050505050905090565b600181815481106102e457600080fd5b6000602082840312156103e257600080fd5b5035919050565b6020808252825182820181905260009190848201906040850190845b8181101561042a5783516001600160a01b031683529284019291840191600101610405565b50909695505050505050565b60006020828403121561044857600080fd5b81356001600160a01b038116811461045f57600080fd5b9392505050565b634e487b7160e01b600052602160045260246000fd5b602081016002831061049e57634e487b7160e01b600052602160045260246000fd5b91905290565b634e487b7160e01b600052603260045260246000fdfea26469706673582212204c8c6f34f95e51e85271544e94d734a0af090a6658dcf1d6b03e8987dde9c6dd64736f6c63430008100033",
  "immutableReferences": {},
  "source": "// SPDX-License-Identifier: GPL-3.0\npragma solidity ^0.8.0;\npragma experimental ABIEncoderV2;\n\n\ncontract ContractRepo {\n    address[] public contractAddress;\n    address[] public completedContracts; //used for quick access to Completed Contracts\n\n    enum ContractStatus {\n        onGoing,\n        complete\n    }\n\n    mapping (address=>ContractStatus) public contractMapping;\n\n\n    function addToContracts(address contractToAppend) public returns (bool) {\n        contractAddress.push(contractToAppend);\n        contractMapping[contractToAppend] = ContractStatus.onGoing;\n        return true;\n    }\n\n    function getAllContracts() public view returns (address[] memory) {\n        return contractAddress;\n    }\n\n    function getContractCount() public view returns (uint256) {\n        return contractAddress.length;\n    }\n\n    function getOngoingContracts(uint256 index) public view returns (address) {\n        //loop at web3\n        if (index > contractAddress.length) revert();\n        if (contractMapping[contractAddress[index]] == ContractStatus.onGoing) {\n            return contractAddress[index]; \n        }\n        revert();\n    }\n\n    function getCompletedContracts() public view returns (address[] memory) {\n        return completedContracts;\n    }\n\n    function updateContractStatusToComplete(address _contractAddress) public {\n        contractMapping[_contractAddress] = ContractStatus.complete;\n        completedContracts.push(_contractAddress);\n    }\n\n}",
  "sourcePath": "/home/aniketdatar/Desktop/Other/tendersystem-blockchain/contracts/ContractRepo.sol",
  "compiler": {
    "name": "solc",
    "version": "0.8.16+commit.07a7930e.Emscripten.clang"
  },
  "schemaVersion": "3.4.9",
  "updatedAt": "2025-08-19T10:17:23.118Z",
  "networkType": "ethereum",
  "devdoc": {
    "kind": "dev",
    "methods": {},
    "version": 1
  },
  "userdoc": {
    "kind": "user",
    "methods": {},
    "version": 1
  }
}