{
  "contractName": "ContractorRepo",
  "abi": [
    {
      "inputs": [
        {
          "internalType": "address",
          "name": "",
          "type": "address"
        }
      ],
      "name": "walletAddressToNode",
      "outputs": [
        {
          "internalType": "address",
          "name": "",
          "type": "address"
        }
      ],
      "stateMutability": "view",
      "type": "function",
      "constant": true
    },
    {
      "inputs": [
        {
          "internalType": "address",
          "name": "walletAddress",
          "type": "address"
        },
        {
          "internalType": "address",
          "name": "nodeAddress",
          "type": "address"
        }
      ],
      "name": "newContractor",
      "outputs": [
        {
          "internalType": "bool",
          "name": "",
          "type": "bool"
        }
      ],
      "stateMutability": "nonpayable",
      "type": "function"
    },
    {
      "inputs": [
        {
          "internalType": "address",
          "name": "walletAddress",
          "type": "address"
        },
        {
          "internalType": "address",
          "name": "nodeAddress",
          "type": "address"
        }
      ],
      "name": "mapWalletAddressToNode",
      "outputs": [],
      "stateMutability": "nonpayable",
      "type": "function"
    },
    {
      "inputs": [
        {
          "internalType": "address",
          "name": "contractorAddress",
          "type": "address"
        },
        {
          "internalType": "address",
          "name": "verifierAddress",
          "type": "address"
        }
      ],
      "name": "verifyContractor",
      "outputs": [],
      "stateMutability": "nonpayable",
      "type": "function"
    },
    {
      "inputs": [],
      "name": "getVerifiedContractorsCount",
      "outputs": [
        {
          "internalType": "uint256",
          "name": "",
          "type": "uint256"
        }
      ],
      "stateMutability": "view",
      "type": "function",
      "constant": true
    },
    {
      "inputs": [],
      "name": "getVerifiedContractors",
      "outputs": [
        {
          "internalType": "address[]",
          "name": "",
          "type": "address[]"
        }
      ],
      "stateMutability": "view",
      "type": "function",
      "constant": true
    },
    {
      "inputs": [
        {
          "internalType": "address",
          "name": "contractorAddress",
          "type": "address"
        }
      ],
      "name": "getVerifier",
      "outputs": [
        {
          "internalType": "address",
          "name": "",
          "type": "address"
        }
      ],
      "stateMutability": "view",
      "type": "function",
      "constant": true
    },
    {
      "inputs": [],
      "name": "getContractors",
      "outputs": [
        {
          "internalType": "address[]",
          "name": "",
          "type": "address[]"
        }
      ],
      "stateMutability": "view",
      "type": "function",
      "constant": true
    },
    {
      "inputs": [],
      "name": "getContractorsCount",
      "outputs": [
        {
          "internalType": "uint256",
          "name": "",
          "type": "uint256"
        }
      ],
      "stateMutability": "view",
      "type": "function",
      "constant": true
    },
    {
      "inputs": [
        {
          "internalType": "address",
          "name": "contractorAddress",
          "type": "address"
        }
      ],
      "name": "getVerificationStatus",
      "outputs": [
        {
          "internalType": "bool",
          "name": "",
          "type": "bool"
        }
      ],
      "stateMutability": "view",
      "type": "function",
      "constant": true
    },
    {
      "inputs": [
        {
          "internalType": "uint256",
          "name": "index",
          "type": "uint256"
        }
      ],
      "name": "getUnverifiedContractors",
      "outputs": [
        {
          "internalType": "address",
          "name": "",
          "type": "address"
        }
      ],
      "stateMutability": "view",
      "type": "function",
      "constant": true
    }
  ],
  "bytecode": "0x608060405234801561001057600080fd5b50610557806100206000396000f3fe608060405234801561001057600080fd5b50600436106100a95760003560e01c80636c542bc7116100715780636c542bc7146101705780637844adae146101f8578063cac9986d1461020b578063d44506611461021d578063e544a7fd14610225578063f50c75d51461024e57600080fd5b8063059ce95d146100ae57806310163b67146100f757806323ff85f91461010c578063492e4475146101215780636103681a14610144575b600080fd5b6100da6100bc366004610450565b6001600160a01b039081166000908152600360205260409020541690565b6040516001600160a01b0390911681526020015b60405180910390f35b6100ff610256565b6040516100ee9190610472565b61011f61011a3660046104bf565b6102b8565b005b61013461012f3660046104bf565b6102e6565b60405190151581526020016100ee565b610134610152366004610450565b6001600160a01b031660009081526002602052604090205460ff1690565b61011f61017e3660046104bf565b6001805480820182557fb10e2d527612073b26eecdfd717e6a320cf44b4afac2b0732d9fcbe2b7fa0cf60180546001600160a01b039485166001600160a01b031991821681179092556000918252600260209081526040808420805460ff1916909517909455600390529190208054929093169116179055565b6100da6102063660046104f2565b610354565b6000545b6040519081526020016100ee565b6100ff6103d4565b6100da610233366004610450565b6004602052600090815260409020546001600160a01b031681565b60015461020f565b606060008054806020026020016040519081016040528092919081815260200182805480156102ae57602002820191906000526020600020905b81546001600160a01b03168152600190910190602001808311610290575b5050505050905090565b6001600160a01b03918216600090815260046020526040902080546001600160a01b03191691909216179055565b600080546001810182557f290decd9548b62a8d60345a988386fc84ba6bc95484008f6362f93160ef3e5630180546001600160a01b0319166001600160a01b0384169081179091558152600260205260408120805460ff1916905561034b83836102b8565b50600192915050565b6000805482111561036457600080fd5b6002600080848154811061037a5761037a61050b565b60009182526020808320909101546001600160a01b0316835282019290925260400190205460ff166100a957600082815481106103b9576103b961050b565b6000918252602090912001546001600160a01b031692915050565b606060018054806020026020016040519081016040528092919081815260200182805480156102ae576020028201919060005260206000209081546001600160a01b03168152600190910190602001808311610290575050505050905090565b80356001600160a01b038116811461044b57600080fd5b919050565b60006020828403121561046257600080fd5b61046b82610434565b9392505050565b6020808252825182820181905260009190848201906040850190845b818110156104b35783516001600160a01b03168352928401929184019160010161048e565b50909695505050505050565b600080604083850312156104d257600080fd5b6104db83610434565b91506104e960208401610434565b90509250929050565b60006020828403121561050457600080fd5b5035919050565b634e487b7160e01b600052603260045260246000fdfea2646970667358221220308dd9fc74073bb25f67295547699ce7ade5cd00c46a476873db9e13d625338064736f6c63430008100033",
  "immutableReferences": {},
  "source": "// SPDX-License-Identifier: GPL-3.0\npragma solidity ^0.8.0;\npragma experimental ABIEncoderV2;\n\n\ncontract ContractorRepo {\n    address[] contractors; //all contractors verified + unverified\n    address[] verifiedContractors;\n    //address[] unverifiedContractors;\n    \n    mapping (address=>bool) verifiedStatus; //false => unverified, true => verified\n    mapping (address=>address) contratorToVerifier;\n    mapping (address=>address) public walletAddressToNode;\n\n    function newContractor(address walletAddress, address nodeAddress) public returns (bool) {\n        contractors.push(nodeAddress);\n        verifiedStatus[nodeAddress] = false;\n        mapWalletAddressToNode(walletAddress,nodeAddress);\n        return true;\n    }\n\n    function mapWalletAddressToNode(address walletAddress, address nodeAddress) public {\n        walletAddressToNode[walletAddress] = nodeAddress;\n    }\n\n    function verifyContractor(address contractorAddress, address verifierAddress) public {\n        verifiedContractors.push(contractorAddress);\n        verifiedStatus[contractorAddress] = true;\n        contratorToVerifier[contractorAddress] = verifierAddress;\n    }\n\n    function getVerifiedContractorsCount() public view returns (uint256) {\n        return verifiedContractors.length;\n    }\n        \n    function getVerifiedContractors() public view returns (address[] memory) {\n        return verifiedContractors;\n    }\n\n    function getVerifier(address contractorAddress) public view returns (address) {\n        return contratorToVerifier[contractorAddress];\n    }\n\n    function getContractors() public view returns (address[] memory) {\n        return contractors;\n    }\n\n    function getContractorsCount() public view returns (uint256) {\n        return contractors.length;\n    }\n\n    function getVerificationStatus(address contractorAddress) public view returns (bool) {\n        return verifiedStatus[contractorAddress];\n    }\n    \n    function getUnverifiedContractors(uint256 index) public view returns (address) {\n        //loop at web3\n        if (index > contractors.length) revert();\n        if (!verifiedStatus[contractors[index]]) {\n            return contractors[index]; \n        }\n        revert();\n    }\n}",
  "sourcePath": "/home/aniketdatar/Desktop/Other/tendersystem-blockchain/contracts/ContractorRepo.sol",
  "compiler": {
    "name": "solc",
    "version": "0.8.16+commit.07a7930e.Emscripten.clang"
  },
  "schemaVersion": "3.4.9",
  "updatedAt": "2025-08-19T10:17:23.120Z",
  "networkType": "ethereum",
  "devdoc": {
    "kind": "dev",
    "methods": {},
    "version": 1
  },
  "userdoc": {
    "kind": "user",
    "methods": {},
    "version": 1
  }
}