{
  "contractName": "FactoryContractor",
  "abi": [
    {
      "inputs": [
        {
          "internalType": "uint256",
          "name": "",
          "type": "uint256"
        }
      ],
      "name": "allContractors",
      "outputs": [
        {
          "internalType": "address",
          "name": "",
          "type": "address"
        }
      ],
      "stateMutability": "view",
      "type": "function",
      "constant": true
    },
    {
      "inputs": [
        {
          "internalType": "address",
          "name": "_walletAddress",
          "type": "address"
        },
        {
          "internalType": "string",
          "name": "_email",
          "type": "string"
        },
        {
          "internalType": "string",
          "name": "_name",
          "type": "string"
        },
        {
          "internalType": "string",
          "name": "_phoneNumber",
          "type": "string"
        },
        {
          "internalType": "string",
          "name": "_panNumber",
          "type": "string"
        },
        {
          "internalType": "string",
          "name": "_gstNumber",
          "type": "string"
        },
        {
          "internalType": "string[]",
          "name": "_workCategories",
          "type": "string[]"
        },
        {
          "internalType": "uint256",
          "name": "_netWorth",
          "type": "uint256"
        },
        {
          "internalType": "string[]",
          "name": "_previousProjects",
          "type": "string[]"
        },
        {
          "internalType": "uint256[]",
          "name": "_previousProjectValues",
          "type": "uint256[]"
        },
        {
          "internalType": "address",
          "name": "_stakeManagerAddress",
          "type": "address"
        }
      ],
      "name": "registerNewContractor",
      "outputs": [
        {
          "internalType": "bool",
          "name": "",
          "type": "bool"
        }
      ],
      "stateMutability": "nonpayable",
      "type": "function"
    }
  ],
  "bytecode": "0x6080806040523461001657612767908161001c8239f35b600080fdfe6080604052600436101561001257600080fd5b6000803560e01c8063a2443e9a146104415763edc85fb41461003357600080fd5b3461043e5761016036600319011261043e57600435906001600160a01b038216820361043e576024356001600160401b03811161043a57610078903690600401610505565b6044356001600160401b03811161043657610097903690600401610505565b6064356001600160401b038111610432576100b6903690600401610505565b6084356001600160401b03811161042e576100d5903690600401610505565b9060a4356001600160401b03811161042a576100f5903690600401610505565b60c4356001600160401b03811161042657610114903690600401610577565b610104356001600160401b03811161042257610134903690600401610577565b906001600160401b0361012435116104225736602361012435011215610422576101646101243560040135610560565b9261017260405194856104ce565b61012435600401358452602084019586366024610124356004013560051b6101243501011161040e5760246101243501905b6024610124356004013560051b610124350101821061041257505061014435956001600160a01b038716870361040e57604051806120a48101106001600160401b036120a4830111176103fa576120a461068e8239806120a4810103908cf09889156103ef576001600160a01b038a163b156103eb57918b99979593918d999795936040519c8d9b635deea47160e11b8d52600160a01b600190031660048d015260248c0161016090526101648c0161025c916105f7565b8b81036003190160448d0152610271916105f7565b8a81036003190160648c0152610286916105f7565b8981036003190160848b015261029b916105f7565b8881036003190160a48a01526102b0916105f7565b8781036003190160c48901526102c591610637565b60e43560e4880152600319878203016101048801526102e391610637565b906003198683030161012487015251908181526020019290865b8181106103cf575050506001600160a01b03908116610144850152908390039183918591165af180156103c457610399575b5090815468010000000000000000811015610385576103549192600182019055610484565b819291549060031b9160018060a01b03831b92839160018060a01b0316901b16911916179055602060405160018152f35b634e487b7160e01b83526041600452602483fd5b6001600160401b0381116103b0576040523861032f565b634e487b7160e01b82526041600452602482fd5b6040513d84823e3d90fd5b82518552899750889650602094850194909201916001016102fd565b8b80fd5b6040513d8d823e3d90fd5b634e487b7160e01b8c52604160045260248cfd5b8a80fd5b81358152602091820191016101a4565b8780fd5b8680fd5b8580fd5b8480fd5b8380fd5b8280fd5b5080fd5b80fd5b503461043e57602036600319011261043e5760043590805482101561043e57602061046b83610484565b905460405160039290921b1c6001600160a01b03168152f35b9060009182548110156104ba578280527f290decd9548b62a8d60345a988386fc84ba6bc95484008f6362f93160ef3e563019190565b634e487b7160e01b83526032600452602483fd5b90601f801991011681019081106001600160401b038211176104ef57604052565b634e487b7160e01b600052604160045260246000fd5b81601f8201121561055b578035906001600160401b0382116104ef5760405192610539601f8401601f1916602001856104ce565b8284526020838301011161055b57816000926020809301838601378301015290565b600080fd5b6001600160401b0381116104ef5760051b60200190565b9080601f8301121561055b5781359061058f82610560565b9261059d60405194856104ce565b828452602092838086019160051b8301019280841161055b57848301915b8483106105cb5750505050505090565b82356001600160401b03811161055b5786916105ec84848094890101610505565b8152019201916105bb565b919082519283825260005b848110610623575050826000602080949584010152601f8019910116010190565b602081830181015184830182015201610602565b80518083526020600582901b8401810193928101926000908201805b8483106106635750505050505090565b909192939495848061067d83856001950387528a516105f7565b980193019301919493929061065356fe6080806040523461001657612088908161001c8239f35b600080fdfe608080604052600436101561001357600080fd5b60003560e01c9081630b8f500c14611b6c575080630e145fa614611ab05780630e27324d14611a6a578063125716d6146118245780631ad86bf214611a4a57806327340f84146119c65780632e795a83146118cd57806335b148c31461189d5780633d4b8f6e14611863578063534f9c531461182457806356810be71461164c5780636aacdd73146116b45780637542ff951461168b578063791d50891461164c57806385c3d08d146116235780638648461b146114c0578063873321f7146113c6578063a9c5280914611387578063b3e2a08d14611348578063b4ab0bbd1461132a578063bbdd48e214610697578063c007175f1461065d578063c09f22251461050c578063c0de1f3e146104e6578063c29ac33e14610493578063c3a2a93a14610403578063cd58335c146103b6578063e012463314610379578063e4940157146102325763ea86abc31461016957600080fd5b3461022d57602036600319011261022d57610182611cc8565b601154600160401b811015610217576001810180601155811015610201577f31ecc21a745e3968a04e9570e4425bc18fa8019c68028196b546d1669c200c68019060018060a01b031690816001600160601b0360a01b82541617905560005260126020526040600020600160ff19825416179055602060405160018152f35b634e487b7160e01b600052603260045260246000fd5b634e487b7160e01b600052604160045260246000fd5b600080fd5b3461022d5760208060031936011261022d576001600160a01b03610254611cc8565b1680600052600d8252604060002054156103345760ff600b5460a01c16156102e557600f54600160401b811015610217576001810180600f55811015610201577f8d1108e10bcb7c27dddfc02ed9d693a074039d026cf4ea4240b40f7d581ac80201816001600160601b0360a01b82541617905560005260108152604060002060ff19815416905560405160018152f35b60405162461bcd60e51b815260048101839052602160248201527f4b5943206d75737420626520617070726f76656420746f20706c6163652062696044820152601960fa1b6064820152608490fd5b60405162461bcd60e51b815260048101839052601f60248201527f4d757374206465706f73697420454d44206265666f72652062696464696e67006044820152606490fd5b3461022d57602036600319011261022d576001600160a01b0361039a611cc8565b166000908152601060205260409020805460ff19166001179055005b3461022d57600036600319011261022d576103f16103d2611f13565b6103ff6103dd611f77565b604051938493604085526040850190611d22565b908382036020850152611e64565b0390f35b3461022d57600036600319011261022d57604051806011549182815260208091019260116000527f31ecc21a745e3968a04e9570e4425bc18fa8019c68028196b546d1669c200c68916000905b828210610473576103ff8561046781890382611bc1565b60405191829182611cde565b83546001600160a01b031686529485019460019384019390910190610450565b3461022d57602036600319011261022d5760043560075481101561022d576104d26103ff91600760005260008051602061201383398151915201611be2565b604051918291602083526020830190611c88565b3461022d57600036600319011261022d57602060ff600b5460a01c166040519015158152f35b3461022d57600036600319011261022d57600854600b5460405190600092600180549061053882611b87565b8086529181811690811561063557506001146105d9575b50506105c960ff916105668561059a970386611bc1565b6105bb610571611eaf565b9161057a611f13565b6105a8610585611f77565b946040519a8b9a60c08c5260c08c0190611c88565b908a820360208c0152611d22565b9160408901528782036060890152611d22565b908582036080870152611e64565b9160a01c16151560a08301520390f35b600081815295507fb10e2d527612073b26eecdfd717e6a320cf44b4afac2b0732d9fcbe2b7fa0cf65b82871061061d57505050928201602001926105c960ff61054f565b80546020888801810191909152909601958101610602565b60ff191660208781019190915292151560051b860190920195506105c9915060ff905061054f565b3461022d57602036600319011261022d576001600160a01b0361067e611cc8565b166000908152601260205260409020805460ff19169055005b3461022d5761016036600319011261022d576106b1611cc8565b6024356001600160401b03811161022d576106d0903690600401611d77565b6044356001600160401b03811161022d576106ef903690600401611d77565b906064356001600160401b03811161022d5761070f903690600401611d77565b6084356001600160401b03811161022d5761072e903690600401611d77565b60a4356001600160401b03811161022d5761074d903690600401611d77565b9060c4356001600160401b03811161022d5761076d903690600401611de4565b92610104356001600160401b03811161022d5761078e903690600401611de4565b9461012435966001600160401b03881161022d573660238901121561022d578760040135986107bc8a611dcd565b986107ca6040519a8b611bc1565b8a8a5260208a016024819c60051b8301019136831161022d57602401905b82821061131a57505050610144356001600160a01b038116900361022d5787518951036112ca5760018060a01b03166001600160601b0360a01b60005416176000558051906001600160401b038211610217578190610848600154611b87565b601f811161127b575b50602090601f83116001146111f1576000926111e6575b50508160011b916000199060031b1c1916176001555b8051906001600160401b03821161021757819061089c600254611b87565b601f8111611197575b50602090601f831160011461110d57600092611102575b50508160011b916000199060031b1c1916176002555b8051906001600160401b0382116102175781906108f0600354611b87565b601f81116110b3575b50602090601f83116001146110295760009261101e575b50508160011b916000199060031b1c1916176003555b8051906001600160401b038211610217578190610944600454611b87565b601f8111610fcf575b50602090601f8311600114610f4557600092610f3a575b50508160011b916000199060031b1c1916176004555b8051906001600160401b038211610217578190610998600554611b87565b601f8111610eeb575b50602090601f8311600114610e6157600092610e56575b50508160011b916000199060031b1c1916176005555b805190600160401b82116102175760075482600755808310610dd0575b50602001906007600052600080516020612013833981519152916000905b828210610cbb575050505060e435600855805190600160401b82116102175760095482600955808310610c35575b50602001906009600052600080516020612033833981519152916000905b828210610b15578451866001600160401b03821161021757600160401b821161021757600a5482600a55808310610af1575b5090600a60005260005b818110610acf576006805460ff19169055600b805460ff60a01b19169055600e80546001600160a01b031916610144356001600160a01b0316179055005b6001906020845194019381600080516020611ff3833981519152015501610a91565b610b0f9083600080516020611ff38339815191529182019101611e98565b82610a87565b80518051906001600160401b03821161021757610b328654611b87565b601f8111610bf8575b50602090601f8311600114610b88579282600194936020938695600092610b7d575b5050600019600383901b1c191690841b1787555b01940191019092610a55565b015190508b80610b5d565b908660005260206000209160005b601f1985168110610be0575083602093600196938796938794601f19811610610bc7575b505050811b018755610b71565b015160001960f88460031b161c191690558b8080610bba565b91926020600181928685015181550194019201610b96565b610c2590876000526020600020601f850160051c81019160208610610c2b575b601f0160051c0190611e98565b88610b3b565b9091508190610c18565b6009600052600080516020612033833981519152908382015b8183018110610c5e575050610a37565b80610c6b60019254611b87565b80610c78575b5001610c4e565b601f81118314610c8e5750600081555b88610c71565b610cac908260005283601f6020600020920160051c82019101611e98565b60006020812081835555610c88565b80518051906001600160401b03821161021757610cd88654611b87565b601f8111610d9e575b50602090601f8311600114610d2e579282600194936020938695600092610d23575b5050600019600383901b1c191690841b1787555b01940191019092610a09565b015190508c80610d03565b908660005260206000209160005b601f1985168110610d86575083602093600196938796938794601f19811610610d6d575b505050811b018755610d17565b015160001960f88460031b161c191690558c8080610d60565b91926020600181928685015181550194019201610d3c565b610dca90876000526020600020601f850160051c81019160208610610c2b57601f0160051c0190611e98565b89610ce1565b6007600052600080516020612013833981519152908382015b8183018110610df95750506109eb565b80610e0660019254611b87565b80610e13575b5001610de9565b601f81118314610e295750600081555b89610e0c565b610e47908260005283601f6020600020920160051c82019101611e98565b60006020812081835555610e23565b0151905086806109b8565b925060056000527f036b6384b5eca791c62761152d0c79bb0604c104a5fb6f4eb0703f3154bb3db0906000935b601f1984168510610ed0576001945083601f19811610610eb7575b505050811b016005556109ce565b015160001960f88460031b161c19169055868080610ea9565b81810151835560209485019460019093019290910190610e8e565b610f349060056000527f036b6384b5eca791c62761152d0c79bb0604c104a5fb6f4eb0703f3154bb3db0601f850160051c81019160208610610c2b57601f0160051c0190611e98565b876109a1565b015190508780610964565b925060046000527f8a35acfbc15ff81a39ae7d344fd709f28e8600b4aa8c65c6b64bfe7fe36bd19b906000935b601f1984168510610fb4576001945083601f19811610610f9b575b505050811b0160045561097a565b015160001960f88460031b161c19169055878080610f8d565b81810151835560209485019460019093019290910190610f72565b6110189060046000527f8a35acfbc15ff81a39ae7d344fd709f28e8600b4aa8c65c6b64bfe7fe36bd19b601f850160051c81019160208610610c2b57601f0160051c0190611e98565b8861094d565b015190508880610910565b925060036000527fc2575a0e9e593c00f959f8c92f12db2869c3395a3b0502d05e2516446f71f85b906000935b601f1984168510611098576001945083601f1981161061107f575b505050811b01600355610926565b015160001960f88460031b161c19169055888080611071565b81810151835560209485019460019093019290910190611056565b6110fc9060036000527fc2575a0e9e593c00f959f8c92f12db2869c3395a3b0502d05e2516446f71f85b601f850160051c81019160208610610c2b57601f0160051c0190611e98565b896108f9565b0151905089806108bc565b925060026000527f405787fa12a823e0f2b7631cc41b3ba8828b3321ca811111fa75cd3aa3bb5ace906000935b601f198416851061117c576001945083601f19811610611163575b505050811b016002556108d2565b015160001960f88460031b161c19169055898080611155565b8181015183556020948501946001909301929091019061113a565b6111e09060026000527f405787fa12a823e0f2b7631cc41b3ba8828b3321ca811111fa75cd3aa3bb5ace601f850160051c81019160208610610c2b57601f0160051c0190611e98565b8a6108a5565b015190508a80610868565b925060016000527fb10e2d527612073b26eecdfd717e6a320cf44b4afac2b0732d9fcbe2b7fa0cf6906000935b601f1984168510611260576001945083601f19811610611247575b505050811b0160015561087e565b015160001960f88460031b161c191690558a8080611239565b8181015183556020948501946001909301929091019061121e565b6112c49060016000527fb10e2d527612073b26eecdfd717e6a320cf44b4afac2b0732d9fcbe2b7fa0cf6601f850160051c81019160208610610c2b57601f0160051c0190611e98565b8b610851565b60405162461bcd60e51b815260206004820152602260248201527f50726f6a65637420617272617973206d7573742062652073616d65206c656e676044820152610e8d60f31b6064820152608490fd5b81358152602091820191016107e8565b3461022d57600036600319011261022d576020600854604051908152f35b3461022d57602036600319011261022d57600435600a5481101561022d57602090600a600052600080516020611ff38339815191520154604051908152f35b3461022d57602036600319011261022d5760043560095481101561022d576104d26103ff91600960005260008051602061203383398151915201611be2565b3461022d57600036600319011261022d57600b54604051600091600c546113ec81611b87565b80845290600190818116908115611498575060011461144d575b505061141782611439940383611bc1565b60405192839260ff8360a01c1615158452606060208501526060840190611c88565b6001600160a01b0390911660408301520390f35b600c60009081529450600080516020611fd38339815191525b828610611480575050509181016020019161141782611406565b80546020878701810191909152909501948101611466565b611439965085925060209150926114179360ff191682840152151560051b8201019450611406565b3461022d57604036600319011261022d576001600160a01b03806114e2611cc8565b16806000526020916010835260ff604060002054166115d25782600091600e54166024604051809481936345f5448560e01b8352833560048401525af19081156115c657600091611590575b501561154b57600052600d81526000604081205560405160018152f35b60405162461bcd60e51b815260048101839052601b60248201527f4661696c656420746f2072656c6561736520454d44207374616b6500000000006044820152606490fd5b90508281813d83116115bf575b6115a78183611bc1565b8101031261022d5751801515810361022d578361152e565b503d61159d565b6040513d6000823e3d90fd5b60405162461bcd60e51b815260048101849052602360248201527f43616e6e6f7420726566756e6420454d4420666f72206163636570746564206260448201526269647360e81b6064820152608490fd5b3461022d57600036600319011261022d57600b546040516001600160a01b039091168152602090f35b3461022d57602036600319011261022d576001600160a01b0361166d611cc8565b166000526010602052602060ff604060002054166040519015158152f35b3461022d57600036600319011261022d57600e546040516001600160a01b039091168152602090f35b3461022d57604036600319011261022d576001600160401b0360043581811161022d576116e5903690600401611d77565b906024356001600160a01b0381169081900361022d576001600160601b0360a01b600b541617600b55815190811161021757611722600c54611b87565b601f81116117e7575b50602080601f83116001146117755750819260009261176a575b50508160011b916000199060031b1c191617600c555b600b805460ff60a01b19169055005b015190508280611745565b90601f19831693600c600052600080516020611fd3833981519152926000905b8682106117cf57505083600195106117b6575b505050811b01600c5561175b565b015160001960f88460031b161c191690558280806117a8565b80600185968294968601518155019501930190611795565b61181e90600c600052600080516020611fd3833981519152601f840160051c81019160208510610c2b57601f0160051c0190611e98565b8261172b565b3461022d57602036600319011261022d576001600160a01b03611845611cc8565b166000526012602052602060ff604060002054166040519015158152f35b3461022d57602036600319011261022d576001600160a01b03611884611cc8565b16600052600d6020526020604060002054604051908152f35b3461022d57600036600319011261022d576103ff6118b9611eaf565b604051918291602083526020830190611d22565b60208060031936011261022d576118e2611cc8565b341561197757600e5460405163cbf1d91f60e01b81526004808201526001600160a01b0392831660248201819052909290918491849160449183913491165af19182156115c657600092611948575b50600052600d825234604060002055604051908152f35b9091508281813d8311611970575b6119608183611bc1565b8101031261022d57519083611931565b503d611956565b60405162461bcd60e51b815260048101839052602160248201527f454d4420616d6f756e74206d7573742062652067726561746572207468616e206044820152600360fc1b6064820152608490fd5b3461022d57600036600319011261022d5760405180600f5491828152602080910192600f6000527f8d1108e10bcb7c27dddfc02ed9d693a074039d026cf4ea4240b40f7d581ac802916000905b828210611a2a576103ff8561046781890382611bc1565b83546001600160a01b031686529485019460019384019390910190611a13565b3461022d57600036600319011261022d576006805460ff19166001179055005b3461022d57602036600319011261022d57600160a01b6001600160a01b03611a90611cc8565b166affffffffffffffffffffff60a81b600b54161717600b556000604051f35b3461022d57600036600319011261022d576040516000600c54611ad281611b87565b80845290600190818116908115611b455750600114611afc575b6103ff846104d281860382611bc1565b600c60009081529250600080516020611fd38339815191525b828410611b2d5750505081016020016104d282611aec565b80546020858701810191909152909301928101611b15565b60ff191660208087019190915292151560051b850190920192506104d29150839050611aec565b3461022d57600036600319011261022d576020906008548152f35b90600182811c92168015611bb7575b6020831014611ba157565b634e487b7160e01b600052602260045260246000fd5b91607f1691611b96565b90601f801991011681019081106001600160401b0382111761021757604052565b9060405191826000825492611bf684611b87565b908184526001948581169081600014611c655750600114611c22575b5050611c2092500383611bc1565b565b9093915060005260209081600020936000915b818310611c4d575050611c2093508201013880611c12565b85548884018501529485019487945091830191611c35565b915050611c2094506020925060ff191682840152151560051b8201013880611c12565b919082519283825260005b848110611cb4575050826000602080949584010152601f8019910116010190565b602081830181015184830182015201611c93565b600435906001600160a01b038216820361022d57565b6020908160408183019282815285518094520193019160005b828110611d05575050505090565b83516001600160a01b031685529381019392810192600101611cf7565b90815180825260208092019182818360051b85019501936000915b848310611d4d5750505050505090565b9091929394958480611d6783856001950387528a51611c88565b9801930193019194939290611d3d565b81601f8201121561022d578035906001600160401b0382116102175760405192611dab601f8401601f191660200185611bc1565b8284526020838301011161022d57816000926020809301838601378301015290565b6001600160401b0381116102175760051b60200190565b9080601f8301121561022d57813590611dfc82611dcd565b92611e0a6040519485611bc1565b828452602092838086019160051b8301019280841161022d57848301915b848310611e385750505050505090565b82356001600160401b03811161022d578691611e5984848094890101611d77565b815201920191611e28565b90815180825260208080930193019160005b828110611e84575050505090565b835185529381019392810192600101611e76565b818110611ea3575050565b60008155600101611e98565b60075490611ebc82611dcd565b91611eca6040519384611bc1565b8083526007600090815260206000805160206120138339815191528186015b848410611ef7575050505050565b6001838192611f0585611be2565b815201920193019290611ee9565b60095490611f2082611dcd565b91611f2e6040519384611bc1565b8083526009600090815260206000805160206120338339815191528186015b848410611f5b575050505050565b6001838192611f6985611be2565b815201920193019290611f4d565b60405190600a548083528260209182820190600a600052600080516020611ff3833981519152936000905b828210611fb857505050611c2092500383611bc1565b855484526001958601958895509381019390910190611fa256fedf6966c971051c3d54ec59162606531493a51404a002842f56009d7e5cf4a8c7c65a7bb8d6351c1cf70c95a316cc6a92839c986682d98bc35f958f4883f9d2a8a66cc928b5edb82af9bd49922954155ab7b0942694bea4ce44661d9a8736c6886e1540171b6c0c960b71a7020d9f60077f6af931a8bbf590da0223dacf75c7afa26469706673582212201dc17ac5e9b94e5b70fa9d7ffb44c069c5d7b140875d239bd88019d02fe3964d64736f6c63430008100033a264697066735822122083778b1adcf69db7741af06d3a42c52fd830d7a19820e54b05023c6c899eb9fe64736f6c63430008100033",
  "immutableReferences": {},
  "source": "// SPDX-License-Identifier: GPL-3.0\npragma solidity ^0.8.0;\n\nimport \"./Contractor.sol\";\n\ncontract FactoryContractor {\n    address[] public allContractors;\n    \n    //----do not use---- adds the new contract to same byte code--useless shit.\n    function registerNewContractor(\n        address _walletAddress, \n        string memory _email, \n        string memory _name,\n        string memory _phoneNumber, \n        string memory _panNumber, \n        string memory _gstNumber, \n        string[] memory _workCategories,\n        uint256 _netWorth,\n        string[] memory _previousProjects,\n        uint256[] memory _previousProjectValues,\n        address _stakeManagerAddress\n    ) public returns (bool) {\n        Contractor contractor = new Contractor();\n        contractor.setContractor(\n            _walletAddress, \n            _email, \n            _name,\n            _phoneNumber, \n            _panNumber, \n            _gstNumber, \n            _workCategories,\n            _netWorth,\n            _previousProjects,\n            _previousProjectValues,\n            _stakeManagerAddress\n        );\n        allContractors.push(_walletAddress);\n        return true;\n    }\n}",
  "sourcePath": "/home/aniketdatar/Desktop/Other/tendersystem-blockchain/contracts/FactoryContractor.sol",
  "compiler": {
    "name": "solc",
    "version": "0.8.16+commit.07a7930e.Emscripten.clang"
  },
  "schemaVersion": "3.4.9",
  "updatedAt": "2025-08-19T10:17:23.379Z",
  "networkType": "ethereum",
  "devdoc": {
    "kind": "dev",
    "methods": {},
    "version": 1
  },
  "userdoc": {
    "kind": "user",
    "methods": {},
    "version": 1
  }
}