{
  "contractName": "FactoryGovernmentOfficer",
  "abi": [
    {
      "inputs": [
        {
          "internalType": "address",
          "name": "_walletAddress",
          "type": "address"
        },
        {
          "internalType": "string",
          "name": "_email",
          "type": "string"
        },
        {
          "internalType": "string",
          "name": "_name",
          "type": "string"
        },
        {
          "internalType": "string",
          "name": "_phoneNumber",
          "type": "string"
        },
        {
          "internalType": "string",
          "name": "_employeeId",
          "type": "string"
        }
      ],
      "name": "registerOfficer",
      "outputs": [
        {
          "internalType": "address",
          "name": "",
          "type": "address"
        }
      ],
      "stateMutability": "nonpayable",
      "type": "function"
    }
  ],
  "bytecode": "0x608060405234801561001057600080fd5b50611271806100206000396000f3fe608060405234801561001057600080fd5b506004361061002b5760003560e01c80635eaab2e814610030575b600080fd5b61004361003e3660046101f7565b61005f565b6040516001600160a01b03909116815260200160405180910390f35b60008060405161006e90610147565b604051809103906000f08015801561008a573d6000803e3d6000fd5b506040516338ba86db60e11b81529091506001600160a01b038216906371750db6906100c2908a908a908a908a908a90600401610309565b600060405180830381600087803b1580156100dc57600080fd5b505af11580156100f0573d6000803e3d6000fd5b5050600080546001810182559080527f290decd9548b62a8d60345a988386fc84ba6bc95484008f6362f93160ef3e5630180546001600160a01b0319166001600160a01b038b161790555096979650505050505050565b610ec88061037483390190565b634e487b7160e01b600052604160045260246000fd5b600082601f83011261017b57600080fd5b813567ffffffffffffffff8082111561019657610196610154565b604051601f8301601f19908116603f011681019082821181831017156101be576101be610154565b816040528381528660208588010111156101d757600080fd5b836020870160208301376000602085830101528094505050505092915050565b600080600080600060a0868803121561020f57600080fd5b85356001600160a01b038116811461022657600080fd5b9450602086013567ffffffffffffffff8082111561024357600080fd5b61024f89838a0161016a565b9550604088013591508082111561026557600080fd5b61027189838a0161016a565b9450606088013591508082111561028757600080fd5b61029389838a0161016a565b935060808801359150808211156102a957600080fd5b506102b68882890161016a565b9150509295509295909350565b6000815180845260005b818110156102e9576020818501810151868301820152016102cd565b506000602082860101526020601f19601f83011685010191505092915050565b6001600160a01b038616815260a06020820181905260009061032d908301876102c3565b828103604084015261033f81876102c3565b9050828103606084015261035381866102c3565b9050828103608084015261036781856102c3565b9897505050505050505056fe608060405234801561001057600080fd5b50610ea8806100206000396000f3fe608060405234801561001057600080fd5b50600436106101585760003560e01c806371750db6116100c3578063b808fad41161007c578063b808fad41461031a578063c1fb28ec14610322578063c81bde151461034b578063c900b1f814610353578063d196417214610366578063e7b73493146103c657600080fd5b806371750db6146102c9578063747f3380146102dc578063820e93f5146102e457806384ab30a5146102ec5780639370f3c2146102f4578063aa8ed4101461030757600080fd5b8063474da79a11610115578063474da79a14610250578063534f9c531461026357806353ff87ac1461028657806360415df01461029b57806366a0a6d9146102a35780636ad5b3ea146102b657600080fd5b806306fdde031461015d57806316f4f3041461017b5780631ad86bf2146101a657806329fe9095146101ba578063423d4f801461021a578063465e1def1461023d575b600080fd5b6101656103ce565b6040516101729190610a66565b60405180910390f35b61018e610189366004610ab4565b61045c565b6040516001600160a01b039091168152602001610172565b6101b86005805460ff19166001179055565b005b6101b86101c8366004610ae9565b600680546001810182556000919091527ff652222313e28459528d920b65115c16c04f3efc82aaedc97be59f3f377c0d3f0180546001600160a01b0319166001600160a01b0392909216919091179055565b61022d610228366004610b0b565b610486565b6040519015158152602001610172565b61018e61024b366004610ab4565b61060e565b61018e61025e366004610ab4565b61061e565b61022d610271366004610ae9565b600b6020526000908152604090205460ff1681565b61028e61062e565b6040516101729190610b3e565b61028e610690565b61018e6102b1366004610ab4565b6106f0565b60005461018e906001600160a01b031681565b6101b86102d7366004610c2e565b610700565b610165610760565b61016561076d565b61016561077a565b61018e610302366004610ab4565b610787565b61022d610315366004610ae9565b610797565b61028e610890565b61018e610330366004610ae9565b600c602052600090815260409020546001600160a01b031681565b61028e6108f0565b61022d610361366004610ae9565b610950565b6101b8610374366004610ae9565b600980546001810182556000919091527f6e1540171b6c0c960b71a7020d9f60077f6af931a8bbf590da0223dacf75c7af0180546001600160a01b0319166001600160a01b0392909216919091179055565b61028e610a06565b600380546103db90610cec565b80601f016020809104026020016040519081016040528092919081815260200182805461040790610cec565b80156104545780601f1061042957610100808354040283529160200191610454565b820191906000526020600020905b81548152906001019060200180831161043757829003601f168201915b505050505081565b6007818154811061046c57600080fd5b6000918252602090912001546001600160a01b0316905081565b6000805b60065481101561060257836001600160a01b0316600882815481106104b1576104b1610d26565b6000918252602090912001546001600160a01b0316036105f0576007805460018101825560009182527fa66cc928b5edb82af9bd49922954155ab7b0942694bea4ce44661d9a8736c6880180546001600160a01b0319166001600160a01b038716179055600880548592600c9290918590811061053057610530610d26565b60009182526020808320909101546001600160a01b039081168452838201949094526040928301822080549585166001600160a01b031996871617905560098054600181019091557f6e1540171b6c0c960b71a7020d9f60077f6af931a8bbf590da0223dacf75c7af018054948916949095168417909455918252600b90925220805460ff1916905560088054829081106105cd576105cd610d26565b600091825260209091200180546001600160a01b03191690555060019050610608565b806105fa81610d3c565b91505061048a565b50600090505b92915050565b6006818154811061046c57600080fd5b6009818154811061046c57600080fd5b6060600a80548060200260200160405190810160405280929190818152602001828054801561068657602002820191906000526020600020905b81546001600160a01b03168152600190910190602001808311610668575b5050505050905090565b60606008805480602002602001604051908101604052809291908181526020018280548015610686576020028201919060005260206000209081546001600160a01b03168152600190910190602001808311610668575050505050905090565b600a818154811061046c57600080fd5b600080546001600160a01b0319166001600160a01b03871617905560016107278582610db2565b5060026107348382610db2565b5060036107418482610db2565b50600461074e8282610db2565b50506005805460ff1916905550505050565b600280546103db90610cec565b600180546103db90610cec565b600480546103db90610cec565b6008818154811061046c57600080fd5b6000805b60095481101561088757826001600160a01b0316600982815481106107c2576107c2610d26565b6000918252602090912001546001600160a01b03160361087557600a805460018082019092557fc65a7bb8d6351c1cf70c95a316cc6a92839c986682d98bc35f958f4883f9d2a80180546001600160a01b0319166001600160a01b0386169081179091556000908152600b60205260409020805460ff19169091179055600980548290811061085357610853610d26565b600091825260209091200180546001600160a01b031916905550600192915050565b8061087f81610d3c565b91505061079b565b50600092915050565b60606007805480602002602001604051908101604052809291908181526020018280548015610686576020028201919060005260206000209081546001600160a01b03168152600190910190602001808311610668575050505050905090565b60606009805480602002602001604051908101604052809291908181526020018280548015610686576020028201919060005260206000209081546001600160a01b03168152600190910190602001808311610668575050505050905090565b6000805b60065481101561088757826001600160a01b03166006828154811061097b5761097b610d26565b6000918252602090912001546001600160a01b0316036109f457600880546001810182556000919091527ff3f7a9fe364faab93b216da50a3214154f22a0a2b415b23a84c8169e8b636ee30180546001600160a01b0319166001600160a01b038516179055600680548290811061085357610853610d26565b806109fe81610d3c565b915050610954565b60606006805480602002602001604051908101604052809291908181526020018280548015610686576020028201919060005260206000209081546001600160a01b03168152600190910190602001808311610668575050505050905090565b600060208083528351808285015260005b81811015610a9357858101830151858201604001528201610a77565b506000604082860101526040601f19601f8301168501019250505092915050565b600060208284031215610ac657600080fd5b5035919050565b80356001600160a01b0381168114610ae457600080fd5b919050565b600060208284031215610afb57600080fd5b610b0482610acd565b9392505050565b60008060408385031215610b1e57600080fd5b610b2783610acd565b9150610b3560208401610acd565b90509250929050565b6020808252825182820181905260009190848201906040850190845b81811015610b7f5783516001600160a01b031683529284019291840191600101610b5a565b50909695505050505050565b634e487b7160e01b600052604160045260246000fd5b600082601f830112610bb257600080fd5b813567ffffffffffffffff80821115610bcd57610bcd610b8b565b604051601f8301601f19908116603f01168101908282118183101715610bf557610bf5610b8b565b81604052838152866020858801011115610c0e57600080fd5b836020870160208301376000602085830101528094505050505092915050565b600080600080600060a08688031215610c4657600080fd5b610c4f86610acd565b9450602086013567ffffffffffffffff80821115610c6c57600080fd5b610c7889838a01610ba1565b95506040880135915080821115610c8e57600080fd5b610c9a89838a01610ba1565b94506060880135915080821115610cb057600080fd5b610cbc89838a01610ba1565b93506080880135915080821115610cd257600080fd5b50610cdf88828901610ba1565b9150509295509295909350565b600181811c90821680610d0057607f821691505b602082108103610d2057634e487b7160e01b600052602260045260246000fd5b50919050565b634e487b7160e01b600052603260045260246000fd5b600060018201610d5c57634e487b7160e01b600052601160045260246000fd5b5060010190565b601f821115610dad57600081815260208120601f850160051c81016020861015610d8a5750805b601f850160051c820191505b81811015610da957828155600101610d96565b5050505b505050565b815167ffffffffffffffff811115610dcc57610dcc610b8b565b610de081610dda8454610cec565b84610d63565b602080601f831160018114610e155760008415610dfd5750858301515b600019600386901b1c1916600185901b178555610da9565b600085815260208120601f198616915b82811015610e4457888601518255948401946001909101908401610e25565b5085821015610e625787850151600019600388901b60f8161c191681555b5050505050600190811b0190555056fea26469706673582212202bea513be7253fde81774ba77dc2b22dcf5bbbf559aff12fbb3cea761e73f12764736f6c63430008100033a26469706673582212200a1c06733be5b366c5726f0b3e830a17d638d687289b2f3a239034ff689bb92264736f6c63430008100033",
  "immutableReferences": {},
  "source": "// SPDX-License-Identifier: GPL-3.0\npragma solidity ^0.8.0;\npragma experimental ABIEncoderV2;\n\nimport \"./GovernmentOfficer.sol\";\n\n\ncontract FactoryGovernmentOfficer {\n    address[] allOfficers;\n\n    function registerOfficer(address _walletAddress, string memory _email, string memory _name, \n    string memory _phoneNumber, string memory _employeeId) public returns (address) {\n        GovernmentOfficer newOfficer = new GovernmentOfficer();\n        newOfficer.setGovernmentOfficer(_walletAddress, _email, _name, \n        _phoneNumber, _employeeId);\n        allOfficers.push(_walletAddress);\n        return _walletAddress;\n    }\n\n    // function returnString memory() public returns (string memory) {\n    //     return \"HelloWorld\";\n    // }\n\n    // function returnInt() public returns (uint) {\n    //     return 10;\n    // }\n}",
  "sourcePath": "/home/aniketdatar/Desktop/Other/tendersystem-blockchain/contracts/FactoryGovernmentOfficer.sol",
  "compiler": {
    "name": "solc",
    "version": "0.8.16+commit.07a7930e.Emscripten.clang"
  },
  "schemaVersion": "3.4.9",
  "updatedAt": "2025-08-19T10:17:23.381Z",
  "networkType": "ethereum",
  "devdoc": {
    "kind": "dev",
    "methods": {},
    "version": 1
  },
  "userdoc": {
    "kind": "user",
    "methods": {},
    "version": 1
  }
}