{
  "contractName": "GovernmentOfficerRepo",
  "abi": [
    {
      "inputs": [
        {
          "internalType": "address",
          "name": "",
          "type": "address"
        }
      ],
      "name": "officerToVerifier",
      "outputs": [
        {
          "internalType": "address",
          "name": "",
          "type": "address"
        }
      ],
      "stateMutability": "view",
      "type": "function",
      "constant": true
    },
    {
      "inputs": [
        {
          "internalType": "uint256",
          "name": "",
          "type": "uint256"
        }
      ],
      "name": "officers",
      "outputs": [
        {
          "internalType": "address",
          "name": "",
          "type": "address"
        }
      ],
      "stateMutability": "view",
      "type": "function",
      "constant": true
    },
    {
      "inputs": [
        {
          "internalType": "uint256",
          "name": "",
          "type": "uint256"
        }
      ],
      "name": "verifiedOfficers",
      "outputs": [
        {
          "internalType": "address",
          "name": "",
          "type": "address"
        }
      ],
      "stateMutability": "view",
      "type": "function",
      "constant": true
    },
    {
      "inputs": [
        {
          "internalType": "address",
          "name": "",
          "type": "address"
        }
      ],
      "name": "verifiedStatus",
      "outputs": [
        {
          "internalType": "bool",
          "name": "",
          "type": "bool"
        }
      ],
      "stateMutability": "view",
      "type": "function",
      "constant": true
    },
    {
      "inputs": [
        {
          "internalType": "address",
          "name": "",
          "type": "address"
        }
      ],
      "name": "walletAddressToNode",
      "outputs": [
        {
          "internalType": "address",
          "name": "",
          "type": "address"
        }
      ],
      "stateMutability": "view",
      "type": "function",
      "constant": true
    },
    {
      "inputs": [
        {
          "internalType": "address",
          "name": "walletAddress",
          "type": "address"
        },
        {
          "internalType": "address",
          "name": "nodeAddress",
          "type": "address"
        }
      ],
      "name": "newOfficer",
      "outputs": [
        {
          "internalType": "bool",
          "name": "",
          "type": "bool"
        }
      ],
      "stateMutability": "nonpayable",
      "type": "function"
    },
    {
      "inputs": [
        {
          "internalType": "address",
          "name": "walletAddress",
          "type": "address"
        },
        {
          "internalType": "address",
          "name": "nodeAddress",
          "type": "address"
        }
      ],
      "name": "mapWalletAddressToNode",
      "outputs": [],
      "stateMutability": "nonpayable",
      "type": "function"
    },
    {
      "inputs": [
        {
          "internalType": "address",
          "name": "walletAddress",
          "type": "address"
        }
      ],
      "name": "getNodeAddress",
      "outputs": [
        {
          "internalType": "address",
          "name": "",
          "type": "address"
        }
      ],
      "stateMutability": "view",
      "type": "function",
      "constant": true
    },
    {
      "inputs": [
        {
          "internalType": "address",
          "name": "officerAddress",
          "type": "address"
        },
        {
          "internalType": "address",
          "name": "verifierAdress",
          "type": "address"
        }
      ],
      "name": "verifyOfficer",
      "outputs": [],
      "stateMutability": "nonpayable",
      "type": "function"
    },
    {
      "inputs": [],
      "name": "getOfficersCount",
      "outputs": [
        {
          "internalType": "uint256",
          "name": "",
          "type": "uint256"
        }
      ],
      "stateMutability": "view",
      "type": "function",
      "constant": true
    },
    {
      "inputs": [],
      "name": "getVerifiedOfficersCount",
      "outputs": [
        {
          "internalType": "uint256",
          "name": "",
          "type": "uint256"
        }
      ],
      "stateMutability": "view",
      "type": "function",
      "constant": true
    },
    {
      "inputs": [],
      "name": "getOfficers",
      "outputs": [
        {
          "internalType": "address[]",
          "name": "",
          "type": "address[]"
        }
      ],
      "stateMutability": "view",
      "type": "function",
      "constant": true
    },
    {
      "inputs": [],
      "name": "getVerifiedOfficers",
      "outputs": [
        {
          "internalType": "address[]",
          "name": "",
          "type": "address[]"
        }
      ],
      "stateMutability": "view",
      "type": "function",
      "constant": true
    },
    {
      "inputs": [
        {
          "internalType": "address",
          "name": "officerAddress",
          "type": "address"
        }
      ],
      "name": "getVerifier",
      "outputs": [
        {
          "internalType": "address",
          "name": "",
          "type": "address"
        }
      ],
      "stateMutability": "view",
      "type": "function",
      "constant": true
    },
    {
      "inputs": [
        {
          "internalType": "address",
          "name": "officerAddress",
          "type": "address"
        }
      ],
      "name": "getVerifiedStatus",
      "outputs": [
        {
          "internalType": "bool",
          "name": "",
          "type": "bool"
        }
      ],
      "stateMutability": "view",
      "type": "function",
      "constant": true
    },
    {
      "inputs": [
        {
          "internalType": "uint256",
          "name": "index",
          "type": "uint256"
        }
      ],
      "name": "getUnverifiedOfficers",
      "outputs": [
        {
          "internalType": "address",
          "name": "",
          "type": "address"
        }
      ],
      "stateMutability": "view",
      "type": "function",
      "constant": true
    }
  ],
  "bytecode": "0x608060405234801561001057600080fd5b50610686806100206000396000f3fe608060405234801561001057600080fd5b50600436106101005760003560e01c80635306fa8b11610097578063e4974ca911610066578063e4974ca9146102e4578063e544a7fd146102ec578063ec54b7f914610315578063fac0d0901461032857600080fd5b80635306fa8b146102645780636b291d9f146102a05780636f6f7721146102b3578063d6de1dcb146102bb57600080fd5b80631142f021116100d35780631142f021146101ff57806311f217c7146102125780631dac6a301461023e57806323ff85f91461025157600080fd5b8063059ce95d146101055780630cc7bf9c1461014e5780630f7151dc1461016057806310ffb5dc14610175575b600080fd5b61013161011336600461057f565b6001600160a01b039081166000908152600360205260409020541690565b6040516001600160a01b0390911681526020015b60405180910390f35b6001545b604051908152602001610145565b61016861034b565b60405161014591906105a1565b6101fd6101833660046105ee565b6001805480820182557fb10e2d527612073b26eecdfd717e6a320cf44b4afac2b0732d9fcbe2b7fa0cf60180546001600160a01b039485166001600160a01b031991821681179092556000918252600260209081526040808420805460ff1916909517909455600390529190208054929093169116179055565b005b61013161020d366004610621565b6103ad565b61013161022036600461057f565b6001600160a01b039081166000908152600460205260409020541690565b61013161024c366004610621565b61042d565b6101fd61025f3660046105ee565b610457565b61029061027236600461057f565b6001600160a01b031660009081526002602052604090205460ff1690565b6040519015158152602001610145565b6101316102ae366004610621565b610485565b610168610495565b6101316102c936600461057f565b6003602052600090815260409020546001600160a01b031681565b600054610152565b6101316102fa36600461057f565b6004602052600090815260409020546001600160a01b031681565b6102906103233660046105ee565b6104f5565b61029061033636600461057f565b60026020526000908152604090205460ff1681565b606060008054806020026020016040519081016040528092919081815260200182805480156103a357602002820191906000526020600020905b81546001600160a01b03168152600190910190602001808311610385575b5050505050905090565b600080548211156103bd57600080fd5b600260008084815481106103d3576103d361063a565b60009182526020808320909101546001600160a01b0316835282019290925260400190205460ff1661010057600082815481106104125761041261063a565b6000918252602090912001546001600160a01b031692915050565b6001818154811061043d57600080fd5b6000918252602090912001546001600160a01b0316905081565b6001600160a01b03918216600090815260046020526040902080546001600160a01b03191691909216179055565b6000818154811061043d57600080fd5b606060018054806020026020016040519081016040528092919081815260200182805480156103a3576020028201919060005260206000209081546001600160a01b03168152600190910190602001808311610385575050505050905090565b600080546001810182557f290decd9548b62a8d60345a988386fc84ba6bc95484008f6362f93160ef3e5630180546001600160a01b0319166001600160a01b0384169081179091558152600260205260408120805460ff1916905561055a8383610457565b50600192915050565b80356001600160a01b038116811461057a57600080fd5b919050565b60006020828403121561059157600080fd5b61059a82610563565b9392505050565b6020808252825182820181905260009190848201906040850190845b818110156105e25783516001600160a01b0316835292840192918401916001016105bd565b50909695505050505050565b6000806040838503121561060157600080fd5b61060a83610563565b915061061860208401610563565b90509250929050565b60006020828403121561063357600080fd5b5035919050565b634e487b7160e01b600052603260045260246000fdfea26469706673582212208e05654d1392c2d2be45ee02a4435617a591833218749cda1e69a3e94e1d06df64736f6c63430008100033",
  "immutableReferences": {},
  "source": "// SPDX-License-Identifier: GPL-3.0\npragma solidity ^0.8.0;\npragma experimental ABIEncoderV2;\n\n//import \"./GovernmentOfficer.sol\";\n\n\ncontract GovernmentOfficerRepo {\n    address[] public officers; //all officers verified + unverified\n    address[] public verifiedOfficers;\n    mapping (address=>bool) public verifiedStatus; //true=>verified, false => unverified\n    mapping (address=>address) public officerToVerifier;\n    mapping (address=>address) public walletAddressToNode;\n\n    //----do not use---- adds the new contract to same byte code\n    // function registerOfficer(address _walletAddress, string _email, string _name, \n    // string _phoneNumber, string _employeeId) public returns (address) {\n    //     GovernmentOfficer officer = new GovernmentOfficer();\n    //     officer.setGovernmentOfficer(_walletAddress, _email, _name, \n    //     _phoneNumber, _employeeId);\n    //     this.newOfficer(address(officer));\n    //     return officer;\n    // }\n\n    function newOfficer(address walletAddress, address nodeAddress) public returns (bool) {\n        officers.push(nodeAddress);\n        verifiedStatus[nodeAddress] = false;\n        mapWalletAddressToNode(walletAddress, nodeAddress);\n        return true;\n    }\n    \n    function mapWalletAddressToNode(address walletAddress, address nodeAddress) public {\n        walletAddressToNode[walletAddress] = nodeAddress;\n    }\n\n    function getNodeAddress(address walletAddress) public view returns (address) {\n        return walletAddressToNode[walletAddress];\n    }\n    \n    function verifyOfficer(address officerAddress, address verifierAdress) public {\n        verifiedOfficers.push(officerAddress);\n        verifiedStatus[officerAddress] = true;\n        officerToVerifier[officerAddress] = verifierAdress;\n    }\n    \n    function getOfficersCount() public view returns (uint256) {\n        return officers.length;\n    }\n\n    function getVerifiedOfficersCount() public view returns (uint256) {\n        return verifiedOfficers.length;\n    }\n\n    function getOfficers () public view returns (address[] memory) {\n        return officers;\n    }\n\n    function getVerifiedOfficers () public view returns (address[] memory) {\n        return verifiedOfficers;\n    }\n\n    function getVerifier(address officerAddress) public view returns (address) {\n        return officerToVerifier[officerAddress];\n    }\n\n    function getVerifiedStatus(address officerAddress) public view returns (bool) {\n        return verifiedStatus[officerAddress];\n    }\n\n    function getUnverifiedOfficers(uint256 index) public view returns (address) {\n        //loop at web3\n        if (index > officers.length) revert();\n        if (!verifiedStatus[officers[index]]) {\n            return officers[index]; \n        }\n        revert();\n    }\n    \n}\n",
  "sourcePath": "/home/aniketdatar/Desktop/Other/tendersystem-blockchain/contracts/GovernmentOfficerRepo.sol",
  "compiler": {
    "name": "solc",
    "version": "0.8.16+commit.07a7930e.Emscripten.clang"
  },
  "schemaVersion": "3.4.9",
  "updatedAt": "2025-08-19T10:17:23.114Z",
  "networkType": "ethereum",
  "devdoc": {
    "kind": "dev",
    "methods": {},
    "version": 1
  },
  "userdoc": {
    "kind": "user",
    "methods": {},
    "version": 1
  }
}