{
  "contractName": "Main",
  "abi": [
    {
      "inputs": [],
      "name": "getAllTenders",
      "outputs": [
        {
          "internalType": "address[]",
          "name": "",
          "type": "address[]"
        }
      ],
      "stateMutability": "pure",
      "type": "function"
    },
    {
      "inputs": [],
      "name": "getAllOngoingContracts",
      "outputs": [
        {
          "internalType": "address[]",
          "name": "",
          "type": "address[]"
        }
      ],
      "stateMutability": "pure",
      "type": "function"
    }
  ],
  "bytecode": "0x608060405234801561001057600080fd5b5060d88061001f6000396000f3fe6080604052348015600f57600080fd5b506004361060325760003560e01c80632358c046146037578063ab0b5937146037575b600080fd5b60408051600081526020810191829052604e916057565b60405180910390f35b6020808252825182820181905260009190848201906040850190845b8181101560965783516001600160a01b0316835292840192918401916001016073565b5090969550505050505056fea264697066735822122072dc87775a58ceb9b278403eff6eef86faff875cfcf4749cf6c6ec48449e953364736f6c63430008100033",
  "immutableReferences": {},
  "source": "// SPDX-License-Identifier: GPL-3.0\npragma solidity ^0.8.0;\npragma experimental ABIEncoderV2;\n\ncontract Main{\n    \n    // Placeholder implementations to enable compilation while preserving the\n    // architecture intent (key-based encryption handled off-chain; token is opaque).\n    function encrypt(address /*userAddress*/, string memory /*role*/) internal pure returns (string memory){\n        return \"\"; // no-op token placeholder\n    }\n\n    function decrypt(string memory /*token*/) internal pure returns (address){\n        return address(0);\n    }\n\n    // common man => extra fields to fetch\n    function getAllTenders() public pure returns (address[] memory){\n        return new address[](0);\n    }\n\n    function getAllOngoingContracts() public pure returns (address[] memory){\n        return new address[](0);\n    }\n}\n",
  "sourcePath": "/home/aniketdatar/Desktop/Other/tendersystem-blockchain/contracts/Main.sol",
  "compiler": {
    "name": "solc",
    "version": "0.8.16+commit.07a7930e.Emscripten.clang"
  },
  "schemaVersion": "3.4.9",
  "updatedAt": "2025-08-18T11:33:54.635Z",
  "devdoc": {
    "kind": "dev",
    "methods": {},
    "version": 1
  },
  "userdoc": {
    "kind": "user",
    "methods": {},
    "version": 1
  }
}