{
  "contractName": "PublicClaims",
  "abi": [
    {
      "inputs": [
        {
          "internalType": "address",
          "name": "_stakeManagerAddress",
          "type": "address"
        }
      ],
      "stateMutability": "nonpayable",
      "type": "constructor"
    },
    {
      "anonymous": false,
      "inputs": [
        {
          "indexed": true,
          "internalType": "uint256",
          "name": "claimId",
          "type": "uint256"
        },
        {
          "indexed": true,
          "internalType": "address",
          "name": "claimant",
          "type": "address"
        },
        {
          "indexed": true,
          "internalType": "address",
          "name": "targetContract",
          "type": "address"
        }
      ],
      "name": "ClaimCreated",
      "type": "event"
    },
    {
      "anonymous": false,
      "inputs": [
        {
          "indexed": true,
          "internalType": "uint256",
          "name": "claimId",
          "type": "uint256"
        },
        {
          "indexed": false,
          "internalType": "bool",
          "name": "upheld",
          "type": "bool"
        }
      ],
      "name": "ClaimResolved",
      "type": "event"
    },
    {
      "anonymous": false,
      "inputs": [
        {
          "indexed": true,
          "internalType": "uint256",
          "name": "claimId",
          "type": "uint256"
        },
        {
          "indexed": false,
          "internalType": "string",
          "name": "pilReference",
          "type": "string"
        }
      ],
      "name": "PILFiled",
      "type": "event"
    },
    {
      "anonymous": false,
      "inputs": [
        {
          "indexed": true,
          "internalType": "uint256",
          "name": "claimId",
          "type": "uint256"
        },
        {
          "indexed": false,
          "internalType": "uint256",
          "name": "totalStake",
          "type": "uint256"
        },
        {
          "indexed": false,
          "internalType": "uint256",
          "name": "votesFor",
          "type": "uint256"
        }
      ],
      "name": "PILThresholdReached",
      "type": "event"
    },
    {
      "anonymous": false,
      "inputs": [
        {
          "indexed": true,
          "internalType": "uint256",
          "name": "claimId",
          "type": "uint256"
        },
        {
          "indexed": true,
          "internalType": "address",
          "name": "voter",
          "type": "address"
        },
        {
          "indexed": false,
          "internalType": "bool",
          "name": "inFavor",
          "type": "bool"
        },
        {
          "indexed": false,
          "internalType": "uint256",
          "name": "stakeAmount",
          "type": "uint256"
        }
      ],
      "name": "VoteCast",
      "type": "event"
    },
    {
      "inputs": [],
      "name": "MIN_CLAIM_STAKE",
      "outputs": [
        {
          "internalType": "uint256",
          "name": "",
          "type": "uint256"
        }
      ],
      "stateMutability": "view",
      "type": "function",
      "constant": true
    },
    {
      "inputs": [],
      "name": "MIN_VOTES_FOR_PIL",
      "outputs": [
        {
          "internalType": "uint256",
          "name": "",
          "type": "uint256"
        }
      ],
      "stateMutability": "view",
      "type": "function",
      "constant": true
    },
    {
      "inputs": [],
      "name": "MIN_VOTE_STAKE",
      "outputs": [
        {
          "internalType": "uint256",
          "name": "",
          "type": "uint256"
        }
      ],
      "stateMutability": "view",
      "type": "function",
      "constant": true
    },
    {
      "inputs": [],
      "name": "PIL_THRESHOLD_STAKE",
      "outputs": [
        {
          "internalType": "uint256",
          "name": "",
          "type": "uint256"
        }
      ],
      "stateMutability": "view",
      "type": "function",
      "constant": true
    },
    {
      "inputs": [
        {
          "internalType": "uint256",
          "name": "",
          "type": "uint256"
        }
      ],
      "name": "allClaimIds",
      "outputs": [
        {
          "internalType": "uint256",
          "name": "",
          "type": "uint256"
        }
      ],
      "stateMutability": "view",
      "type": "function",
      "constant": true
    },
    {
      "inputs": [
        {
          "internalType": "uint256",
          "name": "",
          "type": "uint256"
        }
      ],
      "name": "claims",
      "outputs": [
        {
          "internalType": "uint256",
          "name": "claimId",
          "type": "uint256"
        },
        {
          "internalType": "address",
          "name": "claimant",
          "type": "address"
        },
        {
          "internalType": "address",
          "name": "targetContract",
          "type": "address"
        },
        {
          "internalType": "string",
          "name": "description",
          "type": "string"
        },
        {
          "internalType": "string",
          "name": "evidence",
          "type": "string"
        },
        {
          "internalType": "uint256",
          "name": "timestamp",
          "type": "uint256"
        },
        {
          "internalType": "enum PublicClaims.ClaimStatus",
          "name": "status",
          "type": "uint8"
        },
        {
          "internalType": "uint256",
          "name": "totalStakeAmount",
          "type": "uint256"
        },
        {
          "internalType": "uint256",
          "name": "votesFor",
          "type": "uint256"
        },
        {
          "internalType": "uint256",
          "name": "votesAgainst",
          "type": "uint256"
        },
        {
          "internalType": "uint256",
          "name": "stakeFor",
          "type": "uint256"
        },
        {
          "internalType": "uint256",
          "name": "stakeAgainst",
          "type": "uint256"
        },
        {
          "internalType": "bool",
          "name": "pilFiled",
          "type": "bool"
        }
      ],
      "stateMutability": "view",
      "type": "function",
      "constant": true
    },
    {
      "inputs": [],
      "name": "nextClaimId",
      "outputs": [
        {
          "internalType": "uint256",
          "name": "",
          "type": "uint256"
        }
      ],
      "stateMutability": "view",
      "type": "function",
      "constant": true
    },
    {
      "inputs": [],
      "name": "stakeManager",
      "outputs": [
        {
          "internalType": "contract StakeManager",
          "name": "",
          "type": "address"
        }
      ],
      "stateMutability": "view",
      "type": "function",
      "constant": true
    },
    {
      "inputs": [
        {
          "internalType": "address",
          "name": "_targetContract",
          "type": "address"
        },
        {
          "internalType": "string",
          "name": "_description",
          "type": "string"
        },
        {
          "internalType": "string",
          "name": "_evidence",
          "type": "string"
        }
      ],
      "name": "createClaim",
      "outputs": [
        {
          "internalType": "uint256",
          "name": "",
          "type": "uint256"
        }
      ],
      "stateMutability": "payable",
      "type": "function",
      "payable": true
    },
    {
      "inputs": [
        {
          "internalType": "uint256",
          "name": "_claimId",
          "type": "uint256"
        },
        {
          "internalType": "bool",
          "name": "_inFavor",
          "type": "bool"
        }
      ],
      "name": "voteOnClaim",
      "outputs": [],
      "stateMutability": "payable",
      "type": "function",
      "payable": true
    },
    {
      "inputs": [
        {
          "internalType": "uint256",
          "name": "_claimId",
          "type": "uint256"
        },
        {
          "internalType": "string",
          "name": "_pilReference",
          "type": "string"
        }
      ],
      "name": "filePIL",
      "outputs": [],
      "stateMutability": "nonpayable",
      "type": "function"
    },
    {
      "inputs": [
        {
          "internalType": "uint256",
          "name": "_claimId",
          "type": "uint256"
        },
        {
          "internalType": "bool",
          "name": "_upheld",
          "type": "bool"
        }
      ],
      "name": "resolveClaim",
      "outputs": [],
      "stateMutability": "nonpayable",
      "type": "function"
    },
    {
      "inputs": [
        {
          "internalType": "uint256",
          "name": "_claimId",
          "type": "uint256"
        }
      ],
      "name": "getClaim",
      "outputs": [
        {
          "internalType": "address",
          "name": "claimant",
          "type": "address"
        },
        {
          "internalType": "address",
          "name": "targetContract",
          "type": "address"
        },
        {
          "internalType": "string",
          "name": "description",
          "type": "string"
        },
        {
          "internalType": "string",
          "name": "evidence",
          "type": "string"
        },
        {
          "internalType": "uint256",
          "name": "timestamp",
          "type": "uint256"
        },
        {
          "internalType": "enum PublicClaims.ClaimStatus",
          "name": "status",
          "type": "uint8"
        },
        {
          "internalType": "uint256",
          "name": "totalStakeAmount",
          "type": "uint256"
        },
        {
          "internalType": "uint256",
          "name": "votesFor",
          "type": "uint256"
        },
        {
          "internalType": "uint256",
          "name": "votesAgainst",
          "type": "uint256"
        },
        {
          "internalType": "uint256",
          "name": "stakeFor",
          "type": "uint256"
        },
        {
          "internalType": "uint256",
          "name": "stakeAgainst",
          "type": "uint256"
        },
        {
          "internalType": "bool",
          "name": "pilFiled",
          "type": "bool"
        }
      ],
      "stateMutability": "view",
      "type": "function",
      "constant": true
    },
    {
      "inputs": [
        {
          "internalType": "address",
          "name": "_contractAddress",
          "type": "address"
        }
      ],
      "name": "getClaimsForContract",
      "outputs": [
        {
          "internalType": "uint256[]",
          "name": "",
          "type": "uint256[]"
        }
      ],
      "stateMutability": "view",
      "type": "function",
      "constant": true
    },
    {
      "inputs": [],
      "name": "getAllClaims",
      "outputs": [
        {
          "internalType": "uint256[]",
          "name": "",
          "type": "uint256[]"
        }
      ],
      "stateMutability": "view",
      "type": "function",
      "constant": true
    },
    {
      "inputs": [
        {
          "internalType": "enum PublicClaims.ClaimStatus",
          "name": "_status",
          "type": "uint8"
        }
      ],
      "name": "getClaimsByStatus",
      "outputs": [
        {
          "internalType": "uint256[]",
          "name": "",
          "type": "uint256[]"
        }
      ],
      "stateMutability": "view",
      "type": "function",
      "constant": true
    },
    {
      "inputs": [
        {
          "internalType": "uint256",
          "name": "_claimId",
          "type": "uint256"
        },
        {
          "internalType": "address",
          "name": "_voter",
          "type": "address"
        }
      ],
      "name": "hasVoted",
      "outputs": [
        {
          "internalType": "bool",
          "name": "",
          "type": "bool"
        }
      ],
      "stateMutability": "view",
      "type": "function",
      "constant": true
    },
    {
      "inputs": [
        {
          "internalType": "uint256",
          "name": "_claimId",
          "type": "uint256"
        },
        {
          "internalType": "address",
          "name": "_voter",
          "type": "address"
        }
      ],
      "name": "getVote",
      "outputs": [
        {
          "internalType": "bool",
          "name": "voterHasVoted",
          "type": "bool"
        },
        {
          "internalType": "bool",
          "name": "inFavor",
          "type": "bool"
        },
        {
          "internalType": "uint256",
          "name": "stakeAmount",
          "type": "uint256"
        }
      ],
      "stateMutability": "view",
      "type": "function",
      "constant": true
    }
  ],
  "bytecode": "0x60803461007957601f61186738819003918201601f19168301916001600160401b0383118484101761007e5780849260209460405283398101031261007957516001600160a01b0381169081900361007957600380546001600160a01b03191691909117905560016000556040516117d290816100958239f35b600080fd5b634e487b7160e01b600052604160045260246000fdfe608080604052600436101561001357600080fd5b60003560e01c9081630ed6a89c146110b657508063224dcd7214610d2757806325fc3e4c14610cf05780634385963214610ca057806357ee814114610bc75780635aef244714610ab95780635b23c27d14610a325780636f3b318d146108b85780637542ff951461088f578063791309f11461079757806395beeae814610775578063a0021cf114610757578063a888c2cd1461065a578063ae6bdfb714610637578063bc3f931f146105cf578063d552f751146105b3578063d9dbbaf11461010d5763f98a4419146100e557600080fd5b34610108576000366003190112610108576020604051678ac7230489e800008152f35b600080fd5b6060366003190112610108576101216114a7565b60243567ffffffffffffffff81116101085761014190369060040161157a565b60443567ffffffffffffffff81116101085761016190369060040161157a565b916706f05b59d3b20000341061056e578151156105295760005491610185836116b1565b600055826000526001602052604060002090838255600182016bffffffffffffffffffffffff60a01b903382825416179055600283019060018060a01b0385169082541617905580519067ffffffffffffffff821161038a5781906101ed60038501546115d1565b601f81116104d6575b50602090601f83116001146104695760009261045e575b50508160011b916000199060031b1c19161760038201555b835167ffffffffffffffff811161038a5761024360048301546115d1565b601f8111610417575b50602094601f82116001146103ab579481929394956000926103a0575b50508160011b916000199060031b1c19161760048201555b4260058201556006810160ff198154169055600734910155600254600160401b81101561038a576102b981600185930160025561142c565b8154600019600392831b90811b801990921694901b169290921790555460405163cbf1d91f60e01b8152600260048201526001600160a01b0383811660248301529091602091839160449183913491165af1801561037e57610353575b5060405160209290916001600160a01b031633827fd7a766ba54c07bdb789ef60e4bac606dda7f40d415321d46a52596dddc6931d7600086a48152f35b602090813d8311610377575b6103698183611558565b810103126101085782610316565b503d61035f565b6040513d6000823e3d90fd5b634e487b7160e01b600052604160045260246000fd5b015190508580610269565b601f198216956004840160005260206000209160005b8881106103ff575083600195969798106103e6575b505050811b016004820155610281565b015160001960f88460031b161c191690558580806103d6565b919260206001819286850151815501940192016103c1565b600483016000526020600020601f830160051c810160208410610457575b601f830160051c8201811061044b57505061024c565b60008155600101610435565b5080610435565b01519050868061020d565b600385016000908152602081209350601f198516905b8181106104be57509084600195949392106104a5575b505050811b016003820155610225565b015160001960f88460031b161c19169055868080610495565b9293602060018192878601518155019501930161047f565b909150600384016000526020600020601f840160051c810160208510610522575b90849392915b601f830160051c820181106105135750506101f6565b600081558594506001016104fd565b50806104f7565b60405162461bcd60e51b815260206004820152601b60248201527f4465736372697074696f6e2063616e6e6f7420626520656d70747900000000006044820152606490fd5b60405162461bcd60e51b815260206004820152601860248201527f496e73756666696369656e7420636c61696d207374616b6500000000000000006044820152606490fd5b3461010857600036600319011261010857602060405160058152f35b34610108576040366003190112610108576105e8611491565b6004356000526001602052600d6040600020019060018060a01b0316600052602052606060406000206001815491015460ff604051928181161515845260081c16151560208301526040820152f35b346101085760003660031901126101085760206040516706f05b59d3b200008152f35b3461010857602036600319011261010857600435600052600160205260406000208054600160a01b60019003918260018201541692600282015416600382016106a29061160b565b916106af6004820161160b565b92600582015493600683015460ff166007840154600885015491600986015493600a87015495600b88015497600c015460ff16986040519c8d9c8d5260208d015260408c01526101a08060608d01528b01610709916114f8565b8a810360808c015261071a916114f8565b9760a08a015261072981611538565b60c089015260e088015261010087015261012086015261014085015261016084015215156101808301520390f35b34610108576000366003190112610108576020600054604051908152f35b3461010857600036600319011261010857602060405166b1a2bc2ec500008152f35b3461010857602080600319360112610108576004356005811015610108576002546107c181611756565b9260009260005b83811061081b5785856107da81611756565b9160005b8281106107f757604051806107f386826114bd565b0390f35b806108056108169284611788565b516108108287611788565b526116b1565b6107de565b6108248161142c565b9054600391821b1c600052600184528260ff6006604060002001541661084982611538565b61085281611538565b14610867575b50610862906116b1565b6107c8565b8195610888916108796108629461142c565b9054911b1c610810828a611788565b9490610858565b34610108576000366003190112610108576003546040516001600160a01b039091168152602090f35b346101085760403660031901126101085760043560243567ffffffffffffffff8111610108576108ec90369060040161157a565b908060005260019160209280845261090a60406000205415156116d6565b826000528084528060ff6006604060002001541661092781611538565b036109f5576000838152818552604090208101546001600160a01b031633036109b0579282937f23af0651a48674c5a9b6c9a025c9f9c18cd3b00f70236123b5994730fb9b419e93600052808252604060002090600c600683019260ff199360028582541617905501918254161790556109ab6040519282849384528301906114f8565b0390a2005b60405162461bcd60e51b815260048101859052601a60248201527f4f6e6c7920636c61696d616e742063616e2066696c652050494c0000000000006044820152606490fd5b60405162461bcd60e51b8152600481018590526015602482015274151a1c995cda1bdb19081b9bdd081c995858da1959605a1b6044820152606490fd5b3461010857600036600319011261010857604051806002549182815260208091019260026000527f405787fa12a823e0f2b7631cc41b3ba8828b3321ca811111fa75cd3aa3bb5ace916000905b828210610aa2576107f385610a9681890382611558565b604051918291826114bd565b835486529485019460019384019390910190610a7f565b3461010857602036600319011261010857600435806000526001602052610ae660406000205415156116d6565b60005260016020526020604060002060018060a01b039081600182015416916002820154169060058101549160ff60068301541660078301546008840154600985015491600a86015493610b8b600b88015496610b7d60ff600c8b01541699610b5d6004610b566003840161160b565b920161160b565b926040519e8f9e8f908152015260408d61018091829101528d01906114f8565b908b820360608d01526114f8565b9760808a0152610b9a81611538565b60a089015260c088015260e087015261010086015261012085015261014084015215156101608301520390f35b346101085760208060031936011261010857610be16114a7565b600291825490610bf082611756565b936000936001600160a01b0390811691855b858110610c40578787610c1481611756565b9160005b828110610c2d57604051806107f386826114bd565b80610805610c3b9284611788565b610c18565b610c498161142c565b9054600391821b1c60005260018652848484604060002001541614610c78575b50610c73906116b1565b610c02565b8197610c9991610c8a610c739461142c565b9054911b1c610810828c611788565b9690610c69565b3461010857604036600319011261010857610cb9611491565b6004356000526001602052600d6040600020019060018060a01b0316600052602052602060ff604060002054166040519015158152f35b346101085760203660031901126101085760043560025481101561010857610d1960209161142c565b90546040519160031b1c8152f35b3461010857610d353661140d565b9080600052600191602090838252610d5360406000205415156116d6565b8260005283825260ff93846006604060002001541690610d7282611538565b600280920361108157846000528084526040600020836000146110775760066003915b0190610da081611538565b8760ff19835416911617905582600014610f285790846000528184528160406000206000600d600e83019201925b610e08575b50505050507fb96a745cc9b77f50219b8e380073ef1912e87ae66ce099a72ce1029259093ff19293505b6040519015158152a2005b8154811015610f23579081878a86610e24600098979686611479565b919060018060a01b03809154600394851b1c168a528785528a60408b2094855460081c161515148a14610ec057602492541692015460405198899384926345f5448560e01b845260048401525af190811561037e578695610e8a92610e93575b506116b1565b90919293610dce565b610eb2908a3d8c11610eb9575b610eaa8183611558565b810190611726565b508b610e84565b503d610ea0565b60849254169201546040519889938492636800c42360e01b84526004840152604060248401526014604484015273496e636f727265637420636c61696d20766f746560601b60648401525af190811561037e578695610e8a92610e9357506116b1565b610dd3565b80918560005281855260406000206000600d600e83019201935b610f75575b50505050507fb96a745cc9b77f50219b8e380073ef1912e87ae66ce099a72ce1029259093ff1929350610dfd565b81548110156110725780878a85610f8e60009587611479565b919060018060a01b03809154600394851b1c1687528985526040872093845460081c1615871461101157602492541692015460405195869384926345f5448560e01b845260048401525af191821561037e57610fee92610ff457506116b1565b84610f42565b61100a90893d8b11610eb957610eaa8183611558565b508a610e84565b60849254169201546040519586938492636800c42360e01b84526004840152604060248401526014604484015273496e636f727265637420636c61696d20766f746560601b60648401525af191821561037e57610fee92610ff457506116b1565b610f47565b6006600491610d95565b60405162461bcd60e51b815260048101859052600d60248201526c141253081b9bdd08199a5b1959609a1b6044820152606490fd5b6110bf3661140d565b909166b1a2bc2ec5000034106113cb57508160005260019060208281526110ec60406000205415156116d6565b8360005282815260ff6006604060002001541661110881611538565b6113945783600052828152600d60406000200133600052815260ff60406000205416611360578360005282815260406000209160018060a01b0390816003541691838160028701541660446040518096819363cbf1d91f60e01b835260036004840152602483015234905af192831561037e57600093611331575b506040516080810181811067ffffffffffffffff82111761038a576040528681526002858201948415159586815260408401903482526060850192835233600052600d8a0189526040600020945115159060ff61ff0087549251151560081b1692169061ffff191617178455518984015551910155600e85018054600160401b81101561038a57611218918882018155611479565b819291549060031b91821b809233901b1691191617905560001461130b576008830161124481546116b1565b9055600a8301611255348254611719565b90555b60078301611267348254611719565b90556040519081523482820152847fcbdf6214089cba887ecbf35a0b6a734589959c9763342c756bb2a80ca2bc9f6e60403393a3600a82015490678ac7230489e80000821015806112fc575b6112b957005b6008837fca051c8a4f428f3d012fffb0663ab79d86e092f2371be6315f0aea4abffc83b5956006604096019060ff198254161790550154908351928352820152a2005b506005600884015410156112b3565b6009830161131981546116b1565b9055600b830161132a348254611719565b9055611258565b9092508381813d8311611359575b6113498183611558565b8101031261010857519187611183565b503d61133f565b6064906040519062461bcd60e51b82526004820152600d60248201526c105b1c9958591e481d9bdd1959609a1b6044820152fd5b6064906040519062461bcd60e51b82526004820152601060248201526f436c61696d206e6f742061637469766560801b6044820152fd5b62461bcd60e51b815260206004820152601760248201527f496e73756666696369656e7420766f7465207374616b650000000000000000006044820152606490fd5b6040906003190112610108576004359060243580151581036101085790565b6002548110156114635760026000527f405787fa12a823e0f2b7631cc41b3ba8828b3321ca811111fa75cd3aa3bb5ace0190600090565b634e487b7160e01b600052603260045260246000fd5b80548210156114635760005260206000200190600090565b602435906001600160a01b038216820361010857565b600435906001600160a01b038216820361010857565b6020908160408183019282815285518094520193019160005b8281106114e4575050505090565b8351855293810193928101926001016114d6565b919082519283825260005b848110611524575050826000602080949584010152601f8019910116010190565b602081830181015184830182015201611503565b6005111561154257565b634e487b7160e01b600052602160045260246000fd5b90601f8019910116810190811067ffffffffffffffff82111761038a57604052565b81601f820112156101085780359067ffffffffffffffff821161038a57604051926115af601f8401601f191660200185611558565b8284526020838301011161010857816000926020809301838601378301015290565b90600182811c92168015611601575b60208310146115eb57565b634e487b7160e01b600052602260045260246000fd5b91607f16916115e0565b906040519182600082549261161f846115d1565b90818452600194858116908160001461168e575060011461164b575b505061164992500383611558565b565b9093915060005260209081600020936000915b8183106116765750506116499350820101388061163b565b8554888401850152948501948794509183019161165e565b91505061164994506020925060ff191682840152151560051b820101388061163b565b60001981146116c05760010190565b634e487b7160e01b600052601160045260246000fd5b156116dd57565b60405162461bcd60e51b815260206004820152601460248201527310db185a5b48191bd95cc81b9bdd08195e1a5cdd60621b6044820152606490fd5b919082018092116116c057565b90816020910312610108575180151581036101085790565b67ffffffffffffffff811161038a5760051b60200190565b906117608261173e565b61176d6040519182611558565b828152809261177e601f199161173e565b0190602036910137565b80518210156114635760209160051b01019056fea2646970667358221220f269799eaa329473ecb8eef3b5d46303e743b2aec22c7e781042ad1baf92a9d064736f6c63430008100033",
  "immutableReferences": {},
  "source": "// SPDX-License-Identifier: GPL-3.0\npragma solidity ^0.8.0;\npragma experimental ABIEncoderV2;\n\nimport \"./StakeManager.sol\";\n\ncontract PublicClaims {\n    \n    struct Claim {\n        uint256 claimId;\n        address claimant;\n        address targetContract;\n        string description;\n        string evidence; // IPFS hash of evidence documents\n        uint256 timestamp;\n        ClaimStatus status;\n        uint256 totalStakeAmount;\n        uint256 votesFor;\n        uint256 votesAgainst;\n        uint256 stakeFor;\n        uint256 stakeAgainst;\n        bool pilFiled;\n        mapping(address => Vote) votes;\n        address[] voters;\n    }\n    \n    struct Vote {\n        bool hasVoted;\n        bool inFavor;\n        uint256 stakeAmount;\n        uint256 stakeId;\n    }\n    \n    enum ClaimStatus {\n        ACTIVE,\n        THRESHOLD_REACHED,\n        PIL_FILED,\n        RESOLVED,\n        REJECTED\n    }\n    \n    // Contract state\n    uint256 public nextClaimId;\n    mapping(uint256 => Claim) public claims;\n    uint256[] public allClaimIds;\n    \n    // Thresholds\n    uint256 public constant MIN_CLAIM_STAKE = 0.5 ether;\n    uint256 public constant MIN_VOTE_STAKE = 0.05 ether;\n    uint256 public constant PIL_THRESHOLD_STAKE = 10 ether; // 10 ETH worth of support needed\n    uint256 public constant MIN_VOTES_FOR_PIL = 5; // At least 5 votes in favor\n    \n    StakeManager public stakeManager;\n    \n    // Events\n    event ClaimCreated(uint256 indexed claimId, address indexed claimant, address indexed targetContract);\n    event VoteCast(uint256 indexed claimId, address indexed voter, bool inFavor, uint256 stakeAmount);\n    event PILThresholdReached(uint256 indexed claimId, uint256 totalStake, uint256 votesFor);\n    event PILFiled(uint256 indexed claimId, string pilReference);\n    event ClaimResolved(uint256 indexed claimId, bool upheld);\n    \n    constructor(address _stakeManagerAddress) {\n        stakeManager = StakeManager(_stakeManagerAddress);\n        nextClaimId = 1;\n    }\n    \n    function createClaim(\n        address _targetContract,\n        string memory _description,\n        string memory _evidence\n    ) external payable returns (uint256) {\n        require(msg.value >= MIN_CLAIM_STAKE, \"Insufficient claim stake\");\n        require(bytes(_description).length > 0, \"Description cannot be empty\");\n        \n        uint256 claimId = nextClaimId++;\n        Claim storage newClaim = claims[claimId];\n        \n        newClaim.claimId = claimId;\n        newClaim.claimant = msg.sender;\n        newClaim.targetContract = _targetContract;\n        newClaim.description = _description;\n        newClaim.evidence = _evidence;\n        newClaim.timestamp = block.timestamp;\n        newClaim.status = ClaimStatus.ACTIVE;\n        newClaim.totalStakeAmount = msg.value;\n        \n        allClaimIds.push(claimId);\n        \n        // Create stake for the claim\n        uint256 stakeId = stakeManager.createStake{value: msg.value}(\n            StakeManager.StakeType.PUBLIC_CLAIM,\n            _targetContract\n        );\n        \n        emit ClaimCreated(claimId, msg.sender, _targetContract);\n        return claimId;\n    }\n    \n    function voteOnClaim(uint256 _claimId, bool _inFavor) external payable {\n        require(msg.value >= MIN_VOTE_STAKE, \"Insufficient vote stake\");\n        require(claims[_claimId].claimId != 0, \"Claim does not exist\");\n        require(claims[_claimId].status == ClaimStatus.ACTIVE, \"Claim not active\");\n        require(!claims[_claimId].votes[msg.sender].hasVoted, \"Already voted\");\n        \n        Claim storage claim = claims[_claimId];\n        \n        // Create stake for the vote\n        uint256 stakeId = stakeManager.createStake{value: msg.value}(\n            StakeManager.StakeType.VOTE_ON_CLAIM,\n            claim.targetContract\n        );\n        \n        // Record the vote\n        claim.votes[msg.sender] = Vote({\n            hasVoted: true,\n            inFavor: _inFavor,\n            stakeAmount: msg.value,\n            stakeId: stakeId\n        });\n        \n        claim.voters.push(msg.sender);\n        \n        if (_inFavor) {\n            claim.votesFor++;\n            claim.stakeFor += msg.value;\n        } else {\n            claim.votesAgainst++;\n            claim.stakeAgainst += msg.value;\n        }\n        \n        claim.totalStakeAmount += msg.value;\n        \n        emit VoteCast(_claimId, msg.sender, _inFavor, msg.value);\n        \n        // Check if PIL threshold is reached\n        if (claim.stakeFor >= PIL_THRESHOLD_STAKE && claim.votesFor >= MIN_VOTES_FOR_PIL) {\n            claim.status = ClaimStatus.THRESHOLD_REACHED;\n            emit PILThresholdReached(_claimId, claim.stakeFor, claim.votesFor);\n        }\n    }\n    \n    function filePIL(uint256 _claimId, string memory _pilReference) external {\n        require(claims[_claimId].claimId != 0, \"Claim does not exist\");\n        require(claims[_claimId].status == ClaimStatus.THRESHOLD_REACHED, \"Threshold not reached\");\n        require(msg.sender == claims[_claimId].claimant, \"Only claimant can file PIL\");\n        \n        Claim storage claim = claims[_claimId];\n        claim.status = ClaimStatus.PIL_FILED;\n        claim.pilFiled = true;\n        \n        emit PILFiled(_claimId, _pilReference);\n    }\n    \n    function resolveClaim(uint256 _claimId, bool _upheld) external {\n        require(claims[_claimId].claimId != 0, \"Claim does not exist\");\n        require(claims[_claimId].status == ClaimStatus.PIL_FILED, \"PIL not filed\");\n        // Note: In practice, this should be called by an authorized authority after investigation\n        \n        Claim storage claim = claims[_claimId];\n        claim.status = _upheld ? ClaimStatus.RESOLVED : ClaimStatus.REJECTED;\n        \n        // Handle stakes based on resolution\n        if (_upheld) {\n            // Claim was upheld - voters in favor get rewards, against get slashed\n            _handleStakeResolution(_claimId, true);\n        } else {\n            // Claim was rejected - voters against get rewards, in favor get slashed\n            _handleStakeResolution(_claimId, false);\n        }\n        \n        emit ClaimResolved(_claimId, _upheld);\n    }\n    \n    function _handleStakeResolution(uint256 _claimId, bool _claimUpheld) internal {\n        Claim storage claim = claims[_claimId];\n        \n        for (uint i = 0; i < claim.voters.length; i++) {\n            address voter = claim.voters[i];\n            Vote storage vote = claim.votes[voter];\n            \n            bool voterWasCorrect = (vote.inFavor == _claimUpheld);\n            \n            if (voterWasCorrect) {\n                // Release stake for correct voters\n                stakeManager.releaseStake(vote.stakeId);\n            } else {\n                // Slash stake for incorrect voters\n                stakeManager.slashStake(vote.stakeId, \"Incorrect claim vote\");\n            }\n        }\n    }\n    \n    function getClaim(uint256 _claimId) external view returns (\n        address claimant,\n        address targetContract,\n        string memory description,\n        string memory evidence,\n        uint256 timestamp,\n        ClaimStatus status,\n        uint256 totalStakeAmount,\n        uint256 votesFor,\n        uint256 votesAgainst,\n        uint256 stakeFor,\n        uint256 stakeAgainst,\n        bool pilFiled\n    ) {\n        require(claims[_claimId].claimId != 0, \"Claim does not exist\");\n        \n        Claim storage claim = claims[_claimId];\n        return (\n            claim.claimant,\n            claim.targetContract,\n            claim.description,\n            claim.evidence,\n            claim.timestamp,\n            claim.status,\n            claim.totalStakeAmount,\n            claim.votesFor,\n            claim.votesAgainst,\n            claim.stakeFor,\n            claim.stakeAgainst,\n            claim.pilFiled\n        );\n    }\n    \n    function getClaimsForContract(address _contractAddress) external view returns (uint256[] memory) {\n        uint256[] memory contractClaims = new uint256[](allClaimIds.length);\n        uint256 count = 0;\n        \n        for (uint i = 0; i < allClaimIds.length; i++) {\n            if (claims[allClaimIds[i]].targetContract == _contractAddress) {\n                contractClaims[count] = allClaimIds[i];\n                count++;\n            }\n        }\n        \n        // Resize array to actual count\n        uint256[] memory result = new uint256[](count);\n        for (uint i = 0; i < count; i++) {\n            result[i] = contractClaims[i];\n        }\n        \n        return result;\n    }\n    \n    function getAllClaims() external view returns (uint256[] memory) {\n        return allClaimIds;\n    }\n    \n    function getClaimsByStatus(ClaimStatus _status) external view returns (uint256[] memory) {\n        uint256[] memory statusClaims = new uint256[](allClaimIds.length);\n        uint256 count = 0;\n        \n        for (uint i = 0; i < allClaimIds.length; i++) {\n            if (claims[allClaimIds[i]].status == _status) {\n                statusClaims[count] = allClaimIds[i];\n                count++;\n            }\n        }\n        \n        // Resize array to actual count\n        uint256[] memory result = new uint256[](count);\n        for (uint i = 0; i < count; i++) {\n            result[i] = statusClaims[i];\n        }\n        \n        return result;\n    }\n    \n    function hasVoted(uint256 _claimId, address _voter) external view returns (bool) {\n        return claims[_claimId].votes[_voter].hasVoted;\n    }\n    \n    function getVote(uint256 _claimId, address _voter) external view returns (bool voterHasVoted, bool inFavor, uint256 stakeAmount) {\n        Vote storage vote = claims[_claimId].votes[_voter];\n        return (vote.hasVoted, vote.inFavor, vote.stakeAmount);\n    }\n}\n",
  "sourcePath": "/home/aniketdatar/Desktop/Other/tendersystem-blockchain/contracts/PublicClaims.sol",
  "compiler": {
    "name": "solc",
    "version": "0.8.16+commit.07a7930e.Emscripten.clang"
  },
  "schemaVersion": "3.4.9",
  "updatedAt": "2025-08-19T10:17:23.636Z",
  "networkType": "ethereum",
  "devdoc": {
    "kind": "dev",
    "methods": {},
    "version": 1
  },
  "userdoc": {
    "kind": "user",
    "methods": {},
    "version": 1
  }
}