{
  "contractName": "PublicDashboard",
  "abi": [
    {
      "inputs": [
        {
          "internalType": "address",
          "name": "_publicClaimsAddress",
          "type": "address"
        }
      ],
      "stateMutability": "nonpayable",
      "type": "constructor"
    },
    {
      "anonymous": false,
      "inputs": [
        {
          "indexed": true,
          "internalType": "address",
          "name": "contractAddress",
          "type": "address"
        },
        {
          "indexed": false,
          "internalType": "string",
          "name": "contractName",
          "type": "string"
        },
        {
          "indexed": true,
          "internalType": "address",
          "name": "contractor",
          "type": "address"
        }
      ],
      "name": "ContractAdded",
      "type": "event"
    },
    {
      "anonymous": false,
      "inputs": [
        {
          "indexed": true,
          "internalType": "address",
          "name": "contractAddress",
          "type": "address"
        },
        {
          "indexed": false,
          "internalType": "enum PublicDashboard.ContractStatus",
          "name": "newStatus",
          "type": "uint8"
        }
      ],
      "name": "ContractStatusUpdated",
      "type": "event"
    },
    {
      "anonymous": false,
      "inputs": [
        {
          "indexed": true,
          "internalType": "uint256",
          "name": "postId",
          "type": "uint256"
        },
        {
          "indexed": true,
          "internalType": "address",
          "name": "author",
          "type": "address"
        },
        {
          "indexed": true,
          "internalType": "address",
          "name": "targetContract",
          "type": "address"
        }
      ],
      "name": "ForumPostCreated",
      "type": "event"
    },
    {
      "anonymous": false,
      "inputs": [
        {
          "indexed": true,
          "internalType": "uint256",
          "name": "postId",
          "type": "uint256"
        },
        {
          "indexed": true,
          "internalType": "uint256",
          "name": "replyId",
          "type": "uint256"
        },
        {
          "indexed": true,
          "internalType": "address",
          "name": "author",
          "type": "address"
        }
      ],
      "name": "ReplyAdded",
      "type": "event"
    },
    {
      "inputs": [],
      "name": "admin",
      "outputs": [
        {
          "internalType": "address",
          "name": "",
          "type": "address"
        }
      ],
      "stateMutability": "view",
      "type": "function",
      "constant": true
    },
    {
      "inputs": [
        {
          "internalType": "uint256",
          "name": "",
          "type": "uint256"
        }
      ],
      "name": "allContracts",
      "outputs": [
        {
          "internalType": "address",
          "name": "",
          "type": "address"
        }
      ],
      "stateMutability": "view",
      "type": "function",
      "constant": true
    },
    {
      "inputs": [
        {
          "internalType": "uint256",
          "name": "",
          "type": "uint256"
        }
      ],
      "name": "allPostIds",
      "outputs": [
        {
          "internalType": "uint256",
          "name": "",
          "type": "uint256"
        }
      ],
      "stateMutability": "view",
      "type": "function",
      "constant": true
    },
    {
      "inputs": [
        {
          "internalType": "address",
          "name": "",
          "type": "address"
        }
      ],
      "name": "contractInfos",
      "outputs": [
        {
          "internalType": "address",
          "name": "contractAddress",
          "type": "address"
        },
        {
          "internalType": "string",
          "name": "contractName",
          "type": "string"
        },
        {
          "internalType": "address",
          "name": "governmentOfficer",
          "type": "address"
        },
        {
          "internalType": "address",
          "name": "contractor",
          "type": "address"
        },
        {
          "internalType": "string",
          "name": "tenderId",
          "type": "string"
        },
        {
          "internalType": "uint256",
          "name": "creationDate",
          "type": "uint256"
        },
        {
          "internalType": "uint256",
          "name": "completionDate",
          "type": "uint256"
        },
        {
          "internalType": "uint256",
          "name": "totalAmount",
          "type": "uint256"
        },
        {
          "internalType": "enum PublicDashboard.ContractStatus",
          "name": "status",
          "type": "uint8"
        }
      ],
      "stateMutability": "view",
      "type": "function",
      "constant": true
    },
    {
      "inputs": [
        {
          "internalType": "address",
          "name": "",
          "type": "address"
        },
        {
          "internalType": "uint256",
          "name": "",
          "type": "uint256"
        }
      ],
      "name": "contractPosts",
      "outputs": [
        {
          "internalType": "uint256",
          "name": "",
          "type": "uint256"
        }
      ],
      "stateMutability": "view",
      "type": "function",
      "constant": true
    },
    {
      "inputs": [
        {
          "internalType": "uint256",
          "name": "",
          "type": "uint256"
        }
      ],
      "name": "forumPosts",
      "outputs": [
        {
          "internalType": "uint256",
          "name": "postId",
          "type": "uint256"
        },
        {
          "internalType": "address",
          "name": "author",
          "type": "address"
        },
        {
          "internalType": "string",
          "name": "content",
          "type": "string"
        },
        {
          "internalType": "uint256",
          "name": "timestamp",
          "type": "uint256"
        },
        {
          "internalType": "address",
          "name": "targetContract",
          "type": "address"
        },
        {
          "internalType": "bool",
          "name": "isReply",
          "type": "bool"
        },
        {
          "internalType": "uint256",
          "name": "parentPostId",
          "type": "uint256"
        }
      ],
      "stateMutability": "view",
      "type": "function",
      "constant": true
    },
    {
      "inputs": [
        {
          "internalType": "address",
          "name": "",
          "type": "address"
        }
      ],
      "name": "isAuthorizedUpdater",
      "outputs": [
        {
          "internalType": "bool",
          "name": "",
          "type": "bool"
        }
      ],
      "stateMutability": "view",
      "type": "function",
      "constant": true
    },
    {
      "inputs": [],
      "name": "nextPostId",
      "outputs": [
        {
          "internalType": "uint256",
          "name": "",
          "type": "uint256"
        }
      ],
      "stateMutability": "view",
      "type": "function",
      "constant": true
    },
    {
      "inputs": [],
      "name": "publicClaims",
      "outputs": [
        {
          "internalType": "contract PublicClaims",
          "name": "",
          "type": "address"
        }
      ],
      "stateMutability": "view",
      "type": "function",
      "constant": true
    },
    {
      "inputs": [
        {
          "internalType": "address",
          "name": "_updater",
          "type": "address"
        }
      ],
      "name": "addAuthorizedUpdater",
      "outputs": [],
      "stateMutability": "nonpayable",
      "type": "function"
    },
    {
      "inputs": [
        {
          "internalType": "address",
          "name": "_updater",
          "type": "address"
        }
      ],
      "name": "removeAuthorizedUpdater",
      "outputs": [],
      "stateMutability": "nonpayable",
      "type": "function"
    },
    {
      "inputs": [
        {
          "internalType": "address",
          "name": "_contractAddress",
          "type": "address"
        },
        {
          "internalType": "string",
          "name": "_contractName",
          "type": "string"
        },
        {
          "internalType": "address",
          "name": "_governmentOfficer",
          "type": "address"
        },
        {
          "internalType": "address",
          "name": "_contractor",
          "type": "address"
        },
        {
          "internalType": "string",
          "name": "_tenderId",
          "type": "string"
        },
        {
          "internalType": "uint256",
          "name": "_completionDate",
          "type": "uint256"
        },
        {
          "internalType": "uint256",
          "name": "_totalAmount",
          "type": "uint256"
        }
      ],
      "name": "addContract",
      "outputs": [],
      "stateMutability": "nonpayable",
      "type": "function"
    },
    {
      "inputs": [
        {
          "internalType": "address",
          "name": "_contractAddress",
          "type": "address"
        },
        {
          "internalType": "enum PublicDashboard.ContractStatus",
          "name": "_newStatus",
          "type": "uint8"
        }
      ],
      "name": "updateContractStatus",
      "outputs": [],
      "stateMutability": "nonpayable",
      "type": "function"
    },
    {
      "inputs": [
        {
          "internalType": "address",
          "name": "_contractAddress",
          "type": "address"
        }
      ],
      "name": "getContractInfo",
      "outputs": [
        {
          "internalType": "string",
          "name": "contractName",
          "type": "string"
        },
        {
          "internalType": "address",
          "name": "governmentOfficer",
          "type": "address"
        },
        {
          "internalType": "address",
          "name": "contractor",
          "type": "address"
        },
        {
          "internalType": "string",
          "name": "tenderId",
          "type": "string"
        },
        {
          "internalType": "uint256",
          "name": "creationDate",
          "type": "uint256"
        },
        {
          "internalType": "uint256",
          "name": "completionDate",
          "type": "uint256"
        },
        {
          "internalType": "uint256",
          "name": "totalAmount",
          "type": "uint256"
        },
        {
          "internalType": "enum PublicDashboard.ContractStatus",
          "name": "status",
          "type": "uint8"
        }
      ],
      "stateMutability": "view",
      "type": "function",
      "constant": true
    },
    {
      "inputs": [],
      "name": "getAllContracts",
      "outputs": [
        {
          "internalType": "address[]",
          "name": "",
          "type": "address[]"
        }
      ],
      "stateMutability": "view",
      "type": "function",
      "constant": true
    },
    {
      "inputs": [
        {
          "internalType": "enum PublicDashboard.ContractStatus",
          "name": "_status",
          "type": "uint8"
        }
      ],
      "name": "getContractsByStatus",
      "outputs": [
        {
          "internalType": "address[]",
          "name": "",
          "type": "address[]"
        }
      ],
      "stateMutability": "view",
      "type": "function",
      "constant": true
    },
    {
      "inputs": [
        {
          "internalType": "address",
          "name": "_targetContract",
          "type": "address"
        },
        {
          "internalType": "string",
          "name": "_content",
          "type": "string"
        }
      ],
      "name": "createForumPost",
      "outputs": [
        {
          "internalType": "uint256",
          "name": "",
          "type": "uint256"
        }
      ],
      "stateMutability": "nonpayable",
      "type": "function"
    },
    {
      "inputs": [
        {
          "internalType": "uint256",
          "name": "_parentPostId",
          "type": "uint256"
        },
        {
          "internalType": "string",
          "name": "_content",
          "type": "string"
        }
      ],
      "name": "replyToPost",
      "outputs": [
        {
          "internalType": "uint256",
          "name": "",
          "type": "uint256"
        }
      ],
      "stateMutability": "nonpayable",
      "type": "function"
    },
    {
      "inputs": [
        {
          "internalType": "uint256",
          "name": "_postId",
          "type": "uint256"
        }
      ],
      "name": "getForumPost",
      "outputs": [
        {
          "internalType": "address",
          "name": "author",
          "type": "address"
        },
        {
          "internalType": "string",
          "name": "content",
          "type": "string"
        },
        {
          "internalType": "uint256",
          "name": "timestamp",
          "type": "uint256"
        },
        {
          "internalType": "address",
          "name": "targetContract",
          "type": "address"
        },
        {
          "internalType": "uint256[]",
          "name": "replies",
          "type": "uint256[]"
        },
        {
          "internalType": "bool",
          "name": "isReply",
          "type": "bool"
        },
        {
          "internalType": "uint256",
          "name": "parentPostId",
          "type": "uint256"
        }
      ],
      "stateMutability": "view",
      "type": "function",
      "constant": true
    },
    {
      "inputs": [
        {
          "internalType": "address",
          "name": "_contractAddress",
          "type": "address"
        }
      ],
      "name": "getContractPosts",
      "outputs": [
        {
          "internalType": "uint256[]",
          "name": "",
          "type": "uint256[]"
        }
      ],
      "stateMutability": "view",
      "type": "function",
      "constant": true
    },
    {
      "inputs": [],
      "name": "getAllPosts",
      "outputs": [
        {
          "internalType": "uint256[]",
          "name": "",
          "type": "uint256[]"
        }
      ],
      "stateMutability": "view",
      "type": "function",
      "constant": true
    },
    {
      "inputs": [
        {
          "internalType": "address",
          "name": "_contractAddress",
          "type": "address"
        }
      ],
      "name": "getContractMilestoneProgress",
      "outputs": [
        {
          "internalType": "uint256[]",
          "name": "taskIndices",
          "type": "uint256[]"
        },
        {
          "internalType": "string[]",
          "name": "taskDescriptions",
          "type": "string[]"
        },
        {
          "internalType": "uint256[]",
          "name": "taskAmounts",
          "type": "uint256[]"
        },
        {
          "internalType": "uint8[]",
          "name": "taskStatuses",
          "type": "uint8[]"
        }
      ],
      "stateMutability": "view",
      "type": "function",
      "constant": true
    },
    {
      "inputs": [
        {
          "internalType": "address",
          "name": "_contractAddress",
          "type": "address"
        }
      ],
      "name": "getContractClaims",
      "outputs": [
        {
          "internalType": "uint256[]",
          "name": "",
          "type": "uint256[]"
        }
      ],
      "stateMutability": "view",
      "type": "function",
      "constant": true
    },
    {
      "inputs": [],
      "name": "getTotalContracts",
      "outputs": [
        {
          "internalType": "uint256",
          "name": "",
          "type": "uint256"
        }
      ],
      "stateMutability": "view",
      "type": "function",
      "constant": true
    },
    {
      "inputs": [],
      "name": "getActiveContractsCount",
      "outputs": [
        {
          "internalType": "uint256",
          "name": "",
          "type": "uint256"
        }
      ],
      "stateMutability": "view",
      "type": "function",
      "constant": true
    },
    {
      "inputs": [],
      "name": "getCompletedContractsCount",
      "outputs": [
        {
          "internalType": "uint256",
          "name": "",
          "type": "uint256"
        }
      ],
      "stateMutability": "view",
      "type": "function",
      "constant": true
    },
    {
      "inputs": [],
      "name": "getTotalContractValue",
      "outputs": [
        {
          "internalType": "uint256",
          "name": "",
          "type": "uint256"
        }
      ],
      "stateMutability": "view",
      "type": "function",
      "constant": true
    },
    {
      "inputs": [
        {
          "internalType": "address",
          "name": "_contractor",
          "type": "address"
        }
      ],
      "name": "getContractsByContractor",
      "outputs": [
        {
          "internalType": "address[]",
          "name": "",
          "type": "address[]"
        }
      ],
      "stateMutability": "view",
      "type": "function",
      "constant": true
    }
  ],
  "bytecode": "0x60803461009857601f6122b938819003918201601f19168301916001600160401b0383118484101761009d5780849260209460405283398101031261009857516001600160a01b038116908190036100985760018060a01b0319338160075416176007553360005260066020526040600020600160ff198254161790556008541617600855600160025560405161220590816100b48239f35b600080fd5b634e487b7160e01b600052604160045260246000fdfe6080604052600436101561001257600080fd5b60e0600035811c9081630e47dbd914611bb357816317f581c614611ad757816318d3ce9614611a48578163224cafff146119f05781632e31e129146118e8578163305611001461185c578163417d5fd7146117d85781634b78e666146116d8578163534860cc146116ba5781635722e1cb146116915781635c09bd9814611673578163603cda0914611627578163683e64781461153257816384fddc4c146114655781638c9b9fdc146114165781639c477742146113c85781639d07fcac146110d4578163b63a323314611083578163b68b0b9a14610bbe578163b865bccc14610b7f578163cd481e5114610aa2578163d080cc0314610a01578163d317a22c146106cd578163d7ee6f431461032a578163e54e26b9146102e8578163eb0bb53114610216578163efae6c0514610181575063f851a4401461015357600080fd5b3461017c57600036600319011261017c576007546040516001600160a01b039091168152602090f35b600080fd5b3461017c57602036600319011261017c57600435600052600360205260406000209081549060018060a01b039081600185015416936101c260028201611e78565b6101fb60038301549460048401541691600760ff6006860154169401549460405198899889526020890152806040890152870190611d52565b9360608601526080850152151560a084015260c08301520390f35b3461017c57602036600319011261017c576001600160a01b039081610239611c3c565b1660005260006020526040600020916102e4818454169261025c60018601611e78565b9483600282015416936003820154169161027860048301611e78565b6102cb60058401549660068501549260ff6008600788015497015416966102b36040519c8d9c8d5260208d61012091829101528d0190611d52565b9260408c015260608b015289820360808b0152611d52565b9560a088015260c0870152850152610100840190611e31565b0390f35b3461017c57602036600319011261017c5760043560015481101561017c57610311602091611c96565b905460405160039290921b1c6001600160a01b03168152f35b3461017c57604036600319011261017c576024356001600160401b03811161017c5761035a903690600401611dea565b906004356000526003602052604060002054156106905761037d82511515612070565b6002549061038a8261204d565b600255600435600052600360205260406000209060018060a01b0360048301541690604051946103b986611d93565b60008652604051956103ca87611d77565b858752602087019333855260408801928352426060890152608088015260a0870152600160c08701526004358287015284600052600360205260406000209286518455600184019060018060a01b039051166001600160601b0360a01b8254161790555180516001600160401b0381116105cc5780600285019261044e8454611e3e565b601f8111610653575b50602090601f83116001146105ed576000926105e2575b50508160011b916000199060031b1c19161790555b606085015160038301556004820160018060a01b036080870151166001600160601b0360a01b82541617905560a0850151948551956001600160401b0387116105cc57600160401b87116105cc5760209060058501548860058701558089106105ac575b5001956005840160005260206000209660005b8281106105985760208888886007898961052960c08201511515600686019060ff801983541691151516179055565b015191015561053b8260058301612104565b600460018060a01b03910154166000526004825261055d816040600020612104565b610566816120bc565b6040519033816004357f49d92a6e2e1f82a271dbb7f86586e8ec869c9fe7b6a5abce8bdf4ca51900fde1600086a48152f35b60019060208351930192818b0155016104fa565b6105c6906005870160005289846000209182019101611f94565b886104e7565b634e487b7160e01b600052604160045260246000fd5b01519050888061046e565b6000858152602081209350601f198516905b81811061063b5750908460019594939210610622575b505050811b019055610483565b015160001960f88460031b161c19169055888080610615565b929360206001819287860151815501950193016105ff565b61068090856000526020600020601f850160051c81019160208610610686575b601f0160051c0190611f94565b89610457565b9091508190610673565b60405162461bcd60e51b815260206004820152601560248201527414185c995b9d081c1bdcdd081b9bdd08199bdd5b99605a1b6044820152606490fd5b3461017c57604036600319011261017c576106e6611c3c565b6024356001600160401b03811161017c57610705903690600401611dea565b6001600160a01b0382811660009081526020819052604090205491939161072e91161515611fc3565b61073a83511515612070565b600254906107478261204d565b6002556040519061075782611d93565b600082526040519461076886611d77565b83865260208601923384526040870191825242606088015260018060a01b038616608088015260a0870152600060c087015260008287015283600052600360205260406000209286518455600184019060018060a01b039051166001600160601b0360a01b8254161790555180516001600160401b0381116105cc578060028501926107f48454611e3e565b601f81116109cf575b50602090601f83116001146109695760009261095e575b50508160011b916000199060031b1c19161790555b606085015160038301556004820160018060a01b036080870151166001600160601b0360a01b825416179055600582019460a08101518051906001600160401b0382116105cc57600160401b82116105cc576020908854838a55808410610941575b50019660005260206000209660005b82811061092d576020888888600789896108c960c08201511515600686019060ff801983541691151516179055565b015191015560018060a01b038216600052600483526108ec816040600020612104565b6108f5816120bc565b604051916001600160a01b031633827fcef2ee243f7143e28ecaba677c1f9be7bc19d5c5d97db993896a8f42c4a212be600086a48152f35b60019060208351930192818b01550161089a565b610958908a60005284846000209182019101611f94565b8961088b565b015190508880610814565b6000858152602081209350601f198516905b8181106109b7575090846001959493921061099e575b505050811b019055610829565b015160001960f88460031b161c19169055888080610991565b9293602060018192878601518155019501930161097b565b6109fb90856000526020600020601f850160051c8101916020861061068657601f0160051c0190611f94565b896107fd565b3461017c57600036600319011261017c5760018054600090815b818110610a2d57602083604051908152f35b610a3681611c96565b60018060a01b0391549060031b1c16600052600060205260ff600860406000200154166004811015610a8c578414610a77575b610a729061204d565b610a1b565b91610a84610a729161204d565b929050610a69565b634e487b7160e01b600052602160045260246000fd5b3461017c57602036600319011261017c57610b4f906001600160a01b0380610ac8611c3c565b16806000526000602052610ae482604060002054161515611fc3565b60005260006020526102e46040600020928260028501541692600385015416906005850154936006860154610b6760078801549260ff60088a01541695610b396004610b3260018d01611e78565b9b01611e78565b906040519b8c9b8c6101008091528d0190611d52565b9260208c015260408b015289820360608b0152611d52565b95608088015260a087015260c0860152840190611e31565b3461017c57602036600319011261017c576001600160a01b03610ba0611c3c565b166000526006602052602060ff604060002054166040519015158152f35b3461017c578060031936011261017c57610bd6611c3c565b906024356001600160401b03811161017c57610bf6903690600401611dea565b906044356001600160a01b0381169081900361017c57606435916001600160a01b038316830361017c576084356001600160401b03811161017c57610c3f903690600401611dea565b9033600052600660205260ff60406000205416801561106f575b610c6290611f57565b6001600160a01b038681166000908152602081905260409020541661102a576040519161012083018381106001600160401b038211176105cc5760409081526001600160a01b0388811680865260208087018a815287850198909852888316606088015260808701949094524260a087015260a43560c087015260c4358587015260006101008701819052908152928390529120835181546001600160a01b031916921691909117815592518051906001600160401b0382116105cc578190610d2e6001870154611e3e565b601f8111610ff5575b50602090601f8311600114610f8357600092610f78575b50508160011b916000199060031b1c19161760018401555b60408201516002840180546001600160a01b039283166001600160a01b031991821617909155606084015160038601805491909316911617905560808201518051906001600160401b0382116105cc57610dc36004860154611e3e565b601f8111610f43575b50602090601f8311600114610ece576101009493929160009183610ec3575b50508160011b916000199060031b1c19161760048501555b60a0820151600585015560c08201516006850155810151600784015501516004811015610a8c576008610e369201611fab565b600154600160401b8110156105cc577f231f719ea1ea00dbd82112a54fa8f87313b76fb17e7e23369e7a39b36c81d23c91610e7a826001610ebe9401600155611c96565b81546001600160a01b0397881660039290921b82811b9089901b90811690199091161790915560405160208082529290961695909490928392909190830190611d52565b0390a3005b015190508980610deb565b906004860160005260206000209160005b601f1985168110610f2b5750918391600193610100979695601f19811610610f12575b505050811b016004850155610e03565b015160001960f88460031b161c19169055898080610f02565b91926020600181928685015181550194019201610edf565b610f7290600487016000526020600020601f850160051c8101916020861061068657601f0160051c0190611f94565b88610dcc565b015190508880610d4e565b9250600186016000526020600020906000935b601f1984168510610fda576001945083601f19811610610fc1575b505050811b016001840155610d66565b015160001960f88460031b161c19169055888080610fb1565b81810151835560209485019460019093019290910190610f96565b61102490600188016000526020600020601f850160051c8101916020861061068657601f0160051c0190611f94565b89610d37565b60405162461bcd60e51b815260206004820152601760248201527f436f6e747261637420616c7265616479206578697374730000000000000000006044820152606490fd5b506007546001600160a01b03163314610c59565b3461017c57602036600319011261017c5760043560055481101561017c5760209060056000527f036b6384b5eca791c62761152d0c79bb0604c104a5fb6f4eb0703f3154bb3db00154604051908152f35b3461017c5760208060031936011261017c576001600160a01b036110f6611c3c565b1660405163f6397fd360e01b81528281600481855afa9081156113805760009161139b575b5091906111278361201b565b9161113184612004565b61113e6040519182611dae565b848152601f198061114e87612004565b0160005b81811061138c5750506111648661201b565b9061116e87612004565b9661117c6040519889611dae565b80885261118881612004565b9582868a01970136883760005b82811061126d57505050906111ba969291604051978897608089526080890190611cfb565b8781038689015283519081815286810187808460051b8401019601936000925b84841061123757505050505050816111fa91878694036040890152611cfb565b918583036060870152519182815201929160005b82811061121d57505050500390f35b835160ff168552869550938101939281019260010161120e565b91939596819395989a9b508961125882600194868495030188528b51611d52565b990194019401918b9a999796959394916111da565b604051630eb2f3bf60e11b8152600481018290529899979890600082602481865afa9182156113805760008c6000926000956112fd575b506112b084809261205c565b526112bb838a61205c565b526112c6828961205c565b506112d1828861205c565b526007821015610a8c576112f49160ff6112eb838c61205c565b9116905261204d565b98979698611195565b94505050503d806000843e6113128184611dae565b82016101008382031261017c578251906001600160401b039182811161017c578161133e91860161218a565b93604081015191606082015193600785101561017c5760a083015190811161017c578f966113746112b09388959386940161218a565b509394969250506112a4565b6040513d6000823e3d90fd5b60608482018601528401611152565b90508281813d83116113c1575b6113b28183611dae565b8101031261017c57518361111b565b503d6113a8565b3461017c57602036600319011261017c576001600160a01b036113e9611c3c565b1660005260046020526102e4611402604060002061213b565b604051918291602083526020830190611cfb565b3461017c57602036600319011261017c5761142f611c3c565b6007546001600160a01b0391906114499083163314611f1e565b166000908152600660205260409020805460ff19166001179055005b3461017c57604036600319011261017c5761147e611c3c565b602435600481101561017c5760207fb1fa99a7c187227f82bca40ab9076f6f7f1b312a7a74fce350d89cc90322004391336000526006825260ff60406000205416801561151e575b6114cf90611f57565b6001600160a01b039384166000818152808452604090205490946114f591161515611fc3565b836000526000825261150e816008604060002001611fab565b61151b6040518092611e31565ba2005b506007546001600160a01b031633146114c6565b3461017c57602036600319011261017c57600435806000526003602052604060002054156115f1576000526003602052604060002060018060a01b039081600182015416916115e06003830154916004840154169160ff600685015416936007810154936115c86115b160056115aa60028601611e78565b940161213b565b92604051998a998a528060208b0152890190611d52565b92604088015260608701528582036080870152611cfb565b91151560a084015260c08301520390f35b60405162461bcd60e51b815260206004820152600e60248201526d141bdcdd081b9bdd08199bdd5b9960921b6044820152606490fd5b3461017c57602036600319011261017c57611640611c3c565b6007546001600160a01b03919061165a9083163314611f1e565b166000908152600660205260409020805460ff19169055005b3461017c57600036600319011261017c576020600254604051908152f35b3461017c57600036600319011261017c576008546040516001600160a01b039091168152602090f35b3461017c57600036600319011261017c576020600154604051908152f35b3461017c5760208060031936011261017c576116f2611c3c565b6008546040516357ee814160e01b81526001600160a01b039283166004820152929160009184916024918391165afa91821561138057600092611745575b506102e4604051928284938452830190611cfb565b9091503d806000833e6117588183611dae565b810190828183031261017c578051906001600160401b03821161017c57019080601f8301121561017c5781519161178e83612004565b9261179c6040519485611dae565b808452848085019160051b83010192831161017c5784809201905b8382106117c957505050509082611730565b815181529082019082016117b7565b3461017c57600036600319011261017c576000806001545b80831061180257602082604051908152f35b9061180c83611c96565b60018060a01b0391549060031b1c16600052600060205260076040600020015481018091116118465761183f909261204d565b91906117f0565b634e487b7160e01b600052601160045260246000fd5b3461017c57600036600319011261017c576040518060055480825282602080930160056000527f036b6384b5eca791c62761152d0c79bb0604c104a5fb6f4eb0703f3154bb3db09260005b858282106118d2575050506118be92500383611dae565b6102e4604051928284938452830190611cfb565b85548452600195860195889550930192016118a7565b3461017c5760208060031936011261017c5760043560048110158061017c576001546119138161201b565b9360009360005b83811061197257868661192c8161201b565b9160005b82811061194557604051806102e48682611c52565b61196d906001600160a01b0361195b828561205c565b5116611967828761205c565b5261204d565b611930565b61197b81611c96565b60018060a01b03809254600392831b1c16600052600085528660ff6008604060002001541690610a8c576004811015610a8c5784146119c5575b50506119c09061204d565b61191a565b966119e89183986119d86119c095611c96565b9054911b1c16611967828b61205c565b9590886119b5565b3461017c57604036600319011261017c57611a09611c3c565b6001600160a01b031660009081526004602052604090208054602435919082101561017c57602091611a3a91611ce3565b90546040519160031b1c8152f35b3461017c57600036600319011261017c5760405180600191825492838252602080920193816000527fb10e2d527612073b26eecdfd717e6a320cf44b4afac2b0732d9fcbe2b7fa0cf6926000905b828210611ab9576102e486611aad818a0382611dae565b60405191829182611c52565b84546001600160a01b03168752958601959383019390830190611a96565b3461017c5760208060031936011261017c57611af1611c3c565b9060015491611aff8361201b565b926000926001600160a01b0392831690845b838110611b5e5750505050611b258261201b565b9260005b838110611b3e57604051806102e48782611c52565b8083611b4d611b59938561205c565b5116611967828861205c565b611b29565b84611b6882611c96565b919054600392831b1c1660005260008352838682604060002001541614611b99575b50611b949061204d565b611b11565b819686611bac926119d8611b9495611c96565b9590611b8a565b3461017c57600036600319011261017c57600080600154905b818110611bde57602083604051908152f35b611be781611c96565b60018060a01b0391549060031b1c16600052600060205260ff600860406000200154166004811015610a8c5715611c27575b611c229061204d565b611bcc565b91611c34611c229161204d565b929050611c19565b600435906001600160a01b038216820361017c57565b6020908160408183019282815285518094520193019160005b828110611c79575050505090565b83516001600160a01b031685529381019392810192600101611c6b565b600154811015611ccd5760016000527fb10e2d527612073b26eecdfd717e6a320cf44b4afac2b0732d9fcbe2b7fa0cf60190600090565b634e487b7160e01b600052603260045260246000fd5b8054821015611ccd5760005260206000200190600090565b90815180825260208080930193019160005b828110611d1b575050505090565b835185529381019392810192600101611d0d565b60005b838110611d425750506000910152565b8181015183820152602001611d32565b90602091611d6b81518092818552858086019101611d2f565b601f01601f1916010190565b61010081019081106001600160401b038211176105cc57604052565b602081019081106001600160401b038211176105cc57604052565b90601f801991011681019081106001600160401b038211176105cc57604052565b6001600160401b0381116105cc57601f01601f191660200190565b81601f8201121561017c57803590611e0182611dcf565b92611e0f6040519485611dae565b8284526020838301011161017c57816000926020809301838601378301015290565b906004821015610a8c5752565b90600182811c92168015611e6e575b6020831014611e5857565b634e487b7160e01b600052602260045260246000fd5b91607f1691611e4d565b9060405191826000825492611e8c84611e3e565b908184526001948581169081600014611efb5750600114611eb8575b5050611eb692500383611dae565b565b9093915060005260209081600020936000915b818310611ee3575050611eb693508201013880611ea8565b85548884018501529485019487945091830191611ecb565b915050611eb694506020925060ff191682840152151560051b8201013880611ea8565b15611f2557565b60405162461bcd60e51b815260206004820152600a60248201526927b7363c9030b236b4b760b11b6044820152606490fd5b15611f5e57565b60405162461bcd60e51b815260206004820152600e60248201526d139bdd08185d5d1a1bdc9a5e995960921b6044820152606490fd5b818110611f9f575050565b60008155600101611f94565b906004811015610a8c5760ff80198354169116179055565b15611fca57565b60405162461bcd60e51b815260206004820152601260248201527110dbdb9d1c9858dd081b9bdd08199bdd5b9960721b6044820152606490fd5b6001600160401b0381116105cc5760051b60200190565b9061202582612004565b6120326040519182611dae565b8281528092612043601f1991612004565b0190602036910137565b60001981146118465760010190565b8051821015611ccd5760209160051b010190565b1561207757565b60405162461bcd60e51b815260206004820152601760248201527f436f6e74656e742063616e6e6f7420626520656d7074790000000000000000006044820152606490fd5b600554600160401b8110156105cc576001810180600555811015611ccd5760056000527f036b6384b5eca791c62761152d0c79bb0604c104a5fb6f4eb0703f3154bb3db00155565b8054600160401b8110156105cc5761212191600182018155611ce3565b819291549060031b600019811b9283911b16911916179055565b9060405191828154918282526020928383019160005283600020936000905b82821061217057505050611eb692500383611dae565b85548452600195860195889550938101939091019061215a565b81601f8201121561017c5780516121a081611dcf565b926121ae6040519485611dae565b8184526020828401011161017c576121cc9160208085019101611d2f565b9056fea26469706673582212206fa31c97b37b3fb1c2333be6dd0052a72a74817cc2b3e520bd30cb1e80ee26f364736f6c63430008100033",
  "immutableReferences": {},
  "source": "// SPDX-License-Identifier: GPL-3.0\npragma solidity ^0.8.0;\npragma experimental ABIEncoderV2;\n\nimport \"./Contract.sol\";\nimport \"./PublicClaims.sol\";\n\ncontract PublicDashboard {\n    \n    struct ContractInfo {\n        address contractAddress;\n        string contractName;\n        address governmentOfficer;\n        address contractor;\n        string tenderId;\n        uint256 creationDate;\n        uint256 completionDate;\n        uint256 totalAmount;\n        ContractStatus status;\n    }\n    \n    struct ForumPost {\n        uint256 postId;\n        address author;\n        string content;\n        uint256 timestamp;\n        address targetContract;\n        uint256[] replies; // array of reply post IDs\n        bool isReply;\n        uint256 parentPostId; // 0 if not a reply\n    }\n    \n    enum ContractStatus {\n        ACTIVE,\n        COMPLETED,\n        DELAYED,\n        DISPUTED\n    }\n    \n    // State variables\n    mapping(address => ContractInfo) public contractInfos;\n    address[] public allContracts;\n    \n    // Forum functionality\n    uint256 public nextPostId;\n    mapping(uint256 => ForumPost) public forumPosts;\n    mapping(address => uint256[]) public contractPosts; // contract => post IDs\n    uint256[] public allPostIds;\n    \n    // Access control\n    mapping(address => bool) public isAuthorizedUpdater;\n    address public admin;\n    \n    PublicClaims public publicClaims;\n    \n    // Events\n    event ContractAdded(address indexed contractAddress, string contractName, address indexed contractor);\n    event ContractStatusUpdated(address indexed contractAddress, ContractStatus newStatus);\n    event ForumPostCreated(uint256 indexed postId, address indexed author, address indexed targetContract);\n    event ReplyAdded(uint256 indexed postId, uint256 indexed replyId, address indexed author);\n    \n    constructor(address _publicClaimsAddress) {\n        admin = msg.sender;\n        isAuthorizedUpdater[msg.sender] = true;\n        publicClaims = PublicClaims(_publicClaimsAddress);\n        nextPostId = 1;\n    }\n    \n    modifier onlyAuthorized() {\n        require(isAuthorizedUpdater[msg.sender] || msg.sender == admin, \"Not authorized\");\n        _;\n    }\n    \n    modifier onlyAdmin() {\n        require(msg.sender == admin, \"Only admin\");\n        _;\n    }\n    \n    function addAuthorizedUpdater(address _updater) external onlyAdmin {\n        isAuthorizedUpdater[_updater] = true;\n    }\n    \n    function removeAuthorizedUpdater(address _updater) external onlyAdmin {\n        isAuthorizedUpdater[_updater] = false;\n    }\n    \n    function addContract(\n        address _contractAddress,\n        string memory _contractName,\n        address _governmentOfficer,\n        address _contractor,\n        string memory _tenderId,\n        uint256 _completionDate,\n        uint256 _totalAmount\n    ) external onlyAuthorized {\n        require(contractInfos[_contractAddress].contractAddress == address(0), \"Contract already exists\");\n        \n        contractInfos[_contractAddress] = ContractInfo({\n            contractAddress: _contractAddress,\n            contractName: _contractName,\n            governmentOfficer: _governmentOfficer,\n            contractor: _contractor,\n            tenderId: _tenderId,\n            creationDate: block.timestamp,\n            completionDate: _completionDate,\n            totalAmount: _totalAmount,\n            status: ContractStatus.ACTIVE\n        });\n        \n        allContracts.push(_contractAddress);\n        \n        emit ContractAdded(_contractAddress, _contractName, _contractor);\n    }\n    \n    function updateContractStatus(address _contractAddress, ContractStatus _newStatus) external onlyAuthorized {\n        require(contractInfos[_contractAddress].contractAddress != address(0), \"Contract not found\");\n        contractInfos[_contractAddress].status = _newStatus;\n        emit ContractStatusUpdated(_contractAddress, _newStatus);\n    }\n    \n    function getContractInfo(address _contractAddress) external view returns (\n        string memory contractName,\n        address governmentOfficer,\n        address contractor,\n        string memory tenderId,\n        uint256 creationDate,\n        uint256 completionDate,\n        uint256 totalAmount,\n        ContractStatus status\n    ) {\n        require(contractInfos[_contractAddress].contractAddress != address(0), \"Contract not found\");\n        ContractInfo storage info = contractInfos[_contractAddress];\n        return (\n            info.contractName,\n            info.governmentOfficer,\n            info.contractor,\n            info.tenderId,\n            info.creationDate,\n            info.completionDate,\n            info.totalAmount,\n            info.status\n        );\n    }\n    \n    function getAllContracts() external view returns (address[] memory) {\n        return allContracts;\n    }\n    \n    function getContractsByStatus(ContractStatus _status) external view returns (address[] memory) {\n        address[] memory statusContracts = new address[](allContracts.length);\n        uint256 count = 0;\n        \n        for (uint i = 0; i < allContracts.length; i++) {\n            if (contractInfos[allContracts[i]].status == _status) {\n                statusContracts[count] = allContracts[i];\n                count++;\n            }\n        }\n        \n        // Resize array to actual count\n        address[] memory result = new address[](count);\n        for (uint i = 0; i < count; i++) {\n            result[i] = statusContracts[i];\n        }\n        \n        return result;\n    }\n    \n    // Forum functionality\n    function createForumPost(address _targetContract, string memory _content) external returns (uint256) {\n        require(contractInfos[_targetContract].contractAddress != address(0), \"Contract not found\");\n        require(bytes(_content).length > 0, \"Content cannot be empty\");\n        \n        uint256 postId = nextPostId++;\n        \n        forumPosts[postId] = ForumPost({\n            postId: postId,\n            author: msg.sender,\n            content: _content,\n            timestamp: block.timestamp,\n            targetContract: _targetContract,\n            replies: new uint256[](0),\n            isReply: false,\n            parentPostId: 0\n        });\n        \n        contractPosts[_targetContract].push(postId);\n        allPostIds.push(postId);\n        \n        emit ForumPostCreated(postId, msg.sender, _targetContract);\n        return postId;\n    }\n    \n    function replyToPost(uint256 _parentPostId, string memory _content) external returns (uint256) {\n        require(forumPosts[_parentPostId].postId != 0, \"Parent post not found\");\n        require(bytes(_content).length > 0, \"Content cannot be empty\");\n        \n        uint256 replyId = nextPostId++;\n        ForumPost storage parentPost = forumPosts[_parentPostId];\n        \n        forumPosts[replyId] = ForumPost({\n            postId: replyId,\n            author: msg.sender,\n            content: _content,\n            timestamp: block.timestamp,\n            targetContract: parentPost.targetContract,\n            replies: new uint256[](0),\n            isReply: true,\n            parentPostId: _parentPostId\n        });\n        \n        parentPost.replies.push(replyId);\n        contractPosts[parentPost.targetContract].push(replyId);\n        allPostIds.push(replyId);\n        \n        emit ReplyAdded(_parentPostId, replyId, msg.sender);\n        return replyId;\n    }\n    \n    function getForumPost(uint256 _postId) external view returns (\n        address author,\n        string memory content,\n        uint256 timestamp,\n        address targetContract,\n        uint256[] memory replies,\n        bool isReply,\n        uint256 parentPostId\n    ) {\n        require(forumPosts[_postId].postId != 0, \"Post not found\");\n        ForumPost storage post = forumPosts[_postId];\n        return (\n            post.author,\n            post.content,\n            post.timestamp,\n            post.targetContract,\n            post.replies,\n            post.isReply,\n            post.parentPostId\n        );\n    }\n    \n    function getContractPosts(address _contractAddress) external view returns (uint256[] memory) {\n        return contractPosts[_contractAddress];\n    }\n    \n    function getAllPosts() external view returns (uint256[] memory) {\n        return allPostIds;\n    }\n    \n    function getContractMilestoneProgress(address _contractAddress) external view returns (\n        uint256[] memory taskIndices,\n        string[] memory taskDescriptions,\n        uint256[] memory taskAmounts,\n        uint8[] memory taskStatuses // 0=pending, 1=complete, 2=verified, 3=paid\n    ) {\n        // This function interfaces with the actual Contract to get milestone progress\n        Contract contractInstance = Contract(_contractAddress);\n        uint256 taskCount = contractInstance.getNumberOfTasks();\n        \n        taskIndices = new uint256[](taskCount);\n        taskDescriptions = new string[](taskCount);\n        taskAmounts = new uint256[](taskCount);\n        taskStatuses = new uint8[](taskCount);\n        \n        for (uint i = 0; i < taskCount; i++) {\n            (\n                string memory description,\n                ,\n                uint256 amount,\n                Contract.TaskStatus status,\n                ,\n                ,\n                ,\n            ) = contractInstance.getTask(i);\n            \n            taskIndices[i] = i;\n            taskDescriptions[i] = description;\n            taskAmounts[i] = amount;\n            taskStatuses[i] = uint8(status);\n        }\n        \n        return (taskIndices, taskDescriptions, taskAmounts, taskStatuses);\n    }\n    \n    function getContractClaims(address _contractAddress) external view returns (uint256[] memory) {\n        return publicClaims.getClaimsForContract(_contractAddress);\n    }\n    \n    // Statistical functions for public dashboard\n    function getTotalContracts() external view returns (uint256) {\n        return allContracts.length;\n    }\n    \n    function getActiveContractsCount() external view returns (uint256) {\n        uint256 count = 0;\n        for (uint i = 0; i < allContracts.length; i++) {\n            if (contractInfos[allContracts[i]].status == ContractStatus.ACTIVE) {\n                count++;\n            }\n        }\n        return count;\n    }\n    \n    function getCompletedContractsCount() external view returns (uint256) {\n        uint256 count = 0;\n        for (uint i = 0; i < allContracts.length; i++) {\n            if (contractInfos[allContracts[i]].status == ContractStatus.COMPLETED) {\n                count++;\n            }\n        }\n        return count;\n    }\n    \n    function getTotalContractValue() external view returns (uint256) {\n        uint256 total = 0;\n        for (uint i = 0; i < allContracts.length; i++) {\n            total += contractInfos[allContracts[i]].totalAmount;\n        }\n        return total;\n    }\n    \n    function getContractsByContractor(address _contractor) external view returns (address[] memory) {\n        address[] memory contractorContracts = new address[](allContracts.length);\n        uint256 count = 0;\n        \n        for (uint i = 0; i < allContracts.length; i++) {\n            if (contractInfos[allContracts[i]].contractor == _contractor) {\n                contractorContracts[count] = allContracts[i];\n                count++;\n            }\n        }\n        \n        // Resize array to actual count\n        address[] memory result = new address[](count);\n        for (uint i = 0; i < count; i++) {\n            result[i] = contractorContracts[i];\n        }\n        \n        return result;\n    }\n}\n",
  "sourcePath": "/home/aniketdatar/Desktop/Other/tendersystem-blockchain/contracts/PublicDashboard.sol",
  "compiler": {
    "name": "solc",
    "version": "0.8.16+commit.07a7930e.Emscripten.clang"
  },
  "schemaVersion": "3.4.9",
  "updatedAt": "2025-08-19T10:17:23.642Z",
  "networkType": "ethereum",
  "devdoc": {
    "kind": "dev",
    "methods": {},
    "version": 1
  },
  "userdoc": {
    "kind": "user",
    "methods": {},
    "version": 1
  }
}