{
  "contractName": "SpecialOfficer",
  "abi": [
    {
      "inputs": [
        {
          "internalType": "address",
          "name": "_walletAddress",
          "type": "address"
        },
        {
          "internalType": "string",
          "name": "_email",
          "type": "string"
        },
        {
          "internalType": "string",
          "name": "_phoneNumber",
          "type": "string"
        },
        {
          "internalType": "string",
          "name": "_name",
          "type": "string"
        },
        {
          "internalType": "string",
          "name": "_employeeId",
          "type": "string"
        }
      ],
      "stateMutability": "nonpayable",
      "type": "constructor"
    },
    {
      "inputs": [],
      "name": "getAllOngoingContracts",
      "outputs": [
        {
          "internalType": "address[]",
          "name": "",
          "type": "address[]"
        }
      ],
      "stateMutability": "pure",
      "type": "function"
    },
    {
      "inputs": [],
      "name": "getAllTenders",
      "outputs": [
        {
          "internalType": "address[]",
          "name": "",
          "type": "address[]"
        }
      ],
      "stateMutability": "pure",
      "type": "function"
    },
    {
      "inputs": [
        {
          "internalType": "address",
          "name": "userAddress",
          "type": "address"
        },
        {
          "internalType": "string",
          "name": "role",
          "type": "string"
        }
      ],
      "name": "login",
      "outputs": [
        {
          "internalType": "string",
          "name": "",
          "type": "string"
        }
      ],
      "stateMutability": "nonpayable",
      "type": "function"
    },
    {
      "inputs": [],
      "name": "logout",
      "outputs": [
        {
          "internalType": "bool",
          "name": "",
          "type": "bool"
        }
      ],
      "stateMutability": "nonpayable",
      "type": "function"
    }
  ],
  "bytecode": "0x608060405234801561001057600080fd5b506040516105be3803806105be83398101604081905261002f91610143565b600080546001600160a01b0319166001600160a01b03871617905560016100568582610298565b5060026100638482610298565b5060036100708382610298565b50600461007d8282610298565b505050505050610357565b634e487b7160e01b600052604160045260246000fd5b600082601f8301126100af57600080fd5b81516001600160401b03808211156100c9576100c9610088565b604051601f8301601f19908116603f011681019082821181831017156100f1576100f1610088565b8160405283815260209250868385880101111561010d57600080fd5b600091505b8382101561012f5785820183015181830184015290820190610112565b600093810190920192909252949350505050565b600080600080600060a0868803121561015b57600080fd5b85516001600160a01b038116811461017257600080fd5b60208701519095506001600160401b038082111561018f57600080fd5b61019b89838a0161009e565b955060408801519150808211156101b157600080fd5b6101bd89838a0161009e565b945060608801519150808211156101d357600080fd5b6101df89838a0161009e565b935060808801519150808211156101f557600080fd5b506102028882890161009e565b9150509295509295909350565b600181811c9082168061022357607f821691505b60208210810361024357634e487b7160e01b600052602260045260246000fd5b50919050565b601f82111561029357600081815260208120601f850160051c810160208610156102705750805b601f850160051c820191505b8181101561028f5782815560010161027c565b5050505b505050565b81516001600160401b038111156102b1576102b1610088565b6102c5816102bf845461020f565b84610249565b602080601f8311600181146102fa57600084156102e25750858301515b600019600386901b1c1916600185901b17855561028f565b600085815260208120601f198616915b828110156103295788860151825594840194600190910190840161030a565b50858210156103475787850151600019600388901b60f8161c191681555b5050505050600190811b01905550565b610258806103666000396000f3fe608060405234801561001057600080fd5b506004361061004c5760003560e01c80631f3c99c3146100515780632358c046146100655780632f19d50b1461007e578063ab0b593714610065575b600080fd5b604051600081526020015b60405180910390f35b6040805160008152602081019182905261005c916100a1565b61009461008c366004610104565b606092915050565b60405161005c91906101d4565b6020808252825182820181905260009190848201906040850190845b818110156100e25783516001600160a01b0316835292840192918401916001016100bd565b50909695505050505050565b634e487b7160e01b600052604160045260246000fd5b6000806040838503121561011757600080fd5b82356001600160a01b038116811461012e57600080fd5b9150602083013567ffffffffffffffff8082111561014b57600080fd5b818501915085601f83011261015f57600080fd5b813581811115610171576101716100ee565b604051601f8201601f19908116603f01168101908382118183101715610199576101996100ee565b816040528281528860208487010111156101b257600080fd5b8260208601602083013760006020848301015280955050505050509250929050565b600060208083528351808285015260005b81811015610201578581018301518582016040015282016101e5565b506000604082860101526040601f19601f830116850101925050509291505056fea2646970667358221220169ce4256744d5eefb9e18ee3b320748a225c78985bcc2d63793abe07667a89064736f6c63430008100033",
  "immutableReferences": {},
  "source": "// SPDX-License-Identifier: GPL-3.0\npragma solidity ^0.8.0;\npragma experimental ABIEncoderV2;\n\nimport \"./Main.sol\";\n\n\ncontract SpecialOfficer is Main {\n    \n    address walletAddress;\n    string email;\n    string phoneNumber;\n    string name;\n    string employeeId; \n\n    constructor (address _walletAddress, string memory  _email, string memory  _phoneNumber, \n    string memory  _name, string memory  _employeeId) {\n        walletAddress = _walletAddress;\n        email = _email;\n        phoneNumber = _phoneNumber;\n        name = _name;\n        employeeId = _employeeId;\n    }\n\n    function login(address userAddress, string memory  role) public  returns (string memory ) {\n    }\n\n    function logout() public returns (bool) {\n\n    }\n}",
  "sourcePath": "/home/aniketdatar/Desktop/Other/tendersystem-blockchain/contracts/SpecialOfficer.sol",
  "compiler": {
    "name": "solc",
    "version": "0.8.16+commit.07a7930e.Emscripten.clang"
  },
  "schemaVersion": "3.4.9",
  "updatedAt": "2025-08-18T11:33:54.636Z",
  "devdoc": {
    "kind": "dev",
    "methods": {},
    "version": 1
  },
  "userdoc": {
    "kind": "user",
    "methods": {},
    "version": 1
  }
}