{
  "contractName": "StakeManager",
  "abi": [
    {
      "anonymous": false,
      "inputs": [
        {
          "indexed": true,
          "internalType": "address",
          "name": "staker",
          "type": "address"
        },
        {
          "indexed": false,
          "internalType": "uint256",
          "name": "amount",
          "type": "uint256"
        },
        {
          "indexed": false,
          "internalType": "enum StakeManager.StakeType",
          "name": "stakeType",
          "type": "uint8"
        },
        {
          "indexed": true,
          "internalType": "address",
          "name": "relatedContract",
          "type": "address"
        }
      ],
      "name": "StakeCreated",
      "type": "event"
    },
    {
      "anonymous": false,
      "inputs": [
        {
          "indexed": true,
          "internalType": "address",
          "name": "staker",
          "type": "address"
        },
        {
          "indexed": false,
          "internalType": "uint256",
          "name": "amount",
          "type": "uint256"
        },
        {
          "indexed": true,
          "internalType": "address",
          "name": "relatedContract",
          "type": "address"
        }
      ],
      "name": "StakeReleased",
      "type": "event"
    },
    {
      "anonymous": false,
      "inputs": [
        {
          "indexed": true,
          "internalType": "address",
          "name": "staker",
          "type": "address"
        },
        {
          "indexed": false,
          "internalType": "uint256",
          "name": "amount",
          "type": "uint256"
        },
        {
          "indexed": false,
          "internalType": "string",
          "name": "reason",
          "type": "string"
        }
      ],
      "name": "StakeSlashed",
      "type": "event"
    },
    {
      "inputs": [],
      "name": "MIN_CLAIM_STAKE",
      "outputs": [
        {
          "internalType": "uint256",
          "name": "",
          "type": "uint256"
        }
      ],
      "stateMutability": "view",
      "type": "function",
      "constant": true
    },
    {
      "inputs": [],
      "name": "MIN_VERIFICATION_STAKE",
      "outputs": [
        {
          "internalType": "uint256",
          "name": "",
          "type": "uint256"
        }
      ],
      "stateMutability": "view",
      "type": "function",
      "constant": true
    },
    {
      "inputs": [],
      "name": "MIN_VERIFIER_STAKE",
      "outputs": [
        {
          "internalType": "uint256",
          "name": "",
          "type": "uint256"
        }
      ],
      "stateMutability": "view",
      "type": "function",
      "constant": true
    },
    {
      "inputs": [],
      "name": "MIN_VOTE_STAKE",
      "outputs": [
        {
          "internalType": "uint256",
          "name": "",
          "type": "uint256"
        }
      ],
      "stateMutability": "view",
      "type": "function",
      "constant": true
    },
    {
      "inputs": [
        {
          "internalType": "uint256",
          "name": "",
          "type": "uint256"
        }
      ],
      "name": "allStakes",
      "outputs": [
        {
          "internalType": "address",
          "name": "staker",
          "type": "address"
        },
        {
          "internalType": "uint256",
          "name": "amount",
          "type": "uint256"
        },
        {
          "internalType": "uint256",
          "name": "timestamp",
          "type": "uint256"
        },
        {
          "internalType": "enum StakeManager.StakeType",
          "name": "stakeType",
          "type": "uint8"
        },
        {
          "internalType": "address",
          "name": "relatedContract",
          "type": "address"
        },
        {
          "internalType": "bool",
          "name": "isActive",
          "type": "bool"
        },
        {
          "internalType": "bool",
          "name": "isSlashed",
          "type": "bool"
        }
      ],
      "stateMutability": "view",
      "type": "function",
      "constant": true
    },
    {
      "inputs": [
        {
          "internalType": "address",
          "name": "",
          "type": "address"
        },
        {
          "internalType": "enum StakeManager.StakeType",
          "name": "",
          "type": "uint8"
        }
      ],
      "name": "stakeAmountByType",
      "outputs": [
        {
          "internalType": "uint256",
          "name": "",
          "type": "uint256"
        }
      ],
      "stateMutability": "view",
      "type": "function",
      "constant": true
    },
    {
      "inputs": [
        {
          "internalType": "uint256",
          "name": "",
          "type": "uint256"
        }
      ],
      "name": "stakeExists",
      "outputs": [
        {
          "internalType": "bool",
          "name": "",
          "type": "bool"
        }
      ],
      "stateMutability": "view",
      "type": "function",
      "constant": true
    },
    {
      "inputs": [
        {
          "internalType": "address",
          "name": "",
          "type": "address"
        },
        {
          "internalType": "uint256",
          "name": "",
          "type": "uint256"
        }
      ],
      "name": "stakesByAddress",
      "outputs": [
        {
          "internalType": "address",
          "name": "staker",
          "type": "address"
        },
        {
          "internalType": "uint256",
          "name": "amount",
          "type": "uint256"
        },
        {
          "internalType": "uint256",
          "name": "timestamp",
          "type": "uint256"
        },
        {
          "internalType": "enum StakeManager.StakeType",
          "name": "stakeType",
          "type": "uint8"
        },
        {
          "internalType": "address",
          "name": "relatedContract",
          "type": "address"
        },
        {
          "internalType": "bool",
          "name": "isActive",
          "type": "bool"
        },
        {
          "internalType": "bool",
          "name": "isSlashed",
          "type": "bool"
        }
      ],
      "stateMutability": "view",
      "type": "function",
      "constant": true
    },
    {
      "inputs": [
        {
          "internalType": "address",
          "name": "",
          "type": "address"
        }
      ],
      "name": "totalStakedByAddress",
      "outputs": [
        {
          "internalType": "uint256",
          "name": "",
          "type": "uint256"
        }
      ],
      "stateMutability": "view",
      "type": "function",
      "constant": true
    },
    {
      "inputs": [
        {
          "internalType": "enum StakeManager.StakeType",
          "name": "_stakeType",
          "type": "uint8"
        },
        {
          "internalType": "address",
          "name": "_relatedContract",
          "type": "address"
        }
      ],
      "name": "createStake",
      "outputs": [
        {
          "internalType": "uint256",
          "name": "",
          "type": "uint256"
        }
      ],
      "stateMutability": "payable",
      "type": "function",
      "payable": true
    },
    {
      "inputs": [
        {
          "internalType": "uint256",
          "name": "_stakeId",
          "type": "uint256"
        }
      ],
      "name": "releaseStake",
      "outputs": [
        {
          "internalType": "bool",
          "name": "",
          "type": "bool"
        }
      ],
      "stateMutability": "nonpayable",
      "type": "function"
    },
    {
      "inputs": [
        {
          "internalType": "uint256",
          "name": "_stakeId",
          "type": "uint256"
        },
        {
          "internalType": "string",
          "name": "_reason",
          "type": "string"
        }
      ],
      "name": "slashStake",
      "outputs": [
        {
          "internalType": "bool",
          "name": "",
          "type": "bool"
        }
      ],
      "stateMutability": "nonpayable",
      "type": "function"
    },
    {
      "inputs": [
        {
          "internalType": "address",
          "name": "_staker",
          "type": "address"
        }
      ],
      "name": "getStakesByAddress",
      "outputs": [
        {
          "components": [
            {
              "internalType": "address",
              "name": "staker",
              "type": "address"
            },
            {
              "internalType": "uint256",
              "name": "amount",
              "type": "uint256"
            },
            {
              "internalType": "uint256",
              "name": "timestamp",
              "type": "uint256"
            },
            {
              "internalType": "enum StakeManager.StakeType",
              "name": "stakeType",
              "type": "uint8"
            },
            {
              "internalType": "address",
              "name": "relatedContract",
              "type": "address"
            },
            {
              "internalType": "bool",
              "name": "isActive",
              "type": "bool"
            },
            {
              "internalType": "bool",
              "name": "isSlashed",
              "type": "bool"
            }
          ],
          "internalType": "struct StakeManager.Stake[]",
          "name": "",
          "type": "tuple[]"
        }
      ],
      "stateMutability": "view",
      "type": "function",
      "constant": true
    },
    {
      "inputs": [
        {
          "internalType": "address",
          "name": "_staker",
          "type": "address"
        },
        {
          "internalType": "enum StakeManager.StakeType",
          "name": "_stakeType",
          "type": "uint8"
        }
      ],
      "name": "getActiveStakesByType",
      "outputs": [
        {
          "internalType": "uint256",
          "name": "",
          "type": "uint256"
        }
      ],
      "stateMutability": "view",
      "type": "function",
      "constant": true
    },
    {
      "inputs": [],
      "name": "getTotalStakedAmount",
      "outputs": [
        {
          "internalType": "uint256",
          "name": "",
          "type": "uint256"
        }
      ],
      "stateMutability": "view",
      "type": "function",
      "constant": true
    },
    {
      "inputs": [
        {
          "internalType": "address",
          "name": "_staker",
          "type": "address"
        },
        {
          "internalType": "enum StakeManager.StakeType",
          "name": "_stakeType",
          "type": "uint8"
        }
      ],
      "name": "hasMinimumStake",
      "outputs": [
        {
          "internalType": "bool",
          "name": "",
          "type": "bool"
        }
      ],
      "stateMutability": "view",
      "type": "function",
      "constant": true
    }
  ],
  "bytecode": "0x6080806040523461001657611153908161001c8239f35b600080fdfe608060409080825260048036101561001657600080fd5b60009160e08335811c918263017d863314610e245750816303db5ca814610ded57816338adb6f014610dd25781634210814914610dad57816345f5448514610bee5781634a87089f14610b675781635fc17bf0146108f45781636800c4231461092b578163859e9730146108f45781638de21a57146108c75781638e301186146108a457816395beeae814610882578163ae6bdfb71461085f578163b88f53cd146106c257508063cbf1d91f146101c85763efa8a33b146100d657600080fd5b346101c45760203660031901126101c45735906003548210156101c1576003905260021b6101bd60018060a01b039283837fc2575a0e9e593c00f959f8c92f12db2869c3395a3b0502d05e2516446f71f85b015416937fc2575a0e9e593c00f959f8c92f12db2869c3395a3b0502d05e2516446f71f85c840154917fc2575a0e9e593c00f959f8c92f12db2869c3395a3b0502d05e2516446f71f85e7fc2575a0e9e593c00f959f8c92f12db2869c3395a3b0502d05e2516446f71f85d860154950154905195869560ff8360b01c169460ff808560a81c16958560081c1694169288610f1f565b0390f35b80fd5b5080fd5b5091806003193601126101c45782359160058310156101c15760249283356001600160a01b0381811693918490036101c457826105b057670de0b6b3a7640000341061055d575b610217610f66565b96338852602097888082019334855288830194428652606084019361023c8986610fda565b60808101908a825260a08101936001988986528960c08401978c8952338d52528d8b209485546801000000000000000096878210156105495790610284918d82018155610ee0565b94909461053757600384825116956bffffffffffffffffffffffff60a01b96878254161781558d8451908201558451600282015501948a5197600589101561052257865488518b518d5160ff60b01b90151560b01b166001600160b81b031990931660ff9c909c169b909b17610100600160a81b0360089290921b82161760ff60a81b9b151560a81b9b909b169a909a17179096556001600160a81b0319956003549081101561050d578d8101806003558110156104f857907fc2575a0e9e593c00f959f8c92f12db2869c3395a3b0502d05e2516446f71f85e95949392918f6003905260021b94857fc2575a0e9e593c00f959f8c92f12db2869c3395a3b0502d05e2516446f71f85b0192511690825416179055517fc2575a0e9e593c00f959f8c92f12db2869c3395a3b0502d05e2516446f71f85c830155517fc2575a0e9e593c00f959f8c92f12db2869c3395a3b0502d05e2516446f71f85d8201550195519260058410156104e65786549251945160ff60a81b90151560a81b1660089590951b1660ff939093169116171760ff60a81b191617825561043d919051815460ff60b01b191690151560b01b60ff60b01b16179055565b6003546000198101979088116104d5575082849287928961048b96528a528282209060ff1982541617905533815280895281812061047c348254611009565b90553381526002895220610fc2565b610496348254611009565b90556104aa83519134835286830190610efc565b7ff9707af86065da3ba017c93cacde02a10e74d7264ae4430a1e4e6bec6228ebf3833392a351908152f35b634e487b7160e01b84526011825283fd5b634e487b7160e01b8a52602188528d8afd5b5050634e487b7160e01b8d525060328a528f8cfd5b5050634e487b7160e01b8d525060418a528f8cfd5b5050634e487b7160e01b8d525060218a528f8cfd5b50634e487b7160e01b8c528b8a528f8cfd5b5050634e487b7160e01b8c5260418a528f8cfd5b845162461bcd60e51b81526020818901526028818801527f496e73756666696369656e7420766572696669657220726567697374726174696044820152676f6e207374616b6560c01b6064820152608490fd5b6001830361060f5767016345785d8a000034106105cd575b61020f565b845162461bcd60e51b8152602081890152601f818801527f496e73756666696369656e7420766572696669636174696f6e207374616b65006044820152606490fd5b60028303610669576706f05b59d3b2000034101561020f57845162461bcd60e51b81526020818901526018818801527f496e73756666696369656e7420636c61696d207374616b6500000000000000006044820152606490fd5b600383036105c85766b1a2bc2ec500003410156105c857845162461bcd60e51b81526020818901526017818801527f496e73756666696369656e7420766f7465207374616b650000000000000000006044820152606490fd5b8385843461085b57602080600319360112610857576001600160a01b0393846106e9610e46565b16815260019586835284822094855467ffffffffffffffff811161084457849195928161071c8b978b9460051b01610f9c565b94818652848601809a885285882088915b8483106107c457505050505086519683880194848952518095528088019895925b85841061075b57888a0389f35b909192939495968584829b8a518581511682528381015184830152868101518783015261079060608083015190840190610efc565b60808181015187169083015260a08082015115159083015260c090810151151590820152019a98019695940192919061074e565b998388829e9c899e98996107da9d9b9c9d610f66565b90808754168252858701548483015260028701548b830152600387015460ff9161080983831660608601610fda565b8160081c166080840152818160a81c16151560a084015260b01c16151560c08201528152019201920191909b999b9a95949a9897969861072d565b634e487b7160e01b845260418652602484fd5b8380fd5b8280fd5b8385346101c457816003193601126101c457602090516706f05b59d3b200008152f35b8385346101c457816003193601126101c4576020905166b1a2bc2ec500008152f35b8385346101c457816003193601126101c45760209051670de0b6b3a76400008152f35b8385843461085b57602036600319011261085b57816020938260ff93358252855220541690519015158152f35b8385346101c4576109236020928261090b36610e61565b6001600160a01b039091168352600286529120610fc2565b549051908152f35b8385843461085b578160031936011261085b57803592602491823567ffffffffffffffff9182821161085757366023830112156108575781810135928311610b5557602096601f1993610984601f820186168a01610f9c565b9381855236888383010111610b515789826109cd94938a8a940183890137860101528086528289526109bb60ff8988205416611016565b6109c86003548210611059565b610e90565b5094600386019182549160ff8360a81c1615610b0f5760ff8360b01c16610ad557505061ffff60a81b1916600160b01b17815560018501805486546001600160a01b039081168752868a52888720805493989194919391929091610a319190610fe6565b9055610a5c610a5488549285855416895260028c5260ff8b8a2091541690610fc2565b918254610fe6565b9055541693549285519384528587850152815191828786015287825b848110610ac157505050928092601f837fc32d81504c00ce92eaeed0852b187e372b250d24935ca5a510426adbd42cc25796606080968601015201168101030190a25160018152f35b828101820151878201606001528101610a78565b885162461bcd60e51b81529182018a90526015908201527414dd185ad948185b1c9958591e481cdb185cda1959605a1b6044820152606490fd5b885162461bcd60e51b81529182018a90526017908201527f5374616b6520616c72656164792070726f6365737365640000000000000000006044820152606490fd5b8680fd5b634e487b7160e01b8452604190528383fd5b8385346101c457806003193601126101c457610b81610e46565b6001600160a01b039081168352600160205281832080549193602435928310156101c157506101bd91610bb391610ee0565b5091838354169360018401549160036002860154950154905195869560ff8360b01c169460ff808560a81c16958560081c1694169288610f1f565b8385843461085b57602092836003193601126101c157610c1e82358083528386526109bb60ff8685205416611016565b5080546001600160a01b0392919083163303610d7857600381019384549060ff8260a81c1615610d3c5760ff8260b01c16610d00575060ff60a81b19168455600101805433835282875285832080549293929091610c7b91610fe6565b9055815433825260028752610c9a610a5487842060ff88541690610fc2565b9055808080808554818115610cf7575b3390f115610cec575054915460081c169082519081527f19aebfbd4cec17be2da9699e0335ff470bec6d58d59d6d2074a37fc7c7df2445843392a35160018152f35b8451903d90823e3d90fd5b506108fc610caa565b865162461bcd60e51b8152908101889052601660248201527514dd185ad9481a185cc81899595b881cdb185cda195960521b6044820152606490fd5b865162461bcd60e51b8152908101889052601660248201527514dd185ad948185b1c9958591e481c995b19585cd95960521b6044820152606490fd5b845162461bcd60e51b8152808501879052600f60248201526e2737ba1039ba30b5b29037bbb732b960891b6044820152606490fd5b8385346101c457602090610dc9610dc336610e61565b90611098565b90519015158152f35b8385346101c457816003193601126101c45751478152602090f35b8385346101c45760203660031901126101c45760209181906001600160a01b03610e15610e46565b16815280845220549051908152f35b8490346101c457816003193601126101c4578067016345785d8a000060209252f35b600435906001600160a01b0382168203610e5c57565b600080fd5b6040906003190112610e5c576004356001600160a01b0381168103610e5c57906024356005811015610e5c5790565b600354811015610eca57600360005260021b7fc2575a0e9e593c00f959f8c92f12db2869c3395a3b0502d05e2516446f71f85b0190600090565b634e487b7160e01b600052603260045260246000fd5b8054821015610eca5760005260206000209060021b0190600090565b906005821015610f095752565b634e487b7160e01b600052602160045260246000fd5b959260c0959192989794610f529160e089019a60018060a01b038096168a5260208a015260408901526060880190610efc565b166080850152151560a08401521515910152565b6040519060e0820182811067ffffffffffffffff821117610f8657604052565b634e487b7160e01b600052604160045260246000fd5b6040519190601f01601f1916820167ffffffffffffffff811183821017610f8657604052565b906005811015610f0957600052602052604060002090565b6005821015610f095752565b91908203918211610ff357565b634e487b7160e01b600052601160045260246000fd5b91908201809211610ff357565b1561101d57565b60405162461bcd60e51b815260206004820152601460248201527314dd185ad948191bd95cc81b9bdd08195e1a5cdd60621b6044820152606490fd5b1561106057565b60405162461bcd60e51b815260206004820152601060248201526f125b9d985b1a59081cdd185ad948125160821b6044820152606490fd5b60018060a01b031660005260026020526110b6816040600020610fc2565b54906005811015610f0957806110d55750670de0b6b3a7640000111590565b600181036110ec575067016345785d8a0000111590565b6002810361110357506706f05b59d3b20000111590565b6003146111105750600090565b66b1a2bc2ec5000011159056fea264697066735822122065a0ba8c5715ff6ae29dc147c3e0875ab4f4a408be7f45ffafe759a3458337f364736f6c63430008100033",
  "immutableReferences": {},
  "source": "// SPDX-License-Identifier: GPL-3.0\npragma solidity ^0.8.0;\npragma experimental ABIEncoderV2;\n\ncontract StakeManager {\n    \n    struct Stake {\n        address staker;\n        uint256 amount;\n        uint256 timestamp;\n        StakeType stakeType;\n        address relatedContract; // contract/tender/claim this stake is for\n        bool isActive;\n        bool isSlashed; // true if stake was slashed due to false verification\n    }\n    \n    enum StakeType {\n        VERIFIER_REGISTRATION,\n        MILESTONE_VERIFICATION,\n        PUBLIC_CLAIM,\n        VOTE_ON_CLAIM,\n        CONTRACTOR_EMD // Earnest Money Deposit\n    }\n    \n    mapping(address => uint256) public totalStakedByAddress;\n    mapping(address => Stake[]) public stakesByAddress;\n    mapping(address => mapping(StakeType => uint256)) public stakeAmountByType;\n    \n    // Global stake tracking\n    Stake[] public allStakes;\n    mapping(uint256 => bool) public stakeExists;\n    \n    // Minimum stake amounts for different actions\n    uint256 public constant MIN_VERIFIER_STAKE = 1 ether;\n    uint256 public constant MIN_VERIFICATION_STAKE = 0.1 ether;\n    uint256 public constant MIN_CLAIM_STAKE = 0.5 ether;\n    uint256 public constant MIN_VOTE_STAKE = 0.05 ether;\n    \n    // Events\n    event StakeCreated(address indexed staker, uint256 amount, StakeType stakeType, address indexed relatedContract);\n    event StakeReleased(address indexed staker, uint256 amount, address indexed relatedContract);\n    event StakeSlashed(address indexed staker, uint256 amount, string reason);\n    \n    modifier validStakeAmount(StakeType _stakeType) {\n        if (_stakeType == StakeType.VERIFIER_REGISTRATION) {\n            require(msg.value >= MIN_VERIFIER_STAKE, \"Insufficient verifier registration stake\");\n        } else if (_stakeType == StakeType.MILESTONE_VERIFICATION) {\n            require(msg.value >= MIN_VERIFICATION_STAKE, \"Insufficient verification stake\");\n        } else if (_stakeType == StakeType.PUBLIC_CLAIM) {\n            require(msg.value >= MIN_CLAIM_STAKE, \"Insufficient claim stake\");\n        } else if (_stakeType == StakeType.VOTE_ON_CLAIM) {\n            require(msg.value >= MIN_VOTE_STAKE, \"Insufficient vote stake\");\n        }\n        _;\n    }\n    \n    function createStake(StakeType _stakeType, address _relatedContract) \n        external \n        payable \n        validStakeAmount(_stakeType) \n        returns (uint256) {\n        \n        Stake memory newStake = Stake({\n            staker: msg.sender,\n            amount: msg.value,\n            timestamp: block.timestamp,\n            stakeType: _stakeType,\n            relatedContract: _relatedContract,\n            isActive: true,\n            isSlashed: false\n        });\n        \n        stakesByAddress[msg.sender].push(newStake);\n        allStakes.push(newStake);\n        uint256 stakeId = allStakes.length - 1;\n        stakeExists[stakeId] = true;\n        \n        totalStakedByAddress[msg.sender] += msg.value;\n        stakeAmountByType[msg.sender][_stakeType] += msg.value;\n        \n        emit StakeCreated(msg.sender, msg.value, _stakeType, _relatedContract);\n        return stakeId;\n    }\n    \n    function releaseStake(uint256 _stakeId) external returns (bool) {\n        require(stakeExists[_stakeId], \"Stake does not exist\");\n        require(_stakeId < allStakes.length, \"Invalid stake ID\");\n        \n        Stake storage stake = allStakes[_stakeId];\n        require(stake.staker == msg.sender, \"Not stake owner\");\n        require(stake.isActive, \"Stake already released\");\n        require(!stake.isSlashed, \"Stake has been slashed\");\n        \n        stake.isActive = false;\n        totalStakedByAddress[msg.sender] -= stake.amount;\n        stakeAmountByType[msg.sender][stake.stakeType] -= stake.amount;\n        \n        payable(msg.sender).transfer(stake.amount);\n        \n        emit StakeReleased(msg.sender, stake.amount, stake.relatedContract);\n        return true;\n    }\n    \n    function slashStake(uint256 _stakeId, string memory _reason) external returns (bool) {\n        require(stakeExists[_stakeId], \"Stake does not exist\");\n        require(_stakeId < allStakes.length, \"Invalid stake ID\");\n        \n        Stake storage stake = allStakes[_stakeId];\n        require(stake.isActive, \"Stake already processed\");\n        require(!stake.isSlashed, \"Stake already slashed\");\n        \n        // Only authorized contracts can slash stakes\n        // This should be called by contract logic that determines false verification\n        stake.isActive = false;\n        stake.isSlashed = true;\n        \n        totalStakedByAddress[stake.staker] -= stake.amount;\n        stakeAmountByType[stake.staker][stake.stakeType] -= stake.amount;\n        \n        emit StakeSlashed(stake.staker, stake.amount, _reason);\n        return true;\n    }\n    \n    function getStakesByAddress(address _staker) external view returns (Stake[] memory) {\n        return stakesByAddress[_staker];\n    }\n    \n    function getActiveStakesByType(address _staker, StakeType _stakeType) external view returns (uint256) {\n        return stakeAmountByType[_staker][_stakeType];\n    }\n    \n    function getTotalStakedAmount() external view returns (uint256) {\n        return address(this).balance;\n    }\n    \n    function hasMinimumStake(address _staker, StakeType _stakeType) external view returns (bool) {\n        uint256 stakedAmount = stakeAmountByType[_staker][_stakeType];\n        \n        if (_stakeType == StakeType.VERIFIER_REGISTRATION) {\n            return stakedAmount >= MIN_VERIFIER_STAKE;\n        } else if (_stakeType == StakeType.MILESTONE_VERIFICATION) {\n            return stakedAmount >= MIN_VERIFICATION_STAKE;\n        } else if (_stakeType == StakeType.PUBLIC_CLAIM) {\n            return stakedAmount >= MIN_CLAIM_STAKE;\n        } else if (_stakeType == StakeType.VOTE_ON_CLAIM) {\n            return stakedAmount >= MIN_VOTE_STAKE;\n        }\n        \n        return false;\n    }\n}\n",
  "sourcePath": "/home/aniketdatar/Desktop/Other/tendersystem-blockchain/contracts/StakeManager.sol",
  "compiler": {
    "name": "solc",
    "version": "0.8.16+commit.07a7930e.Emscripten.clang"
  },
  "schemaVersion": "3.4.9",
  "updatedAt": "2025-08-19T10:17:23.632Z",
  "networkType": "ethereum",
  "devdoc": {
    "kind": "dev",
    "methods": {},
    "version": 1
  },
  "userdoc": {
    "kind": "user",
    "methods": {},
    "version": 1
  }
}