{
  "contractName": "Tender",
  "abi": [
    {
      "inputs": [
        {
          "internalType": "uint256",
          "name": "",
          "type": "uint256"
        }
      ],
      "name": "allContractorProposals",
      "outputs": [
        {
          "internalType": "address",
          "name": "contractorAddress",
          "type": "address"
        },
        {
          "internalType": "string",
          "name": "encryptedBid",
          "type": "string"
        },
        {
          "internalType": "string",
          "name": "bidKey",
          "type": "string"
        },
        {
          "internalType": "bool",
          "name": "keySubmitted",
          "type": "bool"
        },
        {
          "internalType": "uint256",
          "name": "proposalAmount",
          "type": "uint256"
        },
        {
          "internalType": "enum Tender.ProposalStatus",
          "name": "status",
          "type": "uint8"
        },
        {
          "internalType": "uint256",
          "name": "emdAmount",
          "type": "uint256"
        },
        {
          "internalType": "uint256",
          "name": "emdStakeId",
          "type": "uint256"
        },
        {
          "internalType": "bool",
          "name": "emdRefunded",
          "type": "bool"
        }
      ],
      "stateMutability": "view",
      "type": "function",
      "constant": true
    },
    {
      "inputs": [],
      "name": "bidOpeningDate",
      "outputs": [
        {
          "internalType": "uint256",
          "name": "",
          "type": "uint256"
        }
      ],
      "stateMutability": "view",
      "type": "function",
      "constant": true
    },
    {
      "inputs": [],
      "name": "bidSubmissionClosingDate",
      "outputs": [
        {
          "internalType": "uint256",
          "name": "",
          "type": "uint256"
        }
      ],
      "stateMutability": "view",
      "type": "function",
      "constant": true
    },
    {
      "inputs": [],
      "name": "biddingClosed",
      "outputs": [
        {
          "internalType": "bool",
          "name": "",
          "type": "bool"
        }
      ],
      "stateMutability": "view",
      "type": "function",
      "constant": true
    },
    {
      "inputs": [],
      "name": "bidsDecrypted",
      "outputs": [
        {
          "internalType": "bool",
          "name": "",
          "type": "bool"
        }
      ],
      "stateMutability": "view",
      "type": "function",
      "constant": true
    },
    {
      "inputs": [
        {
          "internalType": "uint256",
          "name": "",
          "type": "uint256"
        }
      ],
      "name": "clauses",
      "outputs": [
        {
          "internalType": "string",
          "name": "",
          "type": "string"
        }
      ],
      "stateMutability": "view",
      "type": "function",
      "constant": true
    },
    {
      "inputs": [
        {
          "internalType": "uint256",
          "name": "",
          "type": "uint256"
        }
      ],
      "name": "constraints",
      "outputs": [
        {
          "internalType": "string",
          "name": "",
          "type": "string"
        }
      ],
      "stateMutability": "view",
      "type": "function",
      "constant": true
    },
    {
      "inputs": [],
      "name": "covers",
      "outputs": [
        {
          "internalType": "uint256",
          "name": "",
          "type": "uint256"
        }
      ],
      "stateMutability": "view",
      "type": "function",
      "constant": true
    },
    {
      "inputs": [],
      "name": "governmentOfficerAddress",
      "outputs": [
        {
          "internalType": "address",
          "name": "",
          "type": "address"
        }
      ],
      "stateMutability": "view",
      "type": "function",
      "constant": true
    },
    {
      "inputs": [],
      "name": "keySubmissionDeadline",
      "outputs": [
        {
          "internalType": "uint256",
          "name": "",
          "type": "uint256"
        }
      ],
      "stateMutability": "view",
      "type": "function",
      "constant": true
    },
    {
      "inputs": [],
      "name": "keysSubmitted",
      "outputs": [
        {
          "internalType": "bool",
          "name": "",
          "type": "bool"
        }
      ],
      "stateMutability": "view",
      "type": "function",
      "constant": true
    },
    {
      "inputs": [],
      "name": "minimumEMD",
      "outputs": [
        {
          "internalType": "uint256",
          "name": "",
          "type": "uint256"
        }
      ],
      "stateMutability": "view",
      "type": "function",
      "constant": true
    },
    {
      "inputs": [],
      "name": "stakeManager",
      "outputs": [
        {
          "internalType": "contract StakeManager",
          "name": "",
          "type": "address"
        }
      ],
      "stateMutability": "view",
      "type": "function",
      "constant": true
    },
    {
      "inputs": [
        {
          "internalType": "uint256",
          "name": "",
          "type": "uint256"
        }
      ],
      "name": "taskDays",
      "outputs": [
        {
          "internalType": "uint256",
          "name": "",
          "type": "uint256"
        }
      ],
      "stateMutability": "view",
      "type": "function",
      "constant": true
    },
    {
      "inputs": [
        {
          "internalType": "uint256",
          "name": "",
          "type": "uint256"
        }
      ],
      "name": "taskName",
      "outputs": [
        {
          "internalType": "string",
          "name": "",
          "type": "string"
        }
      ],
      "stateMutability": "view",
      "type": "function",
      "constant": true
    },
    {
      "inputs": [],
      "name": "tenderCategory",
      "outputs": [
        {
          "internalType": "string",
          "name": "",
          "type": "string"
        }
      ],
      "stateMutability": "view",
      "type": "function",
      "constant": true
    },
    {
      "inputs": [],
      "name": "tenderId",
      "outputs": [
        {
          "internalType": "string",
          "name": "",
          "type": "string"
        }
      ],
      "stateMutability": "view",
      "type": "function",
      "constant": true
    },
    {
      "inputs": [],
      "name": "tenderName",
      "outputs": [
        {
          "internalType": "string",
          "name": "",
          "type": "string"
        }
      ],
      "stateMutability": "view",
      "type": "function",
      "constant": true
    },
    {
      "inputs": [],
      "name": "getTenderName",
      "outputs": [
        {
          "internalType": "string",
          "name": "",
          "type": "string"
        }
      ],
      "stateMutability": "view",
      "type": "function",
      "constant": true
    },
    {
      "inputs": [
        {
          "internalType": "address",
          "name": "_governmentOfficerAddress",
          "type": "address"
        },
        {
          "internalType": "string",
          "name": "_tenderName",
          "type": "string"
        },
        {
          "internalType": "string",
          "name": "_tenderId",
          "type": "string"
        },
        {
          "internalType": "uint256",
          "name": "_bidSubmissionClosingDate",
          "type": "uint256"
        },
        {
          "internalType": "uint256",
          "name": "_bidOpeningDate",
          "type": "uint256"
        },
        {
          "internalType": "uint256",
          "name": "_covers",
          "type": "uint256"
        },
        {
          "internalType": "string",
          "name": "_tenderCategory",
          "type": "string"
        },
        {
          "internalType": "uint256",
          "name": "_minimumEMD",
          "type": "uint256"
        },
        {
          "internalType": "address",
          "name": "_stakeManagerAddress",
          "type": "address"
        }
      ],
      "name": "setTenderBasic",
      "outputs": [],
      "stateMutability": "nonpayable",
      "type": "function"
    },
    {
      "inputs": [
        {
          "internalType": "string[]",
          "name": "_clauses",
          "type": "string[]"
        },
        {
          "internalType": "string[]",
          "name": "_taskName",
          "type": "string[]"
        },
        {
          "internalType": "uint256[]",
          "name": "_taskDays",
          "type": "uint256[]"
        },
        {
          "internalType": "string[]",
          "name": "_constraints",
          "type": "string[]"
        }
      ],
      "name": "setTenderAdvanced",
      "outputs": [],
      "stateMutability": "nonpayable",
      "type": "function"
    },
    {
      "inputs": [],
      "name": "getTenderBasic",
      "outputs": [
        {
          "internalType": "address",
          "name": "",
          "type": "address"
        },
        {
          "internalType": "string",
          "name": "",
          "type": "string"
        },
        {
          "internalType": "string",
          "name": "",
          "type": "string"
        },
        {
          "internalType": "uint256",
          "name": "",
          "type": "uint256"
        },
        {
          "internalType": "uint256",
          "name": "",
          "type": "uint256"
        },
        {
          "internalType": "uint256",
          "name": "",
          "type": "uint256"
        }
      ],
      "stateMutability": "view",
      "type": "function",
      "constant": true
    },
    {
      "inputs": [],
      "name": "getTenderAdvanced",
      "outputs": [
        {
          "internalType": "string[]",
          "name": "",
          "type": "string[]"
        },
        {
          "internalType": "string[]",
          "name": "",
          "type": "string[]"
        },
        {
          "internalType": "uint256[]",
          "name": "",
          "type": "uint256[]"
        },
        {
          "internalType": "string[]",
          "name": "",
          "type": "string[]"
        }
      ],
      "stateMutability": "view",
      "type": "function",
      "constant": true
    },
    {
      "inputs": [
        {
          "internalType": "address",
          "name": "_contractorAddress",
          "type": "address"
        },
        {
          "internalType": "string",
          "name": "_encryptedBid",
          "type": "string"
        },
        {
          "internalType": "string[]",
          "name": "_constraintDocuments",
          "type": "string[]"
        }
      ],
      "name": "submitEncryptedBid",
      "outputs": [
        {
          "internalType": "bool",
          "name": "",
          "type": "bool"
        }
      ],
      "stateMutability": "payable",
      "type": "function",
      "payable": true
    },
    {
      "inputs": [
        {
          "internalType": "string",
          "name": "_bidKey",
          "type": "string"
        }
      ],
      "name": "submitBidKey",
      "outputs": [
        {
          "internalType": "bool",
          "name": "",
          "type": "bool"
        }
      ],
      "stateMutability": "nonpayable",
      "type": "function"
    },
    {
      "inputs": [],
      "name": "getBiddingCloseDate",
      "outputs": [
        {
          "internalType": "uint256",
          "name": "",
          "type": "uint256"
        }
      ],
      "stateMutability": "view",
      "type": "function",
      "constant": true
    },
    {
      "inputs": [],
      "name": "getKeySubmissionDeadline",
      "outputs": [
        {
          "internalType": "uint256",
          "name": "",
          "type": "uint256"
        }
      ],
      "stateMutability": "view",
      "type": "function",
      "constant": true
    },
    {
      "inputs": [],
      "name": "getTenderCategory",
      "outputs": [
        {
          "internalType": "string",
          "name": "",
          "type": "string"
        }
      ],
      "stateMutability": "view",
      "type": "function",
      "constant": true
    },
    {
      "inputs": [],
      "name": "getMinimumEMD",
      "outputs": [
        {
          "internalType": "uint256",
          "name": "",
          "type": "uint256"
        }
      ],
      "stateMutability": "view",
      "type": "function",
      "constant": true
    },
    {
      "inputs": [],
      "name": "getProposalCount",
      "outputs": [
        {
          "internalType": "uint256",
          "name": "",
          "type": "uint256"
        }
      ],
      "stateMutability": "view",
      "type": "function",
      "constant": true
    },
    {
      "inputs": [
        {
          "internalType": "uint256",
          "name": "amount",
          "type": "uint256"
        }
      ],
      "name": "setTenderAmount",
      "outputs": [],
      "stateMutability": "nonpayable",
      "type": "function"
    },
    {
      "inputs": [
        {
          "internalType": "uint256",
          "name": "index",
          "type": "uint256"
        }
      ],
      "name": "getProposalsToVerify",
      "outputs": [
        {
          "internalType": "string[]",
          "name": "",
          "type": "string[]"
        },
        {
          "internalType": "string[][]",
          "name": "",
          "type": "string[][]"
        },
        {
          "internalType": "address",
          "name": "",
          "type": "address"
        }
      ],
      "stateMutability": "view",
      "type": "function",
      "constant": true
    },
    {
      "inputs": [
        {
          "internalType": "uint256",
          "name": "_bidIndex",
          "type": "uint256"
        },
        {
          "internalType": "string[]",
          "name": "_quotationClause",
          "type": "string[]"
        },
        {
          "internalType": "uint256[]",
          "name": "_quotationAmount",
          "type": "uint256[]"
        }
      ],
      "name": "decryptBid",
      "outputs": [],
      "stateMutability": "nonpayable",
      "type": "function"
    },
    {
      "inputs": [
        {
          "internalType": "address",
          "name": "contractorAddress",
          "type": "address"
        }
      ],
      "name": "verifyProposal",
      "outputs": [],
      "stateMutability": "nonpayable",
      "type": "function"
    },
    {
      "inputs": [
        {
          "internalType": "address",
          "name": "contractorAddress",
          "type": "address"
        }
      ],
      "name": "rejectProposal",
      "outputs": [],
      "stateMutability": "nonpayable",
      "type": "function"
    },
    {
      "inputs": [
        {
          "internalType": "uint256",
          "name": "index",
          "type": "uint256"
        }
      ],
      "name": "getProposal",
      "outputs": [
        {
          "internalType": "address",
          "name": "",
          "type": "address"
        },
        {
          "internalType": "uint256",
          "name": "",
          "type": "uint256"
        },
        {
          "internalType": "string[]",
          "name": "",
          "type": "string[]"
        },
        {
          "internalType": "uint256[]",
          "name": "",
          "type": "uint256[]"
        },
        {
          "internalType": "enum Tender.ProposalStatus",
          "name": "",
          "type": "uint8"
        },
        {
          "internalType": "bool",
          "name": "",
          "type": "bool"
        },
        {
          "internalType": "uint256",
          "name": "",
          "type": "uint256"
        }
      ],
      "stateMutability": "view",
      "type": "function",
      "constant": true
    },
    {
      "inputs": [
        {
          "internalType": "uint256",
          "name": "index",
          "type": "uint256"
        }
      ],
      "name": "getEncryptedBid",
      "outputs": [
        {
          "internalType": "string",
          "name": "",
          "type": "string"
        },
        {
          "internalType": "bool",
          "name": "",
          "type": "bool"
        }
      ],
      "stateMutability": "view",
      "type": "function",
      "constant": true
    },
    {
      "inputs": [
        {
          "internalType": "uint256",
          "name": "index",
          "type": "uint256"
        }
      ],
      "name": "getBidKey",
      "outputs": [
        {
          "internalType": "string",
          "name": "",
          "type": "string"
        }
      ],
      "stateMutability": "view",
      "type": "function",
      "constant": true
    },
    {
      "inputs": [
        {
          "internalType": "uint256",
          "name": "index",
          "type": "uint256"
        }
      ],
      "name": "getVerifiedProposals",
      "outputs": [
        {
          "internalType": "string[]",
          "name": "",
          "type": "string[]"
        },
        {
          "internalType": "string[][]",
          "name": "",
          "type": "string[][]"
        },
        {
          "internalType": "address",
          "name": "",
          "type": "address"
        },
        {
          "internalType": "uint256[]",
          "name": "",
          "type": "uint256[]"
        }
      ],
      "stateMutability": "view",
      "type": "function",
      "constant": true
    }
  ],
  "bytecode": "0x6080806040523461001657612c29908161001c8239f35b600080fdfe6040608081526004908136101561001557600080fd5b600091823560e01c908163041f624f146121a3578163137396e41461218457816322cc6112146106fc5781632b51fed41461215d5781632da11b2e1461213957816330915fe2146120a1578163325567f714611de057816334650fad14611c1e57816336e1877814611b8657816340588921146117a657816343510c9d1461150a57816346d722e71461177e57816347060ba214611757578163482a77a61461171b5781634a53deb4146116dd578163528e830a1461164957816356554d82146115295781635cc62ce61461150a57816369874422146114725781637376ade21461130f5781637542ff95146112e25781637ca4a8791461122a5781637ebe69a31461129c5781639b679bae14611267578163b3c4c5bd14611249578163bba07cb11461122a578163c08cc02d1461120b578163c7f758a814611097578163ca6009be14611059578163cc5ca0b014610c0e578163cddab28b14610a80578163d5678ae1146109b2578163e01ac1041461071b578163e678b782146106fc578163e959c7b91461062b578163e979c9b814610435578163ec12b199146102be578163f5c4037d14610207575063fed4a326146101d057600080fd5b346102035781600319360112610203576101ff906101ec61229d565b90519182916020835260208301906123ea565b0390f35b5080fd5b839150346102035760203660031901126102035780359161022b600f548410612a2a565b546001600160a01b0316330361026d576101ff836101ec60026102668661026160ff6003610258846126a2565b50015416612ad3565b6126a2565b5001612346565b608490602084519162461bcd60e51b8352820152602560248201527f4f6e6c7920676f7665726e6d656e74206f6666696365722063616e2076696577604482015264206b65797360d81b6064820152fd5b828434610432578060031936011261043257600754916102dd8361242a565b916102ea8251938461227b565b8383526007815260209381600080516020612b74833981519152868087015b848410610414575050505050600854936103228561242a565b9461032f8451968761227b565b8086526008835282600080516020612b94833981519152838089015b8484106103f6575050505050825180928260095492838152019160098252600080516020612bb4833981519152915b8181106103e2576103ba886101ff8b6103d48b8b6103c78c61039e838e038461227b565b6103a66127f9565b958451998a9960808b5260808b019061257d565b91898303908a015261257d565b9186830390870152612635565b90838203606085015261257d565b82548452928401926001928301920161037a565b600191829161040485612346565b815201920192019190849061034b565b600191829161042285612346565b8152019201920191908790610309565b80fd5b9050346106275760203660031901126106275735600f5481101561062757600f9092527f8d1108e10bcb7c27dddfc02ed9d693a074039d026cf4ea4240b40f7d581ac802600c92909202918201546001600160a01b0316906104b87f8d1108e10bcb7c27dddfc02ed9d693a074039d026cf4ea4240b40f7d581ac8038401612346565b926104e47f8d1108e10bcb7c27dddfc02ed9d693a074039d026cf4ea4240b40f7d581ac8048201612346565b9060ff7f8d1108e10bcb7c27dddfc02ed9d693a074039d026cf4ea4240b40f7d581ac80582015416926106117f8d1108e10bcb7c27dddfc02ed9d693a074039d026cf4ea4240b40f7d581ac80883015460ff7f8d1108e10bcb7c27dddfc02ed9d693a074039d026cf4ea4240b40f7d581ac80a85015416906105fa7f8d1108e10bcb7c27dddfc02ed9d693a074039d026cf4ea4240b40f7d581ac80b8601549460ff7f8d1108e10bcb7c27dddfc02ed9d693a074039d026cf4ea4240b40f7d581ac80d7f8d1108e10bcb7c27dddfc02ed9d693a074039d026cf4ea4240b40f7d581ac80c89015498015416976105ed82519c8d9c8d5260208d61012091829101528d01906123ea565b918b8303908c01526123ea565b9615156060890152608088015260a087019061267f565b60c085015260e084015215156101008301520390f35b8280fd5b50503461020357816003193601126102035780519082600180549161064f8361220f565b808652928281169081156106d4575060011461068a575b505050610678826101ff94038361227b565b519182916020835260208301906123ea565b9450808552600080516020612bd48339815191525b8286106106bc575050506106788260206101ff9582010194610666565b8054602087870181019190915290950194810161069f565b6101ff97508693506020925061067894915060ff191682840152151560051b82010194610666565b5050346102035781600319360112610203576020906005549051908152f35b919050606036600319011261062757610732612669565b9260249067ffffffffffffffff908235828111610203576107569036908701612442565b916044359081116102035761076e903690870161249e565b91600354421161097857600e5460ff811661094257600d54341061090d57855163cbf1d91f60e01b81528781018890523086820152946001600160a01b039160209087906044908290349060181c87165af19586156109035784966108cc575b50600f5490600160401b8210156108bb5760019889830180600f556107f2846126a2565b505083116108aa5750509161082e9161080d899695946126a2565b5099166bffffffffffffffffffffffff60a01b8a54161789558489016126f4565b600387019360ff1994858154169055346009890155600a880155600b870184815416905560078701925b610874575b505050826008602095019182541617905551908152f35b81518110156108a5579061089d826108986108918996958561288f565b51856128a3565b61285d565b909192610858565b61085d565b634e487b7160e01b86526011905284fd5b634e487b7160e01b85526041895284fd5b9095506020813d82116108fb575b816108e76020938361227b565b810103126108f7575194386107ce565b8380fd5b3d91506108da565b87513d86823e3d90fd5b855162461bcd60e51b81526020818901526010818701526f125b9cdd59999a58da595b9d0811535160821b6044820152606490fd5b855162461bcd60e51b815260208189015260118187015270109a59191a5b99c81a5cc818db1bdcd959607a1b6044820152606490fd5b845162461bcd60e51b815260208188015260158186015274109a59191a5b99c81c195c9a5bd90818db1bdcd959605a1b6044820152606490fd5b905034610627576020366003190112610627578035926109d5600f548510612a2a565b54336001600160a01b0391821614908115610a6a575b5015610a395750610a19600160ff6003610a0e610a07876126a2565b50966126a2565b500154169301612346565b91610a2d82519383859485528401906123ea565b90151560208301520390f35b6020606492519162461bcd60e51b8352820152600c60248201526b155b985d5d1a1bdc9a5e995960a21b6044820152fd5b9050610a75846126a2565b5054163314386109eb565b9190503461062757602091826003193601126108f757610a9e612669565b84546001600160a01b0392919083163303610bc057821693848652601081528386209260ff1993600285825416179055865b600f54811015610bb6578682610ae5836126a2565b5054161480610b9e575b610b0157610afc9061285d565b610ad0565b939495508190600e5460181c16926024600a610b1c876126a2565b5001549189895196879485936345f5448560e01b85528401525af18015610b9457610b5d575b5050600b610b516001926126a2565b50019182541617905551f35b81813d8311610b8d575b610b71818361227b565b81010312610b895751801515036108f7573880610b42565b8480fd5b503d610b67565b85513d88823e3d90fd5b5060ff600b610bac836126a2565b5001541615610aef565b5050505050905051f35b835162461bcd60e51b8152808301869052602260248201527f4f6e6c7920676f7665726e6d656e74206f6666696365722063616e2072656a6560448201526118dd60f21b6064820152608490fd5b9050346106275761012036600319011261062757610c2a612669565b9067ffffffffffffffff9060243582811161105557610c4c9036908301612442565b9160443581811161105157610c649036908401612442565b906064359360c43582811161104d57610c809036908601612442565b61010435966001600160a01b03908189168903611049578a546001600160a01b03191691161789558151938385116110365760019480610cc0875461220f565b948c601f9689888211610ffd575b5050506020908d878411600114610f925792610f87575b5050600019600383901b1c191690861b1785555b805190848211610f745781908b610d1160025461220f565b868111610f3a575b5050602090858311600114610ecd578c92610ec2575b5050600019600383901b1c191690851b176002555b85600355608435855560a4356006558051928311610eaf57610d67600c5461220f565b828111610e6b575b506020918311600114610dfe579282939183928a94610df3575b50501b916000199060031b1c191617600c555b60e435600d5584600b55620151808201809211610de05750600555600e80546001600160b81b03191660189290921b6301000000600160b81b031691909117905551f35b634e487b7160e01b855260119052602484fd5b015192503880610d89565b600c8952600080516020612b34833981519152919083601f1981168b5b87828210610e5257505010610e39575b505050811b01600c55610d9c565b015160001960f88460031b161c19169055388080610e2b565b8486015187559095019460209485019487935001610e1b565b610ea090600c8b52600080516020612b348339815191528480870160051c82019260208810610ea6575b0160051c01906126dd565b38610d6f565b92508192610e95565b634e487b7160e01b895260418552602489fd5b015190503880610d2f565b60028d52879350600080516020612b148339815191529190601f1984168e5b818110610f2257508411610f09575b505050811b01600255610d44565b015160001960f88460031b161c19169055388080610efb565b8284015185558a969094019360209384019301610eec565b6002610f6d9252600080516020612b148339815191528780860160051c82019260208710610ea6570160051c01906126dd565b8b38610d19565b634e487b7160e01b8b526041875260248bfd5b015190503880610ce5565b9190899450601f198416858452600080516020612bd4833981519152935b818110610fe557508411610fcc575b505050811b018555610cf9565b015160001960f88460031b161c19169055388080610fbf565b8284015185558b969094019360209384019301610fb0565b61102e9252600080516020612bd48339815191528880860160051c82019260208710610ea6570160051c01906126dd565b8c3889610cce565b634e487b7160e01b8a526041865260248afd5b8a80fd5b8880fd5b8680fd5b8580fd5b9050346106275760203660031901126106275735600754811015610627576101ec9060076101ff9452600080516020612b7483398151915201612346565b8391503461020357602092836003193601126106275781356110bc600f548210612a2a565b6110c5816126a2565b50546001600160a01b03169360066110dc836126a2565b500154936110e9836126a2565b500160056110f6846126a2565b50019360ff6008611106866126a2565b5001541695600961112760ff600361111d896126a2565b50015416966126a2565b5001549583546111368161242a565b946111438551968761227b565b81865286528a862086908c8088015b8484106111ed575050505050825194858b835491828152019282528b8220915b8c8282106111d957505050509260e085936111b0936111996111c9986111be98038761227b565b81519c8d9c8d528c01528a015260e089019061257d565b908782036060890152612635565b93608086019061267f565b151560a084015260c08301520390f35b835485529093019260019283019201611172565b60019182916111fb85612346565b8152019201920191908d90611152565b505034610203578160031936011261020357602090600f549051908152f35b5050346102035781600319360112610203576020906003549051908152f35b90503461062757826003193601126106275760209250549051908152f35b905034610627576020366003190112610627573580151580611292575b61128c575051f35b600b5551f35b50600b5415611284565b8284346104325760203660031901126104325782359067ffffffffffffffff821161043257506112d46020936112d992369101612442565b6128e6565b90519015158152f35b505034610203578160031936011261020357600e54905160189190911c6001600160a01b03168152602090f35b83833461020357602036600319011261020357823592611332600f548510612a2a565b60ff600861133f866126a2565b50015416600381101561145f5760010361142c5750600761135f846126a2565b50019281519261136e84612249565b6001845261137e60208501612a6c565b845461138981612a89565b915b8181106113f5576113df86866113b587876113a585612882565b526113af84612882565b506126a2565b50546001600160a01b03166113ed6113cb6127f9565b93835195869560608752606087019061257d565b9085820360208701526125d9565b918301520390f35b8061140c611406611427938a6121e1565b50612346565b611416828661288f565b52611421818561288f565b5061285d565b61138b565b6020606492519162461bcd60e51b8352820152600e60248201526d139bdd081d5b9d995c9a599a595960921b6044820152fd5b634e487b7160e01b845260218252602484fd5b50503461020357816003193601126102035780519082600c546114948161220f565b808552916001918083169081156106d457506001146114bf57505050610678826101ff94038361227b565b9450600c8552600080516020612b348339815191525b8286106114f2575050506106788260206101ff9582010194610666565b805460208787018101919091529095019481016114d5565b505034610203578160031936011261020357602090600d549051908152f35b905034610627578260031936011261062757825460035491546006546001600160a01b039092169361155961229d565b958151908060025461156a8161220f565b8085529160019180831690811561161d57506001146115d4575b50505090611598816115c09493038261227b565b6115b38251988998895260c060208a015260c08901906123ea565b91878303908801526123ea565b926060850152608084015260a08301520390f35b925060028352600080516020612b148339815191525b828410611605575050508101602001611598826115c0611584565b805460208587018101919091529093019281016115ea565b60ff191660208088019190915293151560051b8601909301935061159892508491506115c09050611584565b90503461062757602036600319011261062757611664612669565b83546001600160a01b0392908316330361168f57501682526010602052808220805460ff1916905551f35b608490602085519162461bcd60e51b8352820152602260248201527f4f6e6c7920676f7665726e6d656e74206f6666696365722063616e2076657269604482015261667960f01b6064820152fd5b9050346106275760203660031901126106275735600854811015610627576101ec9060086101ff9452600080516020612b9483398151915201612346565b905034610627576020366003190112610627573560095481101561062757600960209352600080516020612bb483398151915201549051908152f35b50503461020357816003193601126102035760209060ff600e5460101c1690519015158152f35b505034610203578160031936011261020357905490516001600160a01b039091168152602090f35b9050346106275760803660031901126106275767ffffffffffffffff8135818111610b89576117d8903690840161249e565b9060248035828111611051576117f1903690860161249e565b93604435838111611b8257611809903690830161251f565b9260643581811161104d57611821903690840161249e565b93855196600160401b97888111611ad05760075481600755808210611b00575b50602080980160078c52600080516020612b74833981519152898d925b848410611ae2575050505050805190888211611ad057879060085483600855808410611a45575b500160088b52600080516020612b94833981519152888c925b848410611a275750505050508051918211611a1557868211611a15578590600954836009558084106119f1575b500160098952885b8281106119d15750505082519485116119c05750508190600a5484600a5580851061193a575b500190600a8552600080516020612b5483398151915285925b84841061191e57868651f35b6001838261192e839451866126f4565b01920193019290611912565b600a875284600080516020612b5483398151915291820191015b81811061196157506118f9565b600191929350611971815461220f565b80611982575b500190839291611954565b601f90818111841461199a5750508781555b38611977565b836119b392848c52888c20920160051c820191016126dd565b8785812081835555611994565b634e487b7160e01b87526041905285fd5b8151600080516020612bb4833981519152820155908601906001016118d3565b611a0f9084600080516020612bb483398151915291820191016126dd565b386118cb565b634e487b7160e01b8952604183528389fd5b60019181611a37849351866126f4565b01920192019190899061189e565b60088d5283600080516020612b9483398151915291820191015b8d828210611a6e575050611885565b936001929394611a7e835461220f565b9081611a92575b5050500190899291611a5f565b601f8083118614611aab5750835550505b8a388f611a85565b611ac393828688945220920160051c820191016126dd565b8d8b812081835555611aa3565b634e487b7160e01b8b5260418552858bfd5b60019181611af2849351866126f4565b019201920191908a9061185e565b60078c5281600080516020612b7483398151915291820191015b818110611b275750611841565b808d611b356001935461220f565b80611b43575b505001611b1a565b601f908181118514611b5b57505081555b8d38611b3b565b611b779084845285602093848620920160051c820191016126dd565b812081835555611b54565b8780fd5b50503461020357816003193601126102035780519082600254611ba88161220f565b808552916001918083169081156106d45750600114611bd357505050610678826101ff94038361227b565b945060028552600080516020612b148339815191525b828610611c06575050506106788260206101ff9582010194610666565b80546020878701810191909152909501948101611be9565b90508234610432576020366003190112610432578135611c41600f548210612a2a565b60ff6008611c4e836126a2565b50015416926003938481101561145f57611dae57506007611c6e826126a2565b500192845193611c7d85612249565b60018552611c8d60208601612a6c565b8054611c9881612a89565b91855b828110611d8357505050611cae85612882565b52611cb884612882565b506005611cd8611cc7846126a2565b50546001600160a01b0316936126a2565b500190815491611ce78361242a565b94611cf48851968761227b565b838652601f19611d038561242a565b013660208801375b838110611d5a57611d3b876101ff8a8989611d49611d276127f9565b95845197889760808952608089019061257d565b9087820360208901526125d9565b928501528382036060850152612635565b80611d68611d7e92846121e1565b905490851b1c611d78828961288f565b5261285d565b611d0b565b80611d94611406611da993856121e1565b611d9e828761288f565b52611421818661288f565b611c9b565b606490602086519162461bcd60e51b8352820152600c60248201526b139bdd081d995c9a599a595960a21b6044820152fd5b8383346102035760603660031901126102035760249267ffffffffffffffff9290803585358581116108f757611e19903690840161249e565b946044359081116108f757611e31903690840161251f565b90600f5481101561206b5783546001600160a01b0316330361201d57611e56816126a2565b5090611e6960ff60038094015416612ad3565b8651835103611fe757611e7b906126a2565b5095838701805486825580611f72575b506005880191825487845580611f59575b50869787985b82518a1015611f4057611eb86108918b8561288f565b611ec28a8861288f565b518554600160401b811015611f2e57806001611ee192018855876121e1565b8192915490891b600019811b9283911b16911916179055611f028a8861288f565b518101809111611f1c57611f16909961285d565b98611ea2565b634e487b7160e01b8952601188528b89fd5b634e487b7160e01b8b5260418a528d8bfd5b60068b015560088a01805460ff19166001179055518790f35b83885260208820611f6c918101906126dd565b8a611e9c565b8187526020808820918201915b828110611f8d575050611e8b565b8082611f9b6001935461220f565b80611fa9575b505001611f7f565b8b601f8083118614611fc25750835550505b828e611fa1565b611fda93828688945220920160051c820191016126dd565b8983812081835555611fbb565b855162461bcd60e51b81526020818601526011818a0152704d69736d6174636865642061727261797360781b6044820152606490fd5b845162461bcd60e51b81526020818501526023818901527f4f6e6c7920676f7665726e6d656e74206f6666696365722063616e20646563726044820152621e5c1d60ea1b6064820152608490fd5b845162461bcd60e51b815260208185015260118189015270092dcecc2d8d2c840c4d2c840d2dcc8caf607b1b6044820152606490fd5b50503461020357816003193601126102035780519082600c546120c38161220f565b808552916001918083169081156106d457506001146120ee57505050610678826101ff94038361227b565b9450600c8552600080516020612b348339815191525b828610612121575050506106788260206101ff9582010194610666565b80546020878701810191909152909501948101612104565b50503461020357816003193601126102035760209060ff600e541690519015158152f35b50503461020357816003193601126102035760209060ff600e5460081c1690519015158152f35b5050346102035781600319360112610203576020906006549051908152f35b9050346106275760203660031901126106275735600a54811015610627576101ec90600a6101ff9452600080516020612b5483398151915201612346565b80548210156121f95760005260206000200190600090565b634e487b7160e01b600052603260045260246000fd5b90600182811c9216801561223f575b602083101461222957565b634e487b7160e01b600052602260045260246000fd5b91607f169161221e565b6040810190811067ffffffffffffffff82111761226557604052565b634e487b7160e01b600052604160045260246000fd5b90601f8019910116810190811067ffffffffffffffff82111761226557604052565b604051906000826001918254926122b38461220f565b8084529381811690811561232457506001146122d9575b506122d79250038361227b565b565b60008181529150600080516020612bd48339815191525b84831061230957506122d79350508101602001386122ca565b81935090816020925483858a010152019101909185926122f0565b9050602092506122d794915060ff191682840152151560051b820101386122ca565b906040519182600082549261235a8461220f565b9081845260019485811690816000146123c75750600114612384575b50506122d79250038361227b565b9093915060005260209081600020936000915b8183106123af5750506122d793508201013880612376565b85548884018501529485019487945091830191612397565b9150506122d794506020925060ff191682840152151560051b8201013880612376565b919082519283825260005b848110612416575050826000602080949584010152601f8019910116010190565b6020818301810151848301820152016123f5565b67ffffffffffffffff81116122655760051b60200190565b81601f820112156124995780359067ffffffffffffffff82116122655760405192612477601f8401601f19166020018561227b565b8284526020838301011161249957816000926020809301838601378301015290565b600080fd5b9080601f83011215612499578135906124b68261242a565b926124c4604051948561227b565b828452602092838086019160051b8301019280841161249957848301915b8483106124f25750505050505090565b823567ffffffffffffffff811161249957869161251484848094890101612442565b8152019201916124e2565b81601f82011215612499578035916125368361242a565b92612544604051948561227b565b808452602092838086019260051b820101928311612499578301905b82821061256e575050505090565b81358152908301908301612560565b908082519081815260208091019281808460051b8301019501936000915b8483106125ab5750505050505090565b90919293949584806125c9600193601f198682030187528a516123ea565b980193019301919493929061259b565b908082519081815260208091019281808460051b8301019501936000915b8483106126075750505050505090565b9091929394958480612625600193601f198682030187528a5161257d565b98019301930191949392906125f7565b90815180825260208080930193019160005b828110612655575050505090565b835185529381019392810192600101612647565b600435906001600160a01b038216820361249957565b90600382101561268c5752565b634e487b7160e01b600052602160045260246000fd5b600f548110156121f957600c90600f600052027f8d1108e10bcb7c27dddfc02ed9d693a074039d026cf4ea4240b40f7d581ac8020190600090565b8181106126e8575050565b600081556001016126dd565b919091825167ffffffffffffffff811161226557612712825461220f565b601f81116127bc575b50602080601f831160011461275857508192939460009261274d575b50508160011b916000199060031b1c1916179055565b015190503880612737565b90601f198316958460005282600020926000905b8882106127a45750508360019596971061278b575b505050811b019055565b015160001960f88460031b161c19169055388080612781565b8060018596829496860151815501950193019061276c565b6127e990836000526020600020601f840160051c810191602085106127ef575b601f0160051c01906126dd565b3861271b565b90915081906127dc565b600a54906128068261242a565b91612814604051938461227b565b808352600a60009081526020600080516020612b548339815191528186015b848410612841575050505050565b600183819261284f85612346565b815201920193019290612833565b600019811461286c5760010190565b634e487b7160e01b600052601160045260246000fd5b8051156121f95760200190565b80518210156121f95760209160051b010190565b8054600160401b811015612265576128c0916001820181556121e1565b9190916128d0576122d7916126f4565b634e487b7160e01b600052600060045260246000fd5b600380544211156129e55760055442116129a05760005b600f5481101561295b57612910816126a2565b50546001600160a01b0316331461292f5761292a9061285d565b6128fd565b61026161294992936002612942846126a2565b50016126f4565b50016001908160ff1982541617905590565b60405162461bcd60e51b815260206004820152601d60248201527f4e6f2062696420666f756e6420666f72207468697320616464726573730000006044820152606490fd5b60405162461bcd60e51b815260206004820152601e60248201527f4b6579207375626d697373696f6e20646561646c696e652070617373656400006044820152606490fd5b60405162461bcd60e51b815260206004820152601d60248201527f42696464696e6720706572696f64206e6f742079657420636c6f7365640000006044820152606490fd5b15612a3157565b60405162461bcd60e51b8152602060048201526013602482015272496e646578206f7574206f6620626f756e647360681b6044820152606490fd5b60005b60208110612a7b575050565b606082820152602001612a6f565b90612a938261242a565b612aa0604051918261227b565b8281528092612ab1601f199161242a565b019060005b828110612ac257505050565b806060602080938501015201612ab6565b15612ada57565b60405162461bcd60e51b815260206004820152601160248201527012d95e481b9bdd081cdd589b5a5d1d1959607a1b6044820152606490fdfe405787fa12a823e0f2b7631cc41b3ba8828b3321ca811111fa75cd3aa3bb5acedf6966c971051c3d54ec59162606531493a51404a002842f56009d7e5cf4a8c7c65a7bb8d6351c1cf70c95a316cc6a92839c986682d98bc35f958f4883f9d2a8a66cc928b5edb82af9bd49922954155ab7b0942694bea4ce44661d9a8736c688f3f7a9fe364faab93b216da50a3214154f22a0a2b415b23a84c8169e8b636ee36e1540171b6c0c960b71a7020d9f60077f6af931a8bbf590da0223dacf75c7afb10e2d527612073b26eecdfd717e6a320cf44b4afac2b0732d9fcbe2b7fa0cf6a2646970667358221220c493d9f884e536b18d306a6f130ebd582db1cf0c6c8654f6d041ab66fd8ce60364736f6c63430008100033",
  "immutableReferences": {},
  "source": "// SPDX-License-Identifier: GPL-3.0\npragma solidity ^0.8.0;\npragma experimental ABIEncoderV2;\n\nimport \"./StakeManager.sol\";\n\ncontract Tender {   \n    address public governmentOfficerAddress;\n    string public tenderName; \n    string public tenderId;\n    uint256 public bidSubmissionClosingDate;\n    uint256 public bidOpeningDate;\n    uint256 public keySubmissionDeadline; // New: deadline for key submission\n    uint256 public covers;\n    string[] public clauses;\n    string[] public taskName;\n    uint256[] public taskDays;\n    string[] public constraints;\n    uint256 finalTenderAmount;\n    string public tenderCategory; // e.g., \"Roads\", \"Bridges\", \"Buildings\"\n    uint256 public minimumEMD; // Minimum Earnest Money Deposit required\n    \n    // Bid encryption/decryption system\n    bool public biddingClosed;\n    bool public keysSubmitted;\n    bool public bidsDecrypted;\n    \n    StakeManager public stakeManager;\n\n    struct ContractorProposal {\n        address contractorAddress;\n        string encryptedBid; // Encrypted bid data\n        string bidKey; // Decryption key (submitted after bidding period)\n        bool keySubmitted;\n        string[] quotationClause; // Decrypted data\n        uint256[] quotationAmount; // Decrypted data\n        uint256 proposalAmount; // Decrypted data\n        string[] constraintDocuments;\n        ProposalStatus status;\n        uint256 emdAmount; // EMD deposited by this bidder\n        uint256 emdStakeId; // Stake ID for EMD\n        bool emdRefunded;\n    }\n\n    enum ProposalStatus {\n        verified,\n        unverified,\n        rejected\n    }\n\n    ContractorProposal[] public allContractorProposals;\n    mapping (address => ProposalStatus) isProposalVerified;\n\n    function getTenderName() public view returns (string memory) {\n        return tenderName;\n    }\n\n    function setTenderBasic(\n        address _governmentOfficerAddress, \n        string memory _tenderName, \n        string memory _tenderId, \n        uint256 _bidSubmissionClosingDate, \n        uint256 _bidOpeningDate, \n        uint256 _covers,\n        string memory _tenderCategory,\n        uint256 _minimumEMD,\n        address _stakeManagerAddress\n    ) public {\n        governmentOfficerAddress = _governmentOfficerAddress;   \n        tenderName = _tenderName;\n        tenderId = _tenderId;\n        bidSubmissionClosingDate = _bidSubmissionClosingDate;\n        bidOpeningDate = _bidOpeningDate;\n        covers = _covers;\n        tenderCategory = _tenderCategory;\n        minimumEMD = _minimumEMD;\n        finalTenderAmount = 0;\n        \n        // Key submission deadline is 24 hours after bid closing\n        keySubmissionDeadline = _bidSubmissionClosingDate + 86400; // 24 hours\n        \n        biddingClosed = false;\n        keysSubmitted = false;\n        bidsDecrypted = false;\n        \n        stakeManager = StakeManager(_stakeManagerAddress);\n    }\n    \n    function setTenderAdvanced(string[] memory  _clauses,\n    string[] memory _taskName, uint256[] memory  _taskDays,\n    string[] memory _constraints) public {\n        clauses = _clauses;\n        taskName = _taskName;\n        taskDays = _taskDays;\n        constraints = _constraints;\n    }\n\n    function getTenderBasic() public view returns (address, string memory, string memory,\n    uint, uint, uint) {\n        return (governmentOfficerAddress, tenderName, tenderId, \n        bidSubmissionClosingDate, bidOpeningDate, covers);\n    }\n\n    function getTenderAdvanced() public view returns (string[] memory, string[] memory, uint256[] memory, string[] memory) {\n        return (clauses, taskName, taskDays, constraints );\n    }\n\n    function submitEncryptedBid(\n        address _contractorAddress,\n        string memory _encryptedBid,\n        string[] memory _constraintDocuments\n    ) public payable returns (bool) {\n        require(block.timestamp <= bidSubmissionClosingDate, \"Bidding period closed\");\n        require(!biddingClosed, \"Bidding is closed\");\n        require(msg.value >= minimumEMD, \"Insufficient EMD\");\n        \n        // Create stake for EMD\n        uint256 emdStakeId = stakeManager.createStake{value: msg.value}(\n            StakeManager.StakeType.CONTRACTOR_EMD,\n            address(this)\n        );\n        \n        allContractorProposals.push();\n        ContractorProposal storage temp = allContractorProposals[allContractorProposals.length - 1];\n        temp.contractorAddress = _contractorAddress;\n        temp.encryptedBid = _encryptedBid;\n        temp.keySubmitted = false;\n        temp.emdAmount = msg.value;\n        temp.emdStakeId = emdStakeId;\n        temp.emdRefunded = false;\n        \n        for (uint j=0; j < _constraintDocuments.length; j++) {\n            temp.constraintDocuments.push(_constraintDocuments[j]);\n        }\n        \n        temp.status = ProposalStatus.unverified;\n        return true;\n    }\n    \n    function submitBidKey(string memory _bidKey) public returns (bool) {\n        require(block.timestamp > bidSubmissionClosingDate, \"Bidding period not yet closed\");\n        require(block.timestamp <= keySubmissionDeadline, \"Key submission deadline passed\");\n        \n        // Find the bidder's proposal\n        for (uint i = 0; i < allContractorProposals.length; i++) {\n            if (allContractorProposals[i].contractorAddress == msg.sender) {\n                allContractorProposals[i].bidKey = _bidKey;\n                allContractorProposals[i].keySubmitted = true;\n                return true;\n            }\n        }\n        \n        revert(\"No bid found for this address\");\n    }\n\n    function getBiddingCloseDate() public view returns (uint256) {\n        return bidSubmissionClosingDate;\n    }\n    \n    function getKeySubmissionDeadline() public view returns (uint256) {\n        return keySubmissionDeadline;\n    }\n    \n    function getTenderCategory() public view returns (string memory) {\n        return tenderCategory;\n    }\n    \n    function getMinimumEMD() public view returns (uint256) {\n        return minimumEMD;\n    }\n\n    function getProposalCount() public view returns (uint256) {\n        return allContractorProposals.length;\n    }\n\n    function setTenderAmount(uint256 amount) public {\n        if (amount != 0 && finalTenderAmount == 0)\n            finalTenderAmount = amount;\n    }\n\n    function getProposalsToVerify(uint index) public view returns (string[] memory, string[][] memory, address) {\n        require(index < allContractorProposals.length, \"Index out of bounds\");\n        require(allContractorProposals[index].status == ProposalStatus.unverified, \"Not unverified\");\n        // Build a memory copy of constraintDocuments as string[][] of length 1\n        string[] storage srcDocs = allContractorProposals[index].constraintDocuments;\n        string[][] memory docs = new string[][](1);\n        string[] memory inner = new string[](srcDocs.length);\n        for (uint i = 0; i < srcDocs.length; i++) {\n            inner[i] = srcDocs[i];\n        }\n        docs[0] = inner;\n        address addr = allContractorProposals[index].contractorAddress;\n        return (constraints, docs, addr);\n    }\n\n    function decryptBid(\n        uint256 _bidIndex,\n        string[] memory _quotationClause,\n        uint256[] memory _quotationAmount\n    ) public {\n        require(_bidIndex < allContractorProposals.length, \"Invalid bid index\");\n        require(msg.sender == governmentOfficerAddress, \"Only government officer can decrypt\");\n        require(allContractorProposals[_bidIndex].keySubmitted, \"Key not submitted\");\n        require(_quotationClause.length == _quotationAmount.length, \"Mismatched arrays\");\n        \n        ContractorProposal storage proposal = allContractorProposals[_bidIndex];\n        \n        // Clear existing data\n        delete proposal.quotationClause;\n        delete proposal.quotationAmount;\n        \n        uint256 total = 0;\n        for (uint i = 0; i < _quotationClause.length; i++) {\n            proposal.quotationClause.push(_quotationClause[i]);\n            proposal.quotationAmount.push(_quotationAmount[i]);\n            total += _quotationAmount[i];\n        }\n        \n        proposal.proposalAmount = total;\n        proposal.status = ProposalStatus.unverified;\n    }\n    \n    function verifyProposal(address contractorAddress) public {\n        require(msg.sender == governmentOfficerAddress, \"Only government officer can verify\");\n        isProposalVerified[contractorAddress] = ProposalStatus.verified;\n    }\n\n    function rejectProposal(address contractorAddress) public {\n        require(msg.sender == governmentOfficerAddress, \"Only government officer can reject\");\n        isProposalVerified[contractorAddress] = ProposalStatus.rejected;\n        \n        // Refund EMD for rejected proposals\n        for (uint i = 0; i < allContractorProposals.length; i++) {\n            if (allContractorProposals[i].contractorAddress == contractorAddress && !allContractorProposals[i].emdRefunded) {\n                stakeManager.releaseStake(allContractorProposals[i].emdStakeId);\n                allContractorProposals[i].emdRefunded = true;\n                break;\n            }\n        }\n    }\n\n    function getProposal(uint256 index) public view returns (\n        address, uint256, string[] memory, uint256[] memory, ProposalStatus, bool, uint256\n    ) {\n        require(index < allContractorProposals.length, \"Index out of bounds\");\n        return (\n            allContractorProposals[index].contractorAddress, \n            allContractorProposals[index].proposalAmount, \n            allContractorProposals[index].quotationClause,\n            allContractorProposals[index].quotationAmount, \n            allContractorProposals[index].status,\n            allContractorProposals[index].keySubmitted,\n            allContractorProposals[index].emdAmount\n        );\n    }\n    \n    function getEncryptedBid(uint256 index) public view returns (string memory, bool) {\n        require(index < allContractorProposals.length, \"Index out of bounds\");\n        require(msg.sender == governmentOfficerAddress || msg.sender == allContractorProposals[index].contractorAddress, \"Unauthorized\");\n        return (allContractorProposals[index].encryptedBid, allContractorProposals[index].keySubmitted);\n    }\n    \n    function getBidKey(uint256 index) public view returns (string memory) {\n        require(index < allContractorProposals.length, \"Index out of bounds\");\n        require(msg.sender == governmentOfficerAddress, \"Only government officer can view keys\");\n        require(allContractorProposals[index].keySubmitted, \"Key not submitted\");\n        return allContractorProposals[index].bidKey;\n    }\n\n    function getVerifiedProposals(uint index) public view returns (string[] memory, string[][] memory, address, uint[] memory) {\n        require(index < allContractorProposals.length, \"Index out of bounds\");\n        require(allContractorProposals[index].status == ProposalStatus.verified, \"Not verified\");\n        string[] storage srcDocs = allContractorProposals[index].constraintDocuments;\n        string[][] memory docs = new string[][](1);\n        string[] memory inner = new string[](srcDocs.length);\n        for (uint i = 0; i < srcDocs.length; i++) {\n            inner[i] = srcDocs[i];\n        }\n        docs[0] = inner;\n        address addr = allContractorProposals[index].contractorAddress;\n        uint256[] storage srcAmts = allContractorProposals[index].quotationAmount;\n        uint[] memory amts = new uint[](srcAmts.length);\n        for (uint j = 0; j < srcAmts.length; j++) {\n            amts[j] = srcAmts[j];\n        }\n        return (constraints, docs, addr, amts);\n    }\n    \n}\n",
  "sourcePath": "/home/aniketdatar/Desktop/Other/tendersystem-blockchain/contracts/Tender.sol",
  "compiler": {
    "name": "solc",
    "version": "0.8.16+commit.07a7930e.Emscripten.clang"
  },
  "schemaVersion": "3.4.9",
  "updatedAt": "2025-08-19T10:17:23.137Z",
  "networkType": "ethereum",
  "devdoc": {
    "kind": "dev",
    "methods": {},
    "version": 1
  },
  "userdoc": {
    "kind": "user",
    "methods": {},
    "version": 1
  }
}