{
  "contractName": "TenderRepo",
  "abi": [
    {
      "inputs": [
        {
          "internalType": "address",
          "name": "",
          "type": "address"
        }
      ],
      "name": "tenderMapping",
      "outputs": [
        {
          "internalType": "enum TenderRepo.TenderStatus",
          "name": "",
          "type": "uint8"
        }
      ],
      "stateMutability": "view",
      "type": "function",
      "constant": true
    },
    {
      "inputs": [
        {
          "internalType": "uint256",
          "name": "",
          "type": "uint256"
        }
      ],
      "name": "tenders",
      "outputs": [
        {
          "internalType": "address",
          "name": "",
          "type": "address"
        }
      ],
      "stateMutability": "view",
      "type": "function",
      "constant": true
    },
    {
      "inputs": [
        {
          "internalType": "address",
          "name": "tenderToAppend",
          "type": "address"
        }
      ],
      "name": "newTender",
      "outputs": [
        {
          "internalType": "bool",
          "name": "",
          "type": "bool"
        }
      ],
      "stateMutability": "nonpayable",
      "type": "function"
    },
    {
      "inputs": [
        {
          "internalType": "address",
          "name": "tenderAddress",
          "type": "address"
        }
      ],
      "name": "getTenderStatus",
      "outputs": [
        {
          "internalType": "enum TenderRepo.TenderStatus",
          "name": "",
          "type": "uint8"
        }
      ],
      "stateMutability": "view",
      "type": "function",
      "constant": true
    },
    {
      "inputs": [],
      "name": "getAllTenders",
      "outputs": [
        {
          "internalType": "address[]",
          "name": "",
          "type": "address[]"
        }
      ],
      "stateMutability": "view",
      "type": "function",
      "constant": true
    },
    {
      "inputs": [],
      "name": "getTenderCount",
      "outputs": [
        {
          "internalType": "uint256",
          "name": "",
          "type": "uint256"
        }
      ],
      "stateMutability": "view",
      "type": "function",
      "constant": true
    },
    {
      "inputs": [
        {
          "internalType": "uint256",
          "name": "index",
          "type": "uint256"
        }
      ],
      "name": "getOngoingTenders",
      "outputs": [
        {
          "internalType": "address",
          "name": "",
          "type": "address"
        }
      ],
      "stateMutability": "view",
      "type": "function",
      "constant": true
    },
    {
      "inputs": [
        {
          "internalType": "address",
          "name": "tenderAddress",
          "type": "address"
        }
      ],
      "name": "updateTenderStatusToBiddingComplete",
      "outputs": [],
      "stateMutability": "nonpayable",
      "type": "function"
    },
    {
      "inputs": [
        {
          "internalType": "address",
          "name": "tenderAddress",
          "type": "address"
        }
      ],
      "name": "updateTenderStatusToDeployed",
      "outputs": [],
      "stateMutability": "nonpayable",
      "type": "function"
    }
  ],
  "bytecode": "0x608060405234801561001057600080fd5b5061049f806100206000396000f3fe608060405234801561001057600080fd5b50600436106100935760003560e01c8063465e1def11610066578063465e1def1461015b5780635850b3831461018657806380650c86146101975780639f53827f146101aa578063b6af93c8146101e357600080fd5b806304a01abe146100985780631ee1acb6146100ad5780632358c0461461013357806336b4181c14610148575b600080fd5b6100ab6100a636600461037f565b610206565b005b61011e6100bb36600461037f565b60008054600180820183557f290decd9548b62a8d60345a988386fc84ba6bc95484008f6362f93160ef3e56390910180546001600160a01b0319166001600160a01b03949094169384179055918152602082905260409020805460ff1916905590565b60405190151581526020015b60405180910390f35b61013b610237565b60405161012a91906103af565b6100ab61015636600461037f565b610299565b61016e6101693660046103fc565b6102c1565b6040516001600160a01b03909116815260200161012a565b60005460405190815260200161012a565b61016e6101a53660046103fc565b6102eb565b6101d66101b836600461037f565b6001600160a01b031660009081526001602052604090205460ff1690565b60405161012a919061042b565b6101d66101f136600461037f565b60016020526000908152604090205460ff1681565b6001600160a01b0381166000908152600160208190526040909120805460029260ff1990911690835b021790555050565b6060600080548060200260200160405190810160405280929190818152602001828054801561028f57602002820191906000526020600020905b81546001600160a01b03168152600190910190602001808311610271575b5050505050905090565b6001600160a01b0381166000908152600160208190526040909120805460ff1916828061022f565b600081815481106102d157600080fd5b6000918252602090912001546001600160a01b0316905081565b600080548211156102fb57600080fd5b60006001600080858154811061031357610313610453565b60009182526020808320909101546001600160a01b0316835282019290925260400190205460ff16600281111561034c5761034c610415565b03610093576000828154811061036457610364610453565b6000918252602090912001546001600160a01b031692915050565b60006020828403121561039157600080fd5b81356001600160a01b03811681146103a857600080fd5b9392505050565b6020808252825182820181905260009190848201906040850190845b818110156103f05783516001600160a01b0316835292840192918401916001016103cb565b50909695505050505050565b60006020828403121561040e57600080fd5b5035919050565b634e487b7160e01b600052602160045260246000fd5b602081016003831061044d57634e487b7160e01b600052602160045260246000fd5b91905290565b634e487b7160e01b600052603260045260246000fdfea264697066735822122032c68b4c828f4e515d36d08e6687d40ee420d8a533c75241ee20aecc9f1d83de64736f6c63430008100033",
  "immutableReferences": {},
  "source": "// SPDX-License-Identifier: GPL-3.0\npragma solidity ^0.8.0;\npragma experimental ABIEncoderV2;\n\n\ncontract TenderRepo {\n    address[] public tenders;\n    \n    enum TenderStatus {\n        activeOnBid,\n        biddingComplete,\n        contractDeployed\n    }\n\n    mapping (address => TenderStatus) public tenderMapping;\n\n    function newTender(address tenderToAppend) public returns (bool) {\n        tenders.push(tenderToAppend);\n        tenderMapping[tenderToAppend] = TenderStatus.activeOnBid;\n        return true;\n    }\n\n    function getTenderStatus(address tenderAddress) public view returns (TenderStatus) {\n        return tenderMapping[tenderAddress];\n    }\n\n    function getAllTenders() public view returns (address[] memory ) {\n        //to be used by verifier\n        return tenders;\n    }\n\n    function getTenderCount() public view returns (uint256) {\n        return tenders.length;\n    }\n\n    function getOngoingTenders(uint256 index) public view returns (address) {\n        //loop at web3\n        if (index > tenders.length) revert();\n        if (tenderMapping[tenders[index]] == TenderStatus.activeOnBid) {\n            return tenders[index]; \n        }\n        revert();\n    }\n\n    function updateTenderStatusToBiddingComplete(address tenderAddress) public {\n        tenderMapping[tenderAddress] = TenderStatus.biddingComplete;\n    }\n\n    function updateTenderStatusToDeployed(address tenderAddress) public {\n        tenderMapping[tenderAddress] = TenderStatus.contractDeployed;\n    }\n}",
  "sourcePath": "/home/aniketdatar/Desktop/Other/tendersystem-blockchain/contracts/TenderRepo.sol",
  "compiler": {
    "name": "solc",
    "version": "0.8.16+commit.07a7930e.Emscripten.clang"
  },
  "schemaVersion": "3.4.9",
  "updatedAt": "2025-08-19T10:17:23.116Z",
  "networkType": "ethereum",
  "devdoc": {
    "kind": "dev",
    "methods": {},
    "version": 1
  },
  "userdoc": {
    "kind": "user",
    "methods": {},
    "version": 1
  }
}