{
  "contractName": "Verifier",
  "abi": [
    {
      "inputs": [
        {
          "internalType": "uint256",
          "name": "",
          "type": "uint256"
        }
      ],
      "name": "assignedContracts",
      "outputs": [
        {
          "internalType": "address",
          "name": "",
          "type": "address"
        }
      ],
      "stateMutability": "view",
      "type": "function",
      "constant": true
    },
    {
      "inputs": [],
      "name": "correctVerifications",
      "outputs": [
        {
          "internalType": "uint256",
          "name": "",
          "type": "uint256"
        }
      ],
      "stateMutability": "view",
      "type": "function",
      "constant": true
    },
    {
      "inputs": [
        {
          "internalType": "uint256",
          "name": "",
          "type": "uint256"
        }
      ],
      "name": "expertiseDomains",
      "outputs": [
        {
          "internalType": "string",
          "name": "",
          "type": "string"
        }
      ],
      "stateMutability": "view",
      "type": "function",
      "constant": true
    },
    {
      "inputs": [],
      "name": "isActive",
      "outputs": [
        {
          "internalType": "bool",
          "name": "",
          "type": "bool"
        }
      ],
      "stateMutability": "view",
      "type": "function",
      "constant": true
    },
    {
      "inputs": [
        {
          "internalType": "address",
          "name": "",
          "type": "address"
        }
      ],
      "name": "isAssignedToContract",
      "outputs": [
        {
          "internalType": "bool",
          "name": "",
          "type": "bool"
        }
      ],
      "stateMutability": "view",
      "type": "function",
      "constant": true
    },
    {
      "inputs": [],
      "name": "isRegistered",
      "outputs": [
        {
          "internalType": "bool",
          "name": "",
          "type": "bool"
        }
      ],
      "stateMutability": "view",
      "type": "function",
      "constant": true
    },
    {
      "inputs": [],
      "name": "registrationStakeId",
      "outputs": [
        {
          "internalType": "uint256",
          "name": "",
          "type": "uint256"
        }
      ],
      "stateMutability": "view",
      "type": "function",
      "constant": true
    },
    {
      "inputs": [],
      "name": "reputationScore",
      "outputs": [
        {
          "internalType": "uint256",
          "name": "",
          "type": "uint256"
        }
      ],
      "stateMutability": "view",
      "type": "function",
      "constant": true
    },
    {
      "inputs": [],
      "name": "slashedVerifications",
      "outputs": [
        {
          "internalType": "uint256",
          "name": "",
          "type": "uint256"
        }
      ],
      "stateMutability": "view",
      "type": "function",
      "constant": true
    },
    {
      "inputs": [],
      "name": "stakeManager",
      "outputs": [
        {
          "internalType": "contract StakeManager",
          "name": "",
          "type": "address"
        }
      ],
      "stateMutability": "view",
      "type": "function",
      "constant": true
    },
    {
      "inputs": [],
      "name": "totalVerifications",
      "outputs": [
        {
          "internalType": "uint256",
          "name": "",
          "type": "uint256"
        }
      ],
      "stateMutability": "view",
      "type": "function",
      "constant": true
    },
    {
      "inputs": [
        {
          "internalType": "address",
          "name": "",
          "type": "address"
        },
        {
          "internalType": "uint256",
          "name": "",
          "type": "uint256"
        }
      ],
      "name": "verificationHistory",
      "outputs": [
        {
          "internalType": "uint256",
          "name": "",
          "type": "uint256"
        }
      ],
      "stateMutability": "view",
      "type": "function",
      "constant": true
    },
    {
      "inputs": [
        {
          "internalType": "address",
          "name": "_walletAddress",
          "type": "address"
        },
        {
          "internalType": "string",
          "name": "_email",
          "type": "string"
        },
        {
          "internalType": "string",
          "name": "_phoneNumber",
          "type": "string"
        },
        {
          "internalType": "string",
          "name": "_name",
          "type": "string"
        },
        {
          "internalType": "string",
          "name": "_employeeId",
          "type": "string"
        },
        {
          "internalType": "string[]",
          "name": "_expertiseDomains",
          "type": "string[]"
        },
        {
          "internalType": "address",
          "name": "_stakeManagerAddress",
          "type": "address"
        }
      ],
      "name": "setVerifier",
      "outputs": [
        {
          "internalType": "bool",
          "name": "",
          "type": "bool"
        }
      ],
      "stateMutability": "payable",
      "type": "function",
      "payable": true
    },
    {
      "inputs": [
        {
          "internalType": "address",
          "name": "govtOfficer",
          "type": "address"
        }
      ],
      "name": "verifyGovernmentOfficer",
      "outputs": [
        {
          "internalType": "bool",
          "name": "",
          "type": "bool"
        }
      ],
      "stateMutability": "nonpayable",
      "type": "function"
    },
    {
      "inputs": [
        {
          "internalType": "address",
          "name": "contractor",
          "type": "address"
        }
      ],
      "name": "verifyContractor",
      "outputs": [
        {
          "internalType": "bool",
          "name": "",
          "type": "bool"
        }
      ],
      "stateMutability": "nonpayable",
      "type": "function"
    },
    {
      "inputs": [
        {
          "internalType": "address",
          "name": "tender",
          "type": "address"
        }
      ],
      "name": "verifyProposalDocuments",
      "outputs": [
        {
          "internalType": "bool",
          "name": "",
          "type": "bool"
        }
      ],
      "stateMutability": "nonpayable",
      "type": "function"
    },
    {
      "inputs": [
        {
          "internalType": "address",
          "name": "_contractAddress",
          "type": "address"
        }
      ],
      "name": "assignToContract",
      "outputs": [
        {
          "internalType": "bool",
          "name": "",
          "type": "bool"
        }
      ],
      "stateMutability": "nonpayable",
      "type": "function"
    },
    {
      "inputs": [
        {
          "internalType": "address",
          "name": "_contractAddress",
          "type": "address"
        }
      ],
      "name": "unassignFromContract",
      "outputs": [
        {
          "internalType": "bool",
          "name": "",
          "type": "bool"
        }
      ],
      "stateMutability": "nonpayable",
      "type": "function"
    },
    {
      "inputs": [
        {
          "internalType": "address",
          "name": "_contractAddress",
          "type": "address"
        },
        {
          "internalType": "uint256",
          "name": "_taskIndex",
          "type": "uint256"
        },
        {
          "internalType": "bool",
          "name": "_wasCorrect",
          "type": "bool"
        }
      ],
      "name": "recordVerification",
      "outputs": [],
      "stateMutability": "nonpayable",
      "type": "function"
    },
    {
      "inputs": [],
      "name": "getVerifierProfile",
      "outputs": [
        {
          "internalType": "string",
          "name": "",
          "type": "string"
        },
        {
          "internalType": "string[]",
          "name": "",
          "type": "string[]"
        },
        {
          "internalType": "uint256",
          "name": "",
          "type": "uint256"
        },
        {
          "internalType": "bool",
          "name": "",
          "type": "bool"
        },
        {
          "internalType": "uint256",
          "name": "",
          "type": "uint256"
        },
        {
          "internalType": "uint256",
          "name": "",
          "type": "uint256"
        },
        {
          "internalType": "uint256",
          "name": "",
          "type": "uint256"
        }
      ],
      "stateMutability": "view",
      "type": "function",
      "constant": true
    },
    {
      "inputs": [],
      "name": "getAssignedContracts",
      "outputs": [
        {
          "internalType": "address[]",
          "name": "",
          "type": "address[]"
        }
      ],
      "stateMutability": "view",
      "type": "function",
      "constant": true
    },
    {
      "inputs": [
        {
          "internalType": "address",
          "name": "_contractAddress",
          "type": "address"
        }
      ],
      "name": "getVerificationHistory",
      "outputs": [
        {
          "internalType": "uint256[]",
          "name": "",
          "type": "uint256[]"
        }
      ],
      "stateMutability": "view",
      "type": "function",
      "constant": true
    },
    {
      "inputs": [],
      "name": "getExpertiseDomains",
      "outputs": [
        {
          "internalType": "string[]",
          "name": "",
          "type": "string[]"
        }
      ],
      "stateMutability": "view",
      "type": "function",
      "constant": true
    },
    {
      "inputs": [],
      "name": "myVerifiedDocuments",
      "outputs": [
        {
          "internalType": "address[]",
          "name": "",
          "type": "address[]"
        }
      ],
      "stateMutability": "view",
      "type": "function",
      "constant": true
    },
    {
      "inputs": [],
      "name": "myVerifiedOfficers",
      "outputs": [
        {
          "internalType": "address[]",
          "name": "",
          "type": "address[]"
        }
      ],
      "stateMutability": "view",
      "type": "function",
      "constant": true
    },
    {
      "inputs": [],
      "name": "myVerifiedContractors",
      "outputs": [
        {
          "internalType": "address[]",
          "name": "",
          "type": "address[]"
        }
      ],
      "stateMutability": "view",
      "type": "function",
      "constant": true
    },
    {
      "inputs": [],
      "name": "deactivateVerifier",
      "outputs": [],
      "stateMutability": "nonpayable",
      "type": "function"
    },
    {
      "inputs": [],
      "name": "reactivateVerifier",
      "outputs": [],
      "stateMutability": "payable",
      "type": "function",
      "payable": true
    },
    {
      "inputs": [],
      "name": "logout",
      "outputs": [
        {
          "internalType": "bool",
          "name": "",
          "type": "bool"
        }
      ],
      "stateMutability": "nonpayable",
      "type": "function"
    }
  ],
  "bytecode": "0x6080806040523461001657611d21908161001c8239f35b600080fdfe608080604052600436101561001357600080fd5b60003560e01c908162dbada7146117d657508063026556d11461178357806308793b9a146116ff5780630cb843e0146116a4578063131b592c1461160c5780631518e34d146115005780631f3c99c3146114e457806320524a2a14611430578063223668441461140d57806322f3e2d4146113e75780632e0784521461134f578063534ca787146112ca57806360a7fc1f146112ac5780636b438e40146112375780637542ff951461120e578063873fcabf146111b657806390c6759c146110b0578063a293083a1461102c578063ac90c1401461100e578063ad43f2ec14610f8a578063b6fa75b814610e58578063c11d996214610e3a578063c28f653314610e1c578063cb1300b414610dfe578063dc7a72e714610d50578063ed015aa614610cbc578063f0a21a8f14610c7d578063f4d2d7b214610af85763f5c1e63a1461015d57600080fd5b60e03660031901126104d657610171611b94565b6024356001600160401b0381116104d657610190903690600401611baa565b6044356001600160401b0381116104d6576101af903690600401611baa565b6064356001600160401b0381116104d6576101ce903690600401611baa565b906084356001600160401b0381116104d6576101ee903690600401611baa565b6001600160401b0360a435116104d65736602360a4350112156104d65760a435600401359261021c84611c00565b9261022a6040519485611a89565b8484526020840180953660248260051b60a4350101116104d657602460a43501915b60248260051b60a43501018310610ac557506001600160a01b039860c435989250905088881688036104d65760ff600a5416610a8057670de0b6b3a76400003410610a3b5788166bffffffffffffffffffffffff60a01b60005416176000558051906001600160401b03821161060f5781906102c9600154611a4f565b601f81116109ec575b50602090601f831160011461096257600092610957575b50508160011b916000199060031b1c1916176001555b8051906001600160401b03821161060f57819061031d600254611a4f565b601f8111610908575b50602090601f831160011461087e57600092610873575b50508160011b916000199060031b1c1916176002555b8051906001600160401b03821161060f578190610371600354611a4f565b601f8111610824575b50602090601f831160011461079a5760009261078f575b50508160011b916000199060031b1c1916176003555b8051906001600160401b03821161060f5781906103c5600454611a4f565b601f8111610740575b50602090601f83116001146106b6576000926106ab575b50508160011b916000199060031b1c1916176004555b5190600160401b821161060f5760085482600855808310610625575b50906008600052600080516020611ccc833981519152916000905b8282106104ef576101f4600955600a805461ffff1916610101179055600f80546001600160a01b03191686881617905560405163cbf1d91f60e01b815260006004820152306024820152602081888189816044810103923491165af19081156104e3576000916104ac575b50600b55602060405160018152f35b90506020813d6020116104db575b816104c760209383611a89565b810103126104d657518161049d565b600080fd5b3d91506104ba565b6040513d6000823e3d90fd5b80518051906001600160401b03821161060f5761050c8654611a4f565b601f81116105d2575b50602090601f8311600114610562579282600194936020938695600092610557575b5050600019600383901b1c191690841b1787555b01940191019092610432565b015190503880610537565b908660005260206000209160005b601f19851681106105ba575083602093600196938796938794601f198116106105a1575b505050811b01875561054b565b015160001960f88460031b161c19169055388080610594565b91926020600181928685015181550194019201610570565b6105ff90876000526020600020601f850160051c81019160208610610605575b601f0160051c0190611c17565b38610515565b90915081906105f2565b634e487b7160e01b600052604160045260246000fd5b6008600052600080516020611ccc833981519152908382015b818301811061064e575050610417565b8061065b60019254611a4f565b80610668575b500161063e565b601f8111831461067e5750600081555b38610661565b61069c908260005283601f6020600020920160051c82019101611c17565b60006020812081835555610678565b0151905038806103e5565b925060046000527f8a35acfbc15ff81a39ae7d344fd709f28e8600b4aa8c65c6b64bfe7fe36bd19b906000935b601f1984168510610725576001945083601f1981161061070c575b505050811b016004556103fb565b015160001960f88460031b161c191690553880806106fe565b818101518355602094850194600190930192909101906106e3565b6107899060046000527f8a35acfbc15ff81a39ae7d344fd709f28e8600b4aa8c65c6b64bfe7fe36bd19b601f850160051c8101916020861061060557601f0160051c0190611c17565b386103ce565b015190503880610391565b925060036000527fc2575a0e9e593c00f959f8c92f12db2869c3395a3b0502d05e2516446f71f85b906000935b601f1984168510610809576001945083601f198116106107f0575b505050811b016003556103a7565b015160001960f88460031b161c191690553880806107e2565b818101518355602094850194600190930192909101906107c7565b61086d9060036000527fc2575a0e9e593c00f959f8c92f12db2869c3395a3b0502d05e2516446f71f85b601f850160051c8101916020861061060557601f0160051c0190611c17565b3861037a565b01519050388061033d565b925060026000527f405787fa12a823e0f2b7631cc41b3ba8828b3321ca811111fa75cd3aa3bb5ace906000935b601f19841685106108ed576001945083601f198116106108d4575b505050811b01600255610353565b015160001960f88460031b161c191690553880806108c6565b818101518355602094850194600190930192909101906108ab565b6109519060026000527f405787fa12a823e0f2b7631cc41b3ba8828b3321ca811111fa75cd3aa3bb5ace601f850160051c8101916020861061060557601f0160051c0190611c17565b38610326565b0151905038806102e9565b925060016000527fb10e2d527612073b26eecdfd717e6a320cf44b4afac2b0732d9fcbe2b7fa0cf6906000935b601f19841685106109d1576001945083601f198116106109b8575b505050811b016001556102ff565b015160001960f88460031b161c191690553880806109aa565b8181015183556020948501946001909301929091019061098f565b610a359060016000527fb10e2d527612073b26eecdfd717e6a320cf44b4afac2b0732d9fcbe2b7fa0cf6601f850160051c8101916020861061060557601f0160051c0190611c17565b386102d2565b60405162461bcd60e51b815260206004820152601f60248201527f496e73756666696369656e7420726567697374726174696f6e207374616b65006044820152606490fd5b60405162461bcd60e51b815260206004820152601b60248201527f566572696669657220616c7265616479207265676973746572656400000000006044820152606490fd5b6001600160401b038335116104d657602080602492610aeb3685883560a4350101611baa565b815201930192905061024c565b60003660031901126104d6576000546001600160a01b039081163303610c385760ff600a5460081c16610bf3576706f05b59d3b200003410610bae57600f5460405163cbf1d91f60e01b81526000600482015230602482015291602091839160449183913491165af180156104e357610b83575b600a805461ff0019166101001790556101f4600955005b602090813d8111610ba7575b610b998183611a89565b810103126104d65780610b6c565b503d610b8f565b60405162461bcd60e51b815260206004820152601f60248201527f496e73756666696369656e7420726561637469766174696f6e207374616b65006044820152606490fd5b60405162461bcd60e51b815260206004820152601760248201527f566572696669657220616c7265616479206163746976650000000000000000006044820152606490fd5b60405162461bcd60e51b815260206004820152601c60248201527f4f6e6c792076657269666965722063616e2072656163746976617465000000006044820152606490fd5b346104d65760203660031901126104d6576001600160a01b03610c9e611b94565b16600052600d602052602060ff604060002054166040519015158152f35b346104d65760003660031901126104d657604051806006549182815260208091019260066000527ff652222313e28459528d920b65115c16c04f3efc82aaedc97be59f3f377c0d3f916000905b828210610d3057610d2c85610d2081890382611a89565b60405191829182611b50565b0390f35b83546001600160a01b031686529485019460019384019390910190610d09565b346104d65760203660031901126104d657610d69611b94565b610d7a60ff600a5460081c16611c2e565b600754600160401b81101561060f576001810180600755811015610de85760076000527fa66cc928b5edb82af9bd49922954155ab7b0942694bea4ce44661d9a8736c6880180546001600160a01b0319166001600160a01b0390921691909117905560405160018152602090f35b634e487b7160e01b600052603260045260246000fd5b346104d65760003660031901126104d6576020601254604051908152f35b346104d65760003660031901126104d6576020601154604051908152f35b346104d65760003660031901126104d6576020600b54604051908152f35b346104d65760603660031901126104d657610e71611b94565b6044359081151582036104d6576001600160a01b03166000818152600d6020526040902054610ea29060ff16611c70565b600052600e60205260406000208054600160401b81101561060f57610ecc91600182018155611a37565b81549060031b90600019821b8092602435901b16911916179055610ef1601054611cbc565b60105515610f4257610f04601154611cbc565b6011556009546103e88110610f18575b505b005b600a8101809111610f2c5760095580610f14565b634e487b7160e01b600052601160045260246000fd5b610f4d601254611cbc565b60125560095460328111610f75575b5060646009541015610f165761ff0019600a5416600a55005b6031198101908111610f2c5760095580610f5c565b346104d65760003660031901126104d657604051806005549182815260208091019260056000527f036b6384b5eca791c62761152d0c79bb0604c104a5fb6f4eb0703f3154bb3db0916000905b828210610fee57610d2c85610d2081890382611a89565b83546001600160a01b031686529485019460019384019390910190610fd7565b346104d65760003660031901126104d6576020601054604051908152f35b346104d65760003660031901126104d65760405180600c5491828152602080910192600c6000527fdf6966c971051c3d54ec59162606531493a51404a002842f56009d7e5cf4a8c7916000905b82821061109057610d2c85610d2081890382611a89565b83546001600160a01b031686529485019460019384019390910190611079565b346104d65760203660031901126104d6576110c9611b94565b6110da60ff600a5460081c16611c2e565b6001600160a01b0381166000818152600d602052604090205490919060ff1661116757600c5490600160401b82101561060f576111208260016111449401600c55611a00565b90919082549060031b9160018060a01b039283811b93849216901b16911916179055565b600052600d6020526040600020600160ff19825416179055602060405160018152f35b60405162461bcd60e51b815260206004820152602160248201527f416c72656164792061737369676e656420746f207468697320636f6e747261636044820152601d60fa1b6064820152608490fd5b346104d65760403660031901126104d6576111cf611b94565b6001600160a01b03166000908152600e60205260409020805460243591908210156104d65760209161120091611a37565b90546040519160031b1c8152f35b346104d65760003660031901126104d657600f546040516001600160a01b039091168152602090f35b346104d65760003660031901126104d6576000546001600160a01b0316330361126757600a805461ff0019169055005b60405162461bcd60e51b815260206004820152601c60248201527f4f6e6c792076657269666965722063616e2064656163746976617465000000006044820152606490fd5b346104d65760003660031901126104d6576020600954604051908152f35b346104d65760003660031901126104d6576008546112e781611c00565b906112f56040519283611a89565b8082526020908183016008600052600080516020611ccc833981519152836000925b8484106113315760405182815280610d2c8185018a6119a4565b600191829161133f85611aaa565b8152019201920191908490611317565b346104d65760203660031901126104d657611368611b94565b61137960ff600a5460081c16611c2e565b600654600160401b81101561060f576001810180600655811015610de85760066000527ff652222313e28459528d920b65115c16c04f3efc82aaedc97be59f3f377c0d3f0180546001600160a01b0319166001600160a01b0390921691909117905560405160018152602090f35b346104d65760003660031901126104d657602060ff600a5460081c166040519015158152f35b346104d65760003660031901126104d657602060ff600a54166040519015158152f35b346104d6576020806003193601126104d6576001600160a01b03611452611b94565b16600052600e8152604060002060405190818382549182815201908192600052846000209060005b868282106114d057868661149082880383611a89565b604051928392818401908285525180915260408401929160005b8281106114b957505050500390f35b8351855286955093810193928101926001016114aa565b83548552909301926001928301920161147a565b346104d65760003660031901126104d657602060405160018152f35b346104d65760203660031901126104d6576001600160a01b0380611522611b94565b1680600052600d60205261153d60ff60406000205416611c70565b6000818152600d60205260408120805460ff19169055905b600c91825492838210156116025784938361156f84611a00565b979054600398891b1c161461159257505061158c91929350611cbc565b90611555565b9093925060001991828201918211610f2c57611120846115b46115c194611a00565b905490891b1c1691611a00565b825480156115ec5701926115d484611a00565b81939154921b1b19169055555b602060405160018152f35b634e487b7160e01b600052603160045260246000fd5b50505050506115e1565b346104d65760203660031901126104d657611625611b94565b61163660ff600a5460081c16611c2e565b600554600160401b81101561060f576001810180600555811015610de85760056000527f036b6384b5eca791c62761152d0c79bb0604c104a5fb6f4eb0703f3154bb3db00180546001600160a01b0319166001600160a01b0390921691909117905560405160018152602090f35b346104d65760203660031901126104d657600435600c548110156104d657600c6000527fdf6966c971051c3d54ec59162606531493a51404a002842f56009d7e5cf4a8c701546040516001600160a01b039091168152602090f35b346104d65760003660031901126104d657604051806007549182815260208091019260076000527fa66cc928b5edb82af9bd49922954155ab7b0942694bea4ce44661d9a8736c688916000905b82821061176357610d2c85610d2081890382611a89565b83546001600160a01b03168652948501946001938401939091019061174c565b346104d65760203660031901126104d6576004356008548110156104d6576117c2610d2c916008600052600080516020611ccc83398151915201611aaa565b604051918291602083526020830190611964565b346104d65760003660031901126104d65760095490600a5491601054601154601254916000600354908661180983611a4f565b91828252600193848116908160001461194557506001146118e4575b61183192500387611a89565b6008549061183e82611c00565b9061184c6040519283611a89565b8282526020928383016008600052600080516020611ccc8339815191526000915b8383106118c9575050505050966118a560ff92611898996040519a8b9a60e08c5260e08c0190611964565b918a8303908b01526119a4565b95604088015260081c1615156060860152608085015260a084015260c08301520390f35b848781926118d685611aaa565b81520192019201919061186d565b509060036000527fc2575a0e9e593c00f959f8c92f12db2869c3395a3b0502d05e2516446f71f85b90836000925b82841061192b5750505090602061183192820101611825565b6020929450805483858d0101520191019091838993611912565b6020925061183194915060ff191682840152151560051b820101611825565b919082519283825260005b848110611990575050826000602080949584010152601f8019910116010190565b60208183018101518483018201520161196f565b908082519081815260208091019281808460051b8301019501936000915b8483106119d25750505050505090565b90919293949584806119f0600193601f198682030187528a51611964565b98019301930191949392906119c2565b600c54811015610de857600c6000527fdf6966c971051c3d54ec59162606531493a51404a002842f56009d7e5cf4a8c70190600090565b8054821015610de85760005260206000200190600090565b90600182811c92168015611a7f575b6020831014611a6957565b634e487b7160e01b600052602260045260246000fd5b91607f1691611a5e565b90601f801991011681019081106001600160401b0382111761060f57604052565b9060405191826000825492611abe84611a4f565b908184526001948581169081600014611b2d5750600114611aea575b5050611ae892500383611a89565b565b9093915060005260209081600020936000915b818310611b15575050611ae893508201013880611ada565b85548884018501529485019487945091830191611afd565b915050611ae894506020925060ff191682840152151560051b8201013880611ada565b6020908160408183019282815285518094520193019160005b828110611b77575050505090565b83516001600160a01b031685529381019392810192600101611b69565b600435906001600160a01b03821682036104d657565b81601f820112156104d6578035906001600160401b03821161060f5760405192611bde601f8401601f191660200185611a89565b828452602083830101116104d657816000926020809301838601378301015290565b6001600160401b03811161060f5760051b60200190565b818110611c22575050565b60008155600101611c17565b15611c3557565b60405162461bcd60e51b81526020600482015260136024820152725665726966696572206e6f742061637469766560681b6044820152606490fd5b15611c7757565b60405162461bcd60e51b815260206004820152601d60248201527f4e6f742061737369676e656420746f207468697320636f6e74726163740000006044820152606490fd5b6000198114610f2c576001019056fef3f7a9fe364faab93b216da50a3214154f22a0a2b415b23a84c8169e8b636ee3a264697066735822122041e9a6eca253780f81e97d7a9f2d025e5da6361076ebe0c1e81ce2ba86a770b564736f6c63430008100033",
  "immutableReferences": {},
  "source": "// SPDX-License-Identifier: GPL-3.0\npragma solidity ^0.8.0;\npragma experimental ABIEncoderV2;\n\nimport \"./StakeManager.sol\";\n\ncontract Verifier {\n\n    address walletAddress;\n    string email;\n    string phoneNumber;\n    string name;\n    string employeeId;\n    address[] documentsVerified;\n    address[] officersVerified;\n    address[] contractorsVerified;\n    \n    // Enhanced verifier profile\n    string[] public expertiseDomains; // e.g., [\"Civil Engineering\", \"Road Construction\"]\n    uint256 public reputationScore; // 0-1000, starts at 500\n    bool public isRegistered;\n    bool public isActive;\n    uint256 public registrationStakeId;\n    \n    // Verification tracking\n    address[] public assignedContracts;\n    mapping(address => bool) public isAssignedToContract;\n    mapping(address => uint256[]) public verificationHistory; // contract => task indices verified\n    \n    StakeManager public stakeManager;\n    \n    // Verification statistics\n    uint256 public totalVerifications;\n    uint256 public correctVerifications;\n    uint256 public slashedVerifications;\n    \n    function setVerifier(\n        address _walletAddress, \n        string memory _email, \n        string memory _phoneNumber, \n        string memory _name, \n        string memory _employeeId,\n        string[] memory _expertiseDomains,\n        address _stakeManagerAddress\n    ) public payable returns (bool) {\n        require(!isRegistered, \"Verifier already registered\");\n        require(msg.value >= 1 ether, \"Insufficient registration stake\");\n        \n        walletAddress = _walletAddress;\n        email = _email;\n        phoneNumber = _phoneNumber;\n        name = _name;\n        employeeId = _employeeId;\n        expertiseDomains = _expertiseDomains;\n        reputationScore = 500; // Start with neutral reputation\n        isRegistered = true;\n        isActive = true;\n        \n        stakeManager = StakeManager(_stakeManagerAddress);\n        \n        // Create registration stake\n        registrationStakeId = stakeManager.createStake{value: msg.value}(\n            StakeManager.StakeType.VERIFIER_REGISTRATION, \n            address(this)\n        );\n        \n        return true;\n    }\n\n    // function login(address userAddress, string role) public  returns (string) {\n    // }\n\n    // //unverified\n    // function getAllUnverifiedGovernmentOfficers(string token) public returns (address[]) {\n    //     //defined in GovernmentOfficerRepo\n    // }    \n\n    // function getAllUnverifiedContractors(string token) public returns (address[]) {\n    //     //defined in ContractorRepo\n    // }   \n\n    // function getAllUnverifiedDocuments(string token) public returns (string[]) {\n    //     //getProposalToVerify() in Tender.sol\n    // }\n\n\n    // verification\n    function verifyGovernmentOfficer(address govtOfficer) public returns (bool) {\n        require(isActive, \"Verifier not active\");\n        officersVerified.push(govtOfficer);\n        return true;\n    }\n\n    function verifyContractor(address contractor) public returns (bool) {\n        require(isActive, \"Verifier not active\");\n        contractorsVerified.push(contractor);\n        return true;\n    }\n\n    function verifyProposalDocuments(address tender) public returns (bool) {\n        require(isActive, \"Verifier not active\");\n        documentsVerified.push(tender);\n        return true;\n    }\n    \n    function assignToContract(address _contractAddress) public returns (bool) {\n        require(isActive, \"Verifier not active\");\n        require(!isAssignedToContract[_contractAddress], \"Already assigned to this contract\");\n        \n        assignedContracts.push(_contractAddress);\n        isAssignedToContract[_contractAddress] = true;\n        return true;\n    }\n    \n    function unassignFromContract(address _contractAddress) public returns (bool) {\n        require(isAssignedToContract[_contractAddress], \"Not assigned to this contract\");\n        \n        isAssignedToContract[_contractAddress] = false;\n        \n        // Remove from array\n        for (uint i = 0; i < assignedContracts.length; i++) {\n            if (assignedContracts[i] == _contractAddress) {\n                assignedContracts[i] = assignedContracts[assignedContracts.length - 1];\n                assignedContracts.pop();\n                break;\n            }\n        }\n        \n        return true;\n    }\n\n    function recordVerification(address _contractAddress, uint256 _taskIndex, bool _wasCorrect) public {\n        // This should be called by contract logic to update verifier stats\n        require(isAssignedToContract[_contractAddress], \"Not assigned to this contract\");\n        \n        verificationHistory[_contractAddress].push(_taskIndex);\n        totalVerifications++;\n        \n        if (_wasCorrect) {\n            correctVerifications++;\n            // Increase reputation for correct verification\n            if (reputationScore < 1000) {\n                reputationScore += 10;\n            }\n        } else {\n            slashedVerifications++;\n            // Decrease reputation for incorrect verification\n            if (reputationScore > 50) {\n                reputationScore -= 50;\n            }\n            \n            // Deactivate verifier if reputation too low\n            if (reputationScore < 100) {\n                isActive = false;\n            }\n        }\n    }\n    \n    function getVerifierProfile() public view returns (\n        string memory, // name\n        string[] memory, // expertise domains\n        uint256, // reputation score\n        bool, // is active\n        uint256, // total verifications\n        uint256, // correct verifications\n        uint256 // slashed verifications\n    ) {\n        return (name, expertiseDomains, reputationScore, isActive, totalVerifications, correctVerifications, slashedVerifications);\n    }\n    \n    function getAssignedContracts() public view returns (address[] memory) {\n        return assignedContracts;\n    }\n    \n    function getVerificationHistory(address _contractAddress) public view returns (uint256[] memory) {\n        return verificationHistory[_contractAddress];\n    }\n    \n    function getExpertiseDomains() public view returns (string[] memory) {\n        return expertiseDomains;\n    }\n    \n    function myVerifiedDocuments() public view returns (address[] memory ) {\n        return documentsVerified;\n    }\n\n    function myVerifiedOfficers() public view returns (address[] memory) {\n        return officersVerified;\n    }\n\n    function myVerifiedContractors() public view returns (address[] memory ) {\n        return contractorsVerified;\n    }\n    \n    function deactivateVerifier() public {\n        require(msg.sender == walletAddress, \"Only verifier can deactivate\");\n        isActive = false;\n    }\n    \n    function reactivateVerifier() public payable {\n        require(msg.sender == walletAddress, \"Only verifier can reactivate\");\n        require(!isActive, \"Verifier already active\");\n        require(msg.value >= 0.5 ether, \"Insufficient reactivation stake\");\n        \n        // Create additional stake for reactivation\n        stakeManager.createStake{value: msg.value}(\n            StakeManager.StakeType.VERIFIER_REGISTRATION, \n            address(this)\n        );\n        \n        isActive = true;\n        reputationScore = 500; // Reset to neutral reputation\n    }\n\n    function logout() public returns(bool) {\n        // Implementation for logout if needed\n        return true;\n    }\n}",
  "sourcePath": "/home/aniketdatar/Desktop/Other/tendersystem-blockchain/contracts/Verifier.sol",
  "compiler": {
    "name": "solc",
    "version": "0.8.16+commit.07a7930e.Emscripten.clang"
  },
  "schemaVersion": "3.4.9",
  "updatedAt": "2025-08-19T10:17:23.142Z",
  "networkType": "ethereum",
  "devdoc": {
    "kind": "dev",
    "methods": {},
    "version": 1
  },
  "userdoc": {
    "kind": "user",
    "methods": {},
    "version": 1
  }
}